:100000000C948F010C94FD1C0C94AC010C94AC016D
:100010000C94AC010C94AC010C94AC010C94AC01AC
:100020000C94AC010C94AC010C94A6240C9479258E
:100030000C948F1F0C94AC010C94AC010C94AC018B
:100040000C94AC010C94AC010C94AC010C94AC017C
:100050000C94AC010C9421200C94AC010C94AC01D8
:100060000C94AC010C94AC010C94AC010C94AC015C
:100070000C94AC010C94AC010C94AC010C94AC014C
:100080000C94AC010C94AC010C94AC010C94AC013C
:100090000C94AC010C94AC010C94AC010C94AC012C
:1000A0000C94AC010C94AC010C94AC0114001A003B
:1000B00008001500170004001600070009000A00D8
:1000C0001D001B0006001900050000002F00300075
:1000D00029622A610000350001514A002B001300FB
:1000E00012000C0018001C0033000F000E000D0061
:1000F0000B003400370036001000110000002E0005
:100100002D0028622C640000E30002514D004C00D9
:1001100001000100ED00010001000100EF00EE0010
:10012000F0000100010001000100010001000000D9
:1001300001000100010001000000010001000100B8
:1001400001004B00010052000100A9004E004F00C9
:1001500051005000A8003102380231003800AA00D6
:100160000000F200F10001000100000001000100A8
:10017000010001003A003B003C003D003E001E0033
:100180001F002000210022001E021F022002210267
:1001900022020000440045000100010000000100AF
:1001A00001000100010043004200410040003F0007
:1001B000270026002500240023002702260225020E
:1001C00024022302000001000100010001000000E0
:1001D00001000100010001002803440061006300E8
:1001E000740079006C0020004D0061006E00750005
:1001F00066006F0072006D0020003400780035004A
:1002000000000E037400730068006F007200740039
:1002100000000403090409023B00020100A0FA09DE
:100220000400000103010100092111010001224025
:10023000000705810308000A09040100010300000A
:1002400000092111010001227B0007058203200023
:100250000A12010002000000084D4435340100017B
:1002600002000105010902A10185020901A10005A1
:100270000919012908150025019508750181020554
:1002800001093009311581257F950275088106091C
:10029000381581257F950175088106050C0A3802FD
:1002A0001581257F950175088106C0C0050109806B
:1002B000A101850319012AB700150126B700950190
:1002C00075108100C0050C0901A101850419012ADE
:1002D000A002150126A002950175108100C005013C
:1002E0000906A101050719E029E715002501950870
:1002F000750181029501750881010507190029FF23
:10030000150026FF009506750881000508190129CA
:1003100005950575019102950175039101C01124A0
:100320001FBECFEFDAE0DEBFCDBF11E0A0E0B1E04D
:10033000ECE6F0E502C005900D92AC3BB107D9F7B1
:1003400022E0ACEBB1E001C01D92A13CB207E1F7A5
:100350000E9495160C94C6270C94000081E0089525
:1003600081E008950C94B00108950C94B4011F939A
:10037000CF93DF9300D000D00F92CDB7DEB7498383
:100380005A836B833091BE0189819A8131111DC0DE
:100390006623B9F02223A9F00E943409182F682F90
:1003A00089819A810E94DD0869817A81812F0F906D
:1003B0000F900F900F900F90DF91CF911F910C94A1
:1003C000B10F0E940B09182FEFCF0E9434096981E9
:1003D0007A81EDCFFC01262F4081518162817381AA
:1003E00084810C94B70181E00895CF93DF93D82FD7
:1003F000C92F60E00E94EA016D2F7C2FDF91CF9121
:100400000C94B5010E9424120E947F020C945D128C
:100410000C94601280E00C948002089508950E946C
:10042000B6060E940E022FEF84E39CE0215080402C
:100430009040E1F700C000000C9445200F931F93FB
:10044000CF93DF938C0161E00E94EA01EC01B801D7
:100450000E94B2018823A9F1B801CE010E94021CBA
:10046000882379F1B801CE010E943819882349F117
:10047000B801CE010E946C1B882319F1F80182811A
:10048000882361F0CB35FDE5DF0721F170F4C1155C
:10049000ECE5DE07A1F0CF3DDC45C9F0C801DF91F6
:1004A000CF911F910F910C94AE01CC358DE5D807FB
:1004B000A1F0CD35DD4591F70E941D0EEFCF0E94D2
:1004C0000F0280E0DF91CF911F910F9108950E945C
:1004D000D10EF7CF0E94260EE1CF0E94290EDECF6B
:1004E0000C940D020E94821E0E9480020C947002E5
:1004F00008950C94780281E008950C947B0208958D
:10050000CF93C82F0E9479028C2FCF910C947D023B
:10051000EF92FF920F931F93CF93DF93CDB7DEB788
:100520002B970FB6F894DEBF0FBECDBF042F4F83BD
:10053000152F588769877A878B87EA84FB84611136
:100540000E946A0D1E8285E0FE013796DE0111963B
:1005500001900D928A95E1F7EF28A9F449815A811B
:100560006B817C818D819E810E94890C2B960FB6B8
:10057000F894DEBF0FBECDBFDF91CF911F910F91D9
:10058000FF90EF90089510231F3F41F3CE01019695
:100590000E94F3018111E2CFE9CFFC0180819181BA
:1005A0000C947609CF93C82F882309F48FC0823822
:1005B000C1F40E94821E81FD89C089E30E94230D3F
:1005C0000E949B0D2FEF31EE84E02150304080409F
:1005D000E1F700C0000089E30E942A0DCF910C943E
:1005E0009B0D8338A1F40E94821E80FD6FC083E5BD
:1005F0000E94230D0E949B0D9FEF21EE34E091504D
:1006000020403040E1F700C0000083E5E5CF8438AA
:10061000A1F40E94821E82FD59C087E40E94230D2E
:100620000E949B0D8FEF91EE24E08150904020407E
:10063000E1F700C0000087E4CFCF8CEF8C0F813A48
:10064000B8F48C2F0E94B31A811140C06C2F809196
:100650000201909103010E94ED1E882329F08C2F46
:100660000E942A0D0E949B0D8C2F0E94230DB6CF55
:1006700080E28C0F883048F4C77081E001C0880F99
:10068000CA95EAF70E944B0DA9CF8BE58C0F8330FA
:1006900038F42C2F2452330BC901CF910C94AF1E88
:1006A000E8E5EC0FE73150F4F0E0EE0FFF1FEA5CF5
:1006B000FE4F80819181CF910C94C51ECD3E30F0CC
:1006C0008C2F0E942517CF910C94E717CF91089596
:1006D000882309F452C0823871F40E94821E81FF7F
:1006E0004CC089E30E94230D0E949B0D89E30E9468
:1006F0002A0D0C949B0D833859F40E94821E80FFB2
:100700003CC083E50E94230D0E949B0D83E5EFCF43
:10071000843859F40E94821E82FF2FC087E40E9411
:10072000230D0E949B0D87E4E2CF9CEF980F913A36
:10073000F0F290E2980F983050F4877091E001C089
:10074000990F8A95EAF7892F0E94510DD2CF9BE528
:10075000980F933020F490E080E00C94AF1E98E561
:10076000980F973120F490E080E00C94C51E8D3EE8
:1007700020F00E946E170C94E71708951F93CF93F3
:10078000DF93182FEB010E94D202209731F4812FC2
:10079000DF91CF911F910C9468038FE99FE001973F
:1007A000F1F700C000002197F0CF70E060E08933DE
:1007B00011F460E570E00C94BE03882321F00E94E0
:1007C0004B0D0C949B0D0895882321F00E94510D30
:1007D0000C949B0D0895AF92BF92CF92DF92EF924F
:1007E000FF920F931F93CF93DF9300D000D00F920F
:1007F000CDB7DEB76C016D837983FC011281F58082
:10080000F2949FE0F9220E94410DE82E8823B9F06E
:10081000E12E1123A1F08981807F803421F08D8128
:10082000805E8830B0F08091980282FD12C082E034
:100830000E94EC0D0E94410D91E0E82EE926A9806E
:10084000A2948FE0A822B12CF501E853F84D0C9446
:100850005427E12CF4CF09810F70F981F07F11F05A
:100860000295007F1123A1F0002361F08D81805E4D
:10087000883018F01D81111107C0802F0E944B0D88
:100880000E949B0D8D8144C0802F0E945C0DF8CF8B
:100890008D810E946803002309F442C08D81805E2F
:1008A000883018F01D81111104C0802F0E94510D55
:1008B00003C0802F0E94620D0E949B0D31C00981F0
:1008C0000F702981207F203211F00295007F3D8139
:1008D000332381F0313009F471C0112309F47BC056
:1008E000FF2009F471C0F601858180FFCBCF8F70A6
:1008F00085836AC08091980282FF40C0112359F01D
:10090000002329F0802F0E944B0D0E949B0D80E058
:100910000E94D20205C080E00E9468030111C5CF89
:1009200088E0A81AB10894E0A916B10420F40E9446
:10093000821E0E948002EE2009F4AFC10E943D0D8C
:1009400080FDABC1F60112820E94370D0E94CD07D7
:10095000C6010E9474060E94370D0F900F900F90F1
:100960000F900F90DF91CF911F910F91FF90EF901B
:10097000DF90CF90BF90AF900C94FE07112389F0C9
:10098000F11006C00E947E0D802B0E94DD03C8CFAF
:1009900081E0F812F7CF0E947E0D802B0E94840D1B
:1009A000BFCFF11006C00E94910D802F0E94E4037A
:1009B000B7CF91E0F91609F4B3CFF5CF112331F099
:1009C000E5E0EF1508F4ACCF802FDFCFF4E0FF15A2
:1009D00008F4A6CFEACFFF2041F30D81093349F493
:1009E0001FEF27EE33E0115020403040E1F700C008
:1009F00000008D810E94680393CF8981869586953A
:100A0000837069F0813009F08BCF8D81998193706B
:100A1000111102C090E080E00E94C51E81CF8D813F
:100A200099819370111102C090E080E00E94AF1E86
:100A300077CF8D81112329F00E9425170E94E71797
:100A40006FCF0E946E17FACF8981837009F050C072
:100A5000111166CF2D81229526952770220F220F26
:100A60004D814F7050E070E060E0022E04C0440FF2
:100A7000551F661F771F0A94D2F70D8180E090E022
:100A8000DC0104FF0FC08FE090E0A0E0B0E004C004
:100A9000880F991FAA1FBB1F2A95D2F780959095A2
:100AA000A095B09519811695169513701D838C012C
:100AB0009D01042B152B262B372B09831A832B839F
:100AC0003C831D8169817A818B819C81123051F038
:100AD000133059F0113019F00E94430721CF0E94C2
:100AE0001B071ECF0E946B071BCF0E94190718CF50
:100AF000112309F448C0098100FF12CF2D812295EE
:100B000026952770220F220F4D814F7050E070E024
:100B100060E0022E04C0440F551F661F771F0A9421
:100B2000D2F70D8180E090E0DC0104FF0FC08FE080
:100B300090E0A0E0B0E004C0880F991FAA1FBB1F7F
:100B40002A95D2F780959095A095B0951981169524
:100B5000169513701D838C019D01042B152B262BDC
:100B6000372B09831A832B833C831D8169817A810A
:100B70008B819C81123071F0133079F0113039F093
:100B80000E948C08CDCE198111FFCACEB7CF0E942A
:100B90006408C6CE0E94B408C3CE0E949707C0CE98
:100BA00009810F700983112329F0802F0E94CD073E
:100BB0008D81EBCE8D810E94E40389810E94FE0726
:100BC000AFCE0D81023F59F160F4003FC1F0013F0B
:100BD00089F0112309F44CC0F11054CE89818F7132
:100BE00022C00D81033F11F1043F99F780919802D3
:100BF00082FF26C089818F71112301F314C0112354
:100C000049F014E01F1508F48BCE89818F710E9482
:100C1000330886CE25E02F1508F482CEF6CF8981E1
:100C20008F711111CBCF0E94CD077ACE112329F0FD
:100C300089818F710E94A80773CE0E94A30770CE8E
:100C4000112359F009810F710983802F0E94CD076C
:100C500063E089810E94D10D63CE81E00E94EC0D9A
:100C600011E01F1508F05CCE82E00E94EC0D58CE1A
:100C7000F110B3CE89818F71A1CF49814F706D8101
:100C8000C6010E94AD0F0E94AC094ACE49814F7047
:100C90006D81C6010E94B00F43CE0F900F900F9050
:100CA0000F900F90DF91CF911F910F91FF90EF90D8
:100CB000DF90CF90BF90AF9008950F931F93CF9385
:100CC000DF93EC01688179818A810E9482098C011D
:100CD0000E94DC080E941807B801CE01DF91CF9175
:100CE0001F910F910C94EB03CF93DF93EC0198814C
:100CF00089812B813C81232B19F089238F3F59F463
:100D0000DF91CF910895CE010E945D06CE01DF9163
:100D1000CF910C94F501CE010E941E028111F3CFF8
:100D20000E94410D882361F38A81882349F38091D1
:100D3000980282FDE5CF82E0DF91CF910C94EC0D1B
:100D400090E080E00E94AF1E90E080E00E94C51E0F
:100D50000E946A0D0E947B0D0E949B0D0E94121939
:100D60000C94E7170E94310D0C94A0060E94590DB7
:100D70000C94B206282F892F82958F70903C80F4B6
:100D80008A30B0F4843020F4823090F480E008950A
:100D90008630E1F781E0283E88F0213FB9F70EC0A8
:100DA0008C3011F08F3091F793FB882780F90895EC
:100DB00081E0203F39F018F4283E40F70895243FA1
:100DC00029F7FCCF0895FC01808191810E9476096A
:100DD0000C94BA06CF93DF9300D000D00F92CDB71A
:100DE000DEB70F900F900F900F900F90DF91CF9183
:100DF0000895CF93DF9300D000D000D0CDB7DEB7F9
:100E000026960FB6F894DEBF0FBECDBFDF91CF910F
:100E1000089508950C9409070E940A076093E6015B
:100E20007093E7018093E8019093E9010C94A00688
:100E300008950C940C07CF93DF9300D000D0CDB76A
:100E4000DEB769837A838B839C838091E6019091DE
:100E5000E701A091E801B091E90129813A814B8134
:100E60005C81282B392B4A2B5B2B29833A834B83BC
:100E70005C83CA01B9010F900F900F900F90DF9122
:100E8000CF910C940C07CF93DF9300D000D0CDB757
:100E9000DEB769837A838B839C838091E60190918E
:100EA000E701A091E801B091E90129813A814B81E4
:100EB0005C81282339234A235B2329833A834B838C
:100EC0005C83CA01B9010F900F900F900F90DF91D2
:100ED000CF910C940C07CF93DF9300D000D0CDB707
:100EE000DEB769837A838B839C838091E60190913E
:100EF000E701A091E801B091E90129813A814B8194
:100F00005C81282739274A275B2729833A834B832B
:100F10005C83CA01B9010F900F900F900F90DF9181
:100F2000CF910C940C070C9409070C9493070E9422
:100F300095076093E2017093E3018093E40190933D
:100F4000E5010C94A00660E070E0CB010C949707DB
:100F50000F931F93CF93DF9300D000D0CDB7DEB7B0
:100F600041E050E060E070E08A019B0104C0000FA6
:100F7000111F221F331F8A95D2F709831A832B83EF
:100F80003C83C901B8010F900F900F900F90DF9133
:100F9000CF911F910F910C9497070F931F93CF93AD
:100FA000DF9300D000D0CDB7DEB741E050E060E085
:100FB00070E004C0440F551F661F771F8A95D2F753
:100FC0008091E2019091E301A091E401B091E501EB
:100FD0008A019B01082B192B2A2B3B2B09831A838F
:100FE0002B833C83C901B8010F900F900F900F9095
:100FF000DF91CF911F910F910C9497070F931F933F
:10100000CF93DF9300D000D0CDB7DEB741E050E002
:1010100060E070E004C0440F551F661F771F8A957B
:10102000D2F740955095609570958091E20190912E
:10103000E301A091E401B091E5018A019B0108233D
:1010400019232A233B2309831A832B833C83C90159
:10105000B8010F900F900F900F90DF91CF911F91DB
:101060000F910C9497070F931F93CF93DF9300D0AA
:1010700000D0CDB7DEB741E050E060E070E004C0E2
:10108000440F551F661F771F8A95D2F78091E201A2
:101090009091E301A091E401B091E5018A019B01E7
:1010A000082719272A273B2709831A832B833C8388
:1010B000C901B8010F900F900F900F90DF91CF9161
:1010C0001F910F910C949707CF93DF9300D000D01E
:1010D000CDB7DEB769837A838B839C838091E201ED
:1010E0009091E301A091E401B091E50129813A8159
:1010F0004B815C81282B392B4A2B5B2B29833A832C
:101100004B835C83CA01B9010F900F900F900F9031
:10111000DF91CF910C949707CF93DF9300D000D04D
:10112000CDB7DEB769837A838B839C838091E2019C
:101130009091E301A091E401B091E50129813A8108
:101140004B815C81282339234A235B2329833A83FB
:101150004B835C83CA01B9010F900F900F900F90E1
:10116000DF91CF910C949707CF93DF9300D000D0FD
:10117000CDB7DEB769837A838B839C838091E2014C
:101180009091E301A091E401B091E50129813A81B8
:101190004B815C81282739274A275B2729833A839B
:1011A0004B835C83CA01B9010F900F900F900F9091
:1011B000DF91CF910C9497070895E92FEE0FEE0F72
:1011C000E90FE80F8E2F877041E001C0440F8A9528
:1011D000EAF7E695E695E69585E0E89FF0011124AB
:1011E000E154FE4F30E020E070E05191DF011197B3
:1011F000CB01022E02C0969587950A94E2F7817082
:1012000081958527842385278C932F5F3F4F253039
:10121000310559F70895E92FEE0FEE0FE90FE80FAA
:101220009E2F9770E695E695E69585E0E89FF0019C
:101230001124E154FE4F50E040E080E0219130E085
:10124000092E02C0369527950A94E2F721703327BC
:10125000042E01C0220F0A94EAF7822B4F5F5F4FE2
:101260004530510559F70895BF92CF92DF92EF9222
:10127000FF920F931F93CF93DF938C01C090E201F5
:10128000D090E301E090E401F090E5018091E60167
:101290009091E701A091E801B091E901C82AD92A0B
:1012A000EA2AFB2ACFE1D0E0BC2ED701C6010C2EE2
:1012B00004C0B695A795979587950A94D2F780FDB7
:1012C0000EC0219788F7B12C8B2DDF91CF911F9104
:1012D0000F91FF90EF90DF90CF90BF900895B801ED
:1012E0008C2F0E94DF10019761F3EECFCF93DF9335
:1012F000D82FC92F0E9434096D2F7C2FDF91CF91F9
:101300000C94DF101F93CF93DF93162FD72F90915C
:10131000BE01992339F0862F972FDF91CF911F912E
:101320000C947609882391F0862F972F0E94340918
:10133000C82F682F812F9D2F0E94DD08612F7D2FE0
:101340008C2FDF91CF911F910C94DF10862F972F58
:101350000E940B09C82FF2CFEF92FF920F931F93B9
:10136000CF93DF938C01892B89F0F12CEE24E39449
:10137000E8012196F8018491843709F458C0A0F45B
:10138000823009F43FC048F48130D1F0DF91CF9131
:101390001F910F91FF90EF9008959CEF980F903759
:1013A000A8F70E94D2020AC0853709F44EC09CE714
:1013B000980F903758F78F770E9468038E0116C0F8
:1013C0000E5F1F4FFE01849190E2980F983060F4F9
:1013D0008770FE2D01C0FF0F8A95EAF78F2F0E94BC
:1013E0006D0D0E949B0D02C00E94D2028F2D88239A
:1013F00009F4BECFEFE9FFE03197F1F700C000003C
:101400008150F5CF0E5F1F4FFE01849190E2980F3F
:10141000983050F48770FE2D01C0FF0F8A95EAF7CF
:101420008F2F0E94730DDDCF0E946803DFCF0E5F08
:101430001F4FFE01C491CC23C9F28FE99FE00197B1
:10144000F1F700C00000C150F6CF0E5F1F4FFE0144
:10145000F490CCCF1F93CF93DF93E091EA0116E095
:101460008091EB018E1304C0DF91CF911F910895FD
:10147000CE2FD0E01E9FF0011124E451FE4F408199
:10148000518162817381848195810E94F906219640
:10149000EC2FE770E5CF40911C0250911D02609146
:1014A0001E0270911F0280912002909121020C94E3
:1014B000F906FF920F931F93CF93DF938091210240
:1014C000807FD1F480911E028823B1F08091EA01DF
:1014D0001091EB0170911C0260911D02A0911F02FE
:1014E000B0912002062F0723C0910001D091010185
:1014F00096E0F92E181306C0DF91CF911F910F913E
:10150000FF90089590E0109711F00F3F19F40196A5
:101510008770F0CFF89E9001F99E300D1124F901EB
:10152000E451FE4F41816413F2CF40814713EFCF66
:1015300042814111ECCF438154814A1B5B0B4C1714
:101540005D0728F7809121028F70806180932102CE
:10155000F901EF50FE4F80818F70806180838CE1B4
:1015600092E00E947406DF91CF911F910F91FF903E
:101570000C942A0AAF92BF92CF92DF92EF92FF9221
:101580000F931F93CF93DF93CDB7DEB72B970FB693
:10159000F894DEBF0FBECDBF8C0185E0F801DE01FF
:1015A000179601900D928A95E1F7D8011296EC906A
:1015B00012971396CD90DC909CE1A92E92E0B92E63
:1015C00030911C0290911D0240911F025091200207
:1015D0004115510529F0892F83238F3F09F082C1DE
:1015E000EE2009F492C1C8010E94E306F82E882378
:1015F00009F48BC186E0F801ACE1B2E001900D92F4
:101600008A95E1F78CE192E00E94CD020E94590A8E
:1016100038C180912102E82FE07F4617570708F074
:10162000D2C0D80111962C911197E11116C1FE2C50
:10163000291325C09C91931322C0E11020C08F7004
:101640008061809321020E944B0A8CE192E00E940B
:10165000740680912102F80185838F2D2B960FB699
:10166000F894DEBF0FBECDBFDF91CF911F910F91D8
:10167000FF90EF90DF90CF90BF90AF9008953F81A3
:10168000C114D10429F0822F83238F3F09F0E2C0D7
:1016900080E080FF08C0E091EA014091EB0186E024
:1016A000B82EE4131BC0CD2829F0822F83238F3F4F
:1016B00009F0C2C080E0F82FF170DF2EE091EA015E
:1016C0004091EB0156E080FD30C0EE2031F2809178
:1016D0002102816080932102F12CBFCF8E2F90E0F8
:1016E000BE9EF0011124E451FE4F5181251306C026
:1016F0005081531303C052815E11A1C00196E82F9F
:10170000E770CFCF8E2F90E05E9FF0011124E4515F
:10171000FE4F6181261306C06081631303C062819E
:101720006E11D3CF0196E82FE770E413EBCF8F81D2
:1017300098850E947609292F22952F70903268F0A3
:10174000225F2F70223080F49F7059F0D8011596D7
:101750009C91907F31F4D12C0AC09F7011F08823A6
:10176000D1F3805E8830B8F3C8010E947406FD2C66
:1017700074CFC8010E94E306882309F4C6C0EE2096
:1017800009F4C3C080912102803270F020911C02C4
:1017900030911D023A8329831B82DD82CC828E83A5
:1017A000CE0101960E94740686E0F801ACE1B2E039
:1017B00001900D928A95E1F70E94590A0E944B0A06
:1017C000FF24F3944ACFE1115FC04F8158856985AA
:1017D0007A858B850E94EA068CE192E00E9474066D
:1017E00086E0D5011D928A95E9F70E944B0A74CFD5
:1017F00086E0F801ACE1B2E001900D928A95E1F744
:101800002CCFC8010E94E3068111CECF8091210226
:10181000816080932102C8010E9474061ECF4F810F
:10182000588569857A858B850E94EA0686E0D50110
:101830001D928A95E9F725C081E08E253CCF8CE189
:1018400092E00E947406ECE1F2E0DF011D92BA948E
:10185000E9F7CBCF81E08E251CCF29138ACFF80181
:101860009081931386CFE11084CF8583C8010E94B5
:10187000740686E0F801ACE1B2E001900D928A9521
:10188000E1F70E944B0AE9CEF8012181921371CF52
:10189000F801908193136DCFE1106BCF8583C80160
:1018A0000E94740686E0D5011D928A95E9F7D5CE8F
:1018B000D80111968C919813A4CFF80180818313DD
:1018C000A0CF8091210280FD93CF982F907F09F4C3
:1018D0008FCF8583903F51F2982F907F905F8F70CC
:1018E000892BC3CFF0901E02F601E41BF50BAF016C
:1018F0006091000170910101F1108BCE46175707DE
:1019000008F08DCFFE2CE110D3CFC8010E947406E1
:1019100057CF1F93CF93DF93CDB7DEB72C970FB67A
:10192000F894DEBF0FBECDBF4F83588769877A8793
:101930008B879C87CE0107960E94BA0A882369F09C
:101940008A859B85892B39F058854F81852F842383
:101950008F3F09F071C016E05FC086E0FE01379648
:10196000DE01119601900D928A95E1F78F8198859D
:101970002091EB014091EA016A857B85672B59F341
:1019800089238F3F41F330E0C90101968770992781
:101990004817190671F40E94B6061092EB011092D6
:1019A000EA0186E0ECE1F2E0DF011D928A95E9F7B9
:1019B000D2CF96E0929FD001939FB00D1124A451F5
:1019C000BE4FFE01319601900D929A95E1F78093FA
:1019D000EB010E942A0ABFCF819FC00111248451CC
:1019E0009E4F0E94BA0A8823E9F0E091EA011E9F07
:1019F000F0011124E451FE4F4081518162817381D5
:101A0000848195810E94F9068091EA0190E0019617
:101A1000877099278093EA018091EA019091EB0108
:101A20008913DACF2C960FB6F894DEBF0FBECDBF68
:101A3000DF91CF911F91089569857A858B859C856B
:101A40000E94F90688CF682F8091020190910301CE
:101A50000C94271F682F80910201909103010C9430
:101A6000291F80910201909103010C942B1F8091FA
:101A7000220285958595859508958091220287702B
:101A8000089590912202977081E009F480E0089512
:101A900080912E02089590912E02982B90932E0201
:101AA0000895982F909580912E02892380932E027D
:101AB000089510922E02089590912D02982B9093E4
:101AC0002D020895982F909580912D02892380935F
:101AD0002D02089510922D02089590912C02982BBA
:101AE00090932C020895982F909580912C02892331
:101AF00080932C02089510922C0208958091230265
:101B0000089508950C94810D9091980292FD08C05B
:101B100090912302981721F0809323020C94820D58
:101B2000089580912302882329F01092230280E0F7
:101B30000C94820D0895E0910201F09103018091CF
:101B40002E028083E0910201F09103018081909147
:101B50002D02892B8083E0910201F09103018081A5
:101B600090912C02892B808390912302992381F0FC
:101B7000E0910201F09103018081892B80838091A3
:101B80000201909103010E94DB1E81110E94910DC0
:101B900080910201909103010C94951E08950C947C
:101BA000CE0D9091980292FD10C098E0899F90010F
:101BB0001124622B609322020E94CD0780912202A1
:101BC0008595859585950C94CF0D0C94CD07109235
:101BD000220280E00C94CF0D9091220280958923FF
:101BE00080932202282F277091F4282F082E000CB2
:101BF000330B9217130659F09091980292FD07C08B
:101C00008595859585950E94FE070C94E70D0895AE
:101C10009091980292FB222720F9281769F080FB07
:101C200092F99093980280919702909198020E9465
:101C30004D0E82E00C94EC0D08958091980282FB89
:101C4000882780F991E089270C94080E81E00C9494
:101C5000080E80E00C94080E90E080E00E948C2733
:101C60009C0181E0293E3E4F09F080E0089582E02A
:101C700090E00C94842783E090E00C948427CF9329
:101C800084E090E00E948427C82F82E290E00E94C6
:101C90008427982F8C2FCF910895CF93682FC92F29
:101CA00084E090E00E9492276C2F82E290E0CF9136
:101CB0000C949227AB01BC018FE090E00C94A42718
:101CC000AB01BC0183E190E00C94A42760E070E0DC
:101CD000CB010C94600E60E070E0CB010E945A0EC4
:101CE0000C94660E69EE7EEF90E080E00E94B027D3
:101CF00060E082E090E00E94922760E083E090E064
:101D00000E9492271092E6011092E7011092E801DA
:101D10001092E90160E084E090E00E94922760E088
:101D200082E290E00E94922760E085E090E00E94CD
:101D3000922760E086E090E00E9492276FEF87E0B4
:101D400090E00E94922740E050E0BA0188E090E0E5
:101D50000E94A42760E08DE090E00E94922740E07E
:101D600050E0BA0188E190E00E94A42760E087E19A
:101D700090E00E94922740E050E0BA018CE190E0B0
:101D80000E94A42770E060E080E290E00E94B0270B
:101D900040E050E0BA0188E190E00E94A4270C9452
:101DA0006B0E0C94720E682F8EE090E00C949227CC
:101DB0000E94CB1F60933E0270933F0280934002CB
:101DC0009093410260933A0270933B0280933C02ED
:101DD00090933D02089585B7806885BF85B7806878
:101DE00085BF0895089508950C94F20E08950C94FB
:101DF000F60E0E94EB0E81E292E10E94781E0E9494
:101E0000F30E0C94F40E0C943314089508950E946C
:101E1000050F0C94060F0E94B61F0E94BE110E946F
:101E20000B130E9420190C94F70EAF92BF92CF9221
:101E3000DF92EF92FF920F931F93CF93DF9300D027
:101E400000D00F92CDB7DEB70E94A01381110E947F
:101E5000D80E80E3A82E82E0B82E10E000E0C02E5D
:101E6000802F0E946212F82EF501E1905F01E816C2
:101E700009F44CC08091420281FD0E9468128E2DAF
:101E80008F25D12CEE24E394982F9E21D1F10E942E
:101E9000030F882399F0D982CA82FE2081E009F4D9
:101EA00080E08B830E94BF1F8160782F9D838C838D
:101EB00049815A816B81892F0E948802F801E05D77
:101EC000FD4F80818E2580830E9401180E94821E12
:101ED00090912F02891789F10E94821E80932F0210
:101EE0000F900F900F900F900F90DF91CF911F9157
:101EF0000F91FF90EF90DF90CF90BF90AF900C9438
:101F00008002D394EE0CF5E0DF12BECF0F5F1F4FBF
:101F10000A30110509F0A3CF8FEF89838A831B82D2
:101F20000E94BF1F8160782F9D838C8349815A81D5
:101F30006B81892F0E948802C7CF0F900F900F905E
:101F40000F900F90DF91CF911F910F91FF90EF9025
:101F5000DF90CF90BF90AF90089590E080E008951B
:101F60000895972F70E025E0929F600D711D112458
:101F7000FB0192E3899FE00DF11D1124EE0FFF1F7D
:101F8000E455FF4F859194910895FC01EE0FFF1FDA
:101F9000E852FE4F859194910895CF93DF930E946C
:101FA000E310EC01811520E5920708F043C081158C
:101FB00030E4930708F0B2C0803E9105E8F4803C1D
:101FC000910508F0A0C0883A910578F4853A91050A
:101FD00008F08BC08130910521F00497813A91057A
:101FE00040F4CE01DF91CF9108958F3B910509F028
:101FF0007FC0D0E0C0E0F5CFC11580E2D80770F413
:10200000CF3FD10509F068F7C83ED10550F3CE01A6
:102010008D5E9109D065439720F3EBCFCE01C115BA
:1020200020E3D20708F475C09927D3FD74C0EC01F2
:10203000D06CD7CF811535E5930760F5C11584E5E0
:10204000D80708F09EC0C11523E5D20778F4C11562
:1020500032E5D30708F082C0C11581E5D80708F43E
:1020600060C0DC2FCC27C16FD06ABBCF9E0123702C
:10207000332781E090E002C0880F991F2A95E2F78C
:10208000C695C69520E2C29FE0011124C82BD92B2A
:10209000DA68A7CF81153AE59307B0F4C11589E551
:1020A000D80708F07EC0C11526E5D20708F46EC037
:1020B000CE0198558F3F910511F008F09ACFDC2F93
:1020C000CC27C06FD06A8DCF90568115904208F012
:1020D00090CF8D2F8F710E947B1190E0982F8827D1
:1020E00088279F718C2BEC015AC0A497D06479CFBC
:1020F000C85AD0E0CC0FDD1FCC59DE4F0990D881F3
:10210000C02DD4646ECF805C91090E94C50FEC0194
:1021100068CF9F70FACFEC01D86C63CFDF70D06AC4
:1021200060CF9E0174E0369527957A95E1F723708C
:102130008C2F86958695837030E2839FC001112491
:10214000922BC37021E030E002C0220F331FCA95EA
:10215000E2F7822B932BEC01DC6843CF9E012370C6
:10216000332781E090E002C0880F991F2A95E2F79B
:10217000C695C69520E2C29FE0011124C82BD92B39
:10218000EBCFDC2FCC27C46FD06A2BCF8C2F0E94D3
:102190007B11C82FD0E0DC2FCC27CC27DF71D06299
:1021A00020CF8C2F8F700E947B1134E0D695C7957D
:1021B0003A95E1F7CF709C2FEC01D06912CF0E94C5
:1021C000B10F0C94CD0F803E910599F1C8F4813385
:1021D000910509F476C048F48932910509F46AC082
:1021E0008A32910509F474C0089589339105D1F0BC
:1021F00082389105B9F08533910509F454C00895EA
:10220000843E910599F138F4823E9105F9F0833EC0
:10221000910509F10895863E910599F1873E910552
:10222000B9F10895209197022370A1F080EE90E01B
:1022300008952091970220FD52C03091980230FFFE
:1022400009C024FF4FC090E080E004C020919702B5
:1022500022FDF7CF08952091970222FD46C03091CC
:10226000980230FDE3CF24FFF5CFEDCF2091980207
:1022700021FFF0CF8091970284FDE5CF87EE90E0BB
:1022800008952091970223FFE5CF24FDDCCFF6CF00
:102290002091970223FD2CC03091980231FFE3CFAB
:1022A00084EE90E008952091970225FFD3CF89E234
:1022B00090E008952091970225FFCCCF85E390E030
:1022C00008952091970226FFC5CF8AE290E00895F5
:1022D0002091970226FFBECF81E390E0089589E325
:1022E00090E0089583EE90E0089582EE90E00895E6
:1022F00086EE90E008959091970292FF06C0282FF5
:1023000028712830F9F4877F846093FF06C0282F56
:1023100028712831F1F4877E84612091980220FF92
:1023200006C0382F38713830D9F4877F816021FF9B
:1023300006C0282F28712831D1F4877E816194FD51
:10234000877E0895282F24712430F9F68B7F8860CA
:10235000DCCF282F2471243101F78B7E8861DDCFFB
:10236000382F3171313019F78E7F8860E0CF282FF8
:102370002171213121F78E7E8861E1CF1092930285
:102380001092940210929502109296020895CF92A4
:10239000DF92EF92FF92CF93DF9300D000D0CDB7C2
:1023A000DEB76B017C010E94331481110EC00E94C4
:1023B000CB1FC61AD70AE80AF90AC0929302D09234
:1023C0009402E0929502F09296020F900F900F9077
:1023D0000F90DF91CF91FF90EF90DF90CF90089515
:1023E000CF93DF9300D000D0CDB7DEB70E94331477
:1023F000882341F00F900F900F900F90DF91CF91B5
:102400000C94CB1F0E94CB1F69837A838B839C83A0
:102410008091930290919402A0919502B0919602BE
:1024200029813A814B815C81280F391F4A1F5B1F2C
:10243000CA01B9010F900F900F900F90DF91CF91CB
:10244000089580E008950895CF93DF9300D000D0E1
:10245000CDB7DEB70E942C0E811102C00E94D10EB2
:102460000E94370E809342020E943F0E9093980282
:10247000809397020E9423120E943B0E282F30E087
:1024800050E040E0CA01B9010E9419078091E201C1
:102490009091E301A091E401B091E50189839A83D1
:1024A000AB83BC83BC01CD010F900F900F900F90B8
:1024B000DF91CF910C94950708950C945C120895C8
:1024C0000C945F12E82FF0E0ED55FD4F80810895E8
:1024D000089580EA8A95F1F7089500C008950C9454
:1024E0006912F894E82FE295EF70F0E041A18F7047
:1024F00021E030E0B90102C0660F771F8A95E2F74C
:10250000CB01962F9095942391A392A1892B82A31E
:102510007894089508950C948A12CF93DF93C7E9B5
:10252000D1E089918F3F11F00E94711281E0CC3986
:10253000D807B9F7C2E9D1E089918F3F11F00E9425
:10254000711281E0C739D807B9F7DF91CF910895AB
:10255000CF92DF92EF92FF920F931F93CF93DF936F
:10256000EC01D62E062F10E0C80189569E4F7C0143
:10257000FC0180818F3F09F445C0F894E82FE29573
:10258000EF70F0E091A18F7021E030E001C0220FE8
:102590008A95EAF7892F822B81A382A1209528238F
:1025A00022A378940E946D12E2E9F1E047E951E03C
:1025B00091E0C12C81918F3F79F0A82FA295AF7047
:1025C000A05EB0E02C9130E08F7002C03595279569
:1025D0008A95E2F7892F20FD80E0C82A990F4E17CF
:1025E0005F0741F7F70180818F3F11F00E94711260
:1025F00061E0C11001C060E08D2D0E946F12C00F1C
:10260000D11FC882DF91CF911F910F91FF90EF9062
:10261000DF90CF9008950E94501480910401809122
:10262000040195E0811190E09093AE0285E0891B52
:102630008093AD020E948D128AE0E3EAF2E0DF01AE
:10264000982F1D929A95E9F7E9E9F2E0DF011D92D2
:102650008A95E9F785E00E94FC130E9402020C941F
:102660005A14DF92EF92FF920F931F93CF93DF9351
:1026700000D000D00F92CDB7DEB70E943314182FD0
:102680006091AE02882309F44EC01A821982FE01BD
:10269000339683E0DF011D928A95E9F7862F90E05B
:1026A00032977F01BF018D559D4F0E946814DE2C2B
:1026B0000F2D882301F18091AD0290E045E050E0BC
:1026C000B7018D559D4F0E946E2721E02093430254
:1026D000892BE1F410E00E940802812F0F900F90E7
:1026E0000F900F900F90DF91CF911F910F91FF905E
:1026F000EF90DF90089580914302882359F385E09D
:10270000D7011D928A95E9F710924302A091AD027C
:10271000B0E0AD55BD4F85E0ED2DF02F01900D924D
:102720008A95E1F7D8CF70E06D557D4F8091AD026D
:1027300090E08D559D4F0E94FE140E948B12CDCFCC
:10274000DF92EF92FF920F931F93CF93DF93CDB75A
:10275000DEB72A970FB6F894DEBF0FBECDBF1A8240
:102760001982FE01339688E0DF011D928A95E9F710
:10277000F12C8E010F5F1F4F6F2DC8010E94A81210
:10278000F394D02EE12EB5E0FB12F6CF4AE050E0F4
:10279000B80189E992E00E946E278C0121E0892B23
:1027A00009F420E00115110549F08AE0ED2DFE2D18
:1027B000A9E9B2E001900D928A95E1F76091AE022D
:1027C00070E06D557D4F45E089E992E00E94FD1370
:1027D00081E090E0012B11F40E9431132A960FB68C
:1027E000F894DEBF0FBECDBFDF91CF911F910F9147
:1027F000FF90EF90DF9008950895FF920F931F933D
:10280000CF93DF93F82E092F162FD72FC42F222313
:1028100049F081E0809346020E94BF1F90934502D9
:1028200080934402809146028823A1F08091440263
:10283000909145020E94EB1F059760F0EF2DF02F5D
:10284000A12FBD2FCF018C0F911DE817F90741F47F
:1028500010924602DF91CF911F910F91FF90089542
:1028600021912D93F2CF80914902811107C00E94DE
:102870003327882351F081E08093490281E09091D1
:102880004902913009F080E0089582E08093490286
:102890000E942E27F3CF0E94331491E089270895D8
:1028A0000E944B14809304010E94331481110C94F4
:1028B000A01408950E943314811102C00C94A21434
:1028C000089581E090914A029A3008F080E00895DE
:1028D0000F931F93CF93DF93EC01162F072F809157
:1028E0004A028A30C0F4612F702FCE010E94FC147E
:1028F000C82F811122C080914A028F3FB9F40E94F3
:10290000BF1F90934802809347028C2FDF91CF9195
:102910001F910F91089580914702909148020E9463
:10292000EB1F843F9140F8F6C0E0EFCF8F5F8093BC
:102930004A028A3020F7C1E0E8CF10924A02E5CF80
:102940000C94B61C0C94B91CCF92DF92EF92FF92BC
:102950000F931F93CF93DF93FA0169017801C82F7A
:10296000880FDD0B3097B9F08AE08C9FD0018D9FE6
:10297000B00D1124AB5FBE4F13968D919C911497AF
:10298000855B9D4F12964C9150E0E417F50708F4D3
:10299000AF010E947B27CE010E94C41D892B11F537
:1029A000E114F104E9F08AE08C9FF0018D9FF00DB5
:1029B0001124EB5FFE4F458150E0E416F50608F464
:1029C000A7018AE08C9FF0018D9FF00D1124EB5F31
:1029D000FE4F66817781655B7D4FC6010E947B2734
:1029E00081E001C080E0DF91CF911F910F91FF90B6
:1029F000EF90DF90CF9008950C942D160C944F1605
:102A00000F931F93CF93DF93CDB7DEB728970FB601
:102A1000F894DEBF0FBECDBF809162029091630239
:102A2000A0916402B0916502BC01CD010E94FA1F21
:102A300011E0643671058105910520F10E94F011C5
:102A4000DC01CB010296A11DB11D89839A83AB8362
:102A5000BC8310E000E030E020E044E050E0BE0144
:102A60006F5F7F4F82E00E94A414182F882351F0DB
:102A70000E94CB1F60936202709363028093640292
:102A800090936502812F28960FB6F894DEBF0FBE93
:102A9000CDBFDF91CF911F910F910895AF92BF925B
:102AA000CF92DF92EF92FF920F931F93CF93DF931A
:102AB000F82EE92ED62EC72E89010E946114AA2471
:102AC000A394B12C882319F08AE0A82EB12CC1E080
:102AD000D0E0F8946D2D7C2D8F2D9E2DF801099559
:102AE0007894811104C02196AC16BD065CF4DF9188
:102AF000CF911F910F91FF90EF90DF90CF90BF90FB
:102B0000AF900895CC9F9001CD9F300D300D1124D2
:102B100090E080E045E34A95F1F700000196281720
:102B20003907C1F7D6CFAF92BF92CF92DF92EF9223
:102B3000FF920F931F93CF93DF93CDB7DEB72A9702
:102B40000FB6F894DEBF0FBECDBF7B01A090A101F0
:102B5000B090A20101E010E09E012A5F3F4F50E0DB
:102B600040E070E060E080E00E94A414182F882309
:102B700009F44EC065018FEFC81AD80A80915E0231
:102B800090915F02A0916002B0916102BC01CD0101
:102B90000E94FA1F6F83788789879A876436710548
:102BA0008105910568F105E010E09E012F5F3F4F20
:102BB00050E040E070E060E081E00E94A414082F43
:102BC00065E070E0C6010E94211911E09E81981312
:102BD00010E0102341F10E94CB1F60935E027093BE
:102BE0005F02809360029093610285E0FE0131965E
:102BF000A9E5B2E001900D928A95E1F711E013C0CA
:102C000065E070E0C6010E9421199E818913CBCF37
:102C100085E0F5013196DE01119601900D928A95BD
:102C2000E1F71111E2CF85E0E9E5F2E0D70101908B
:102C30000D928A95E1F7812F2A960FB6F894DEBFA0
:102C40000FBECDBFDF91CF911F910F91FF90EF90FD
:102C5000DF90CF90BF90AF9008950F931F93CF93C5
:102C6000DF93D82FC92F8B0123E935E143EA51E0E7
:102C70000E944E15882369F020E035E140EB51E0D9
:102C8000B8018D2F9C2FDF91CF911F910F910C9444
:102C90004E1580E0DF91CF911F910F9108950F9312
:102CA0001F93CF93DF93FB01F894C091A101D091C2
:102CB000A201CE01019625E0DC0101900D922A953A
:102CC000E1F765E070E00E94211988837894F89418
:102CD0006E817F81888599850091550210915602F9
:102CE00020915702309158026017710782079307AD
:102CF00051F060935502709356028093570290935F
:102D000058020E94C7117894DF91CF911F910F91C3
:102D100008950E9406220E940B0F0C9412220E941A
:102D200016220E94150F0C9430220E94491F0E9407
:102D3000ED210E94F90E0E9489160E948F160E94B2
:102D4000070FFBCF80916E0280FF12C060912701B8
:102D500085E0689FB0011124759567957595679515
:102D600060387105A8F561157105A1F1862F0895E8
:102D700081FF09C06091270185E0689FB00111249F
:102D800075956795EDCF6091270182FD0AC020916E
:102D90006D022223D1F0909126016091270129171D
:102DA00028F085E0689FB0011124DACF269F9001BA
:102DB000112485E0829FA001839F500D1124692F6B
:102DC00070E0CA010E944027CBCF65E070E0CECF13
:102DD0008FE7089581E0089580916E0280FF0CC016
:102DE0006091240170E075956795759567956115FB
:102DF000710549F1862F089581FF06C06091240175
:102E000070E075956795F3CF6091240182FD0BC04A
:102E100090916C029923A1F060912301809124018B
:102E2000961738F0682F70E06038710500F38FE76F
:102E30000895899FC001112470E00E944027F4CFBB
:102E400061E070E0D7CF81E00895E3E1E80FE3317E
:102E5000E0F5F0E0E852F84D0C9454270E94A216D9
:102E600081958093720208950E94A216FACF0E9463
:102E7000A21681958093710208950E94A216FACF3E
:102E80000E94EC168093730208950E94EC168195BF
:102E9000F9CF0E94EC1681958093740208950E94E8
:102EA000EC16FACF815F990B21E030E001C0220FD0
:102EB0008A95EAF780917002822B809370020895C0
:102EC00080916E02816080936E02089580916E02FF
:102ED0008260F9CF80916E028460F5CF40917102DB
:102EE0008D3E59F48091720287FF0DC010927202DC
:102EF00041110BC010926D0208C08E3E81F480918A
:102F0000720218169CF3442381F080917302909111
:102F10007402892B09F05AC010926C0208958F3EFA
:102F200049F447FFF0CF1092710280917202811133
:102F3000ECCFE0CF803F19F41416ACF3E4CF9091BE
:102F40007302893F29F41916F4F610927302DBCF4D
:102F50008A3F19F497FFD7CFF8CF909174028B3F37
:102F600029F497FFD0CF10927402CDCF8C3F19F483
:102F70001916CCF3C8CF9FE0980F983090F4815F7A
:102F8000990B21E030E0B90102C0660F771F8A95E6
:102F9000E2F7CB01809590917002892380937002B3
:102FA000B2CF8D3F31F480916E028E7F80936E029E
:102FB000AACF8E3F21F480916E028D7FF7CF8F3F95
:102FC00009F0A1CF80916E028B7FF0CF08950E940F
:102FD000BF1F2091710230917202232B21F0809348
:102FE0006A0290936B022091730230917402232B3A
:102FF00021F080936802909369028FE692E00C942E
:10300000A01ECF92DF92EF92FF920F931F93CF9368
:10301000DF9300D000D000D0CDB7DEB726E0EFE6DA
:10302000F2E0CE010196DC0101900D922A95E1F7C4
:10303000C0907102D0907202E0907302F09074021E
:103040001092710210927202109273021092740226
:103050002C2D2D298C0191F080916A0290916B02A8
:103060000E94EB1F9C0180916D02882309F440C0EF
:10307000909128019217130608F448C08E2D8F29CD
:1030800091F080916802909169020E94EB1F9C016F
:1030900080916C02882309F478C0909125019217E1
:1030A000130608F480C08091710290917202892BFE
:1030B00090917302892B90917402892B11F00E94D8
:1030C000E71786E0F801AFE6B2E001900D928A952D
:1030D000E1F726960FB6F894DEBF0FBECDBFDF91A5
:1030E000CF911F910F91FF90EF90DF90CF900895B7
:1030F000409167029AE0499FA001112442175307AB
:1031000008F0BCCF8F5F80936D0202C08F3FD1F774
:10311000CC2059F00E94A2169FEF1C140CF491E0F1
:10312000899F802D112480937102DD2059F00E9427
:10313000A2169FEF1D140CF491E0899F802D11249D
:103140008093720230917102332309F497CF20915A
:103150007202222309F492CF45EB3403C0011124FB
:10316000992359F09093710245EB240390011124A7
:10317000332339F03093720281CF81E08093710262
:10318000F3CF81E08093720279CF409166029AE09A
:10319000499FA00111244217530708F084CF8F5F85
:1031A00080936C0202C08F3FD1F7EE2059F00E944D
:1031B000EC169FEF1E140CF491E0899F802D1124D2
:1031C00080937302FF2059F00E94EC169FEF1F14AA
:1031D0000CF491E0899F802D11248093740230912A
:1031E000730220917402332309F45DCF222309F482
:1031F0005ACF45EB3403C0011124992359F0909321
:10320000730245EB240390011124332339F03093EA
:10321000740249CF81E080937302F3CF81E0809301
:10322000740241CF86E0EFE6F2E0DF011D928A955D
:10323000E9F710926D0210926C0210926E020895DE
:103240000895FC01680F791F8FEF91E36E177F07D8
:1032500009F408952191822728E030E087FF06C015
:10326000880F892721503109C9F7F0CF880FFACF8D
:10327000CF93DF93EC01FB018281882309F4DFC047
:10328000C430FDE5DF0710F5CB3F9CE5D90730F4EE
:103290009E0122503C4524313105E0F40E943F0E4E
:1032A0009093980280939702C631FCE5DF0710F5F2
:1032B000C2308CE5D80788F48091970290919802EB
:1032C0000E944D0E0E94B60680E004C0C236EDE5B5
:1032D000DE0721F3DF91CF910895FE01E350FC4515
:1032E000809197028160E331F10518F5E551F84DC1
:1032F0000C945427C4309DE5D90770F4CB3FECE51E
:10330000DE07D0F2FE01EC5FFC45E830F105E0F4A9
:10331000E250F84D0C945427C236DD4569F6909181
:103320009702892F8F7E94FF806103C0809197025E
:10333000826080939702C0CF809197028460F9CF1A
:10334000809197028860F5CF809198028160809388
:103350009802B2CF809198028260F9CF8091970253
:103360008061E7CF809197028062E3CF80919702DE
:103370008064DFCF0E94B606809197028068D9CF23
:10338000809197028C60D5CF809198028360DFCFC7
:10339000809197028E7FCDCF809197028D7FC9CF8C
:1033A000809197028B7FC5CF80919702877FC1CF95
:1033B000809198028E7FCBCF809198028D7FC7CF6E
:1033C000809197028F7EB5CF809197028F7DB1CF8C
:1033D000809197028F7BADCF0E94B60680919702B5
:1033E0008F77A7CF80919702837FA3CF8091980298
:1033F0008C7FADCF8091970282FB992790F921E0D5
:10340000922790FB82F990FB83F993CF80919802E9
:10341000982F909591708E7F892B90FB81F997CF93
:103420000E94B60690919702892F97FB87F98058E2
:1034300080CF81E00E94D30E3FCF80E0FBCF81E0C0
:1034400049CF0F931F93CF93DF9300D000D0CDB718
:10345000DEB741E050E060E070E08A019B0104C00B
:10346000000F111F221F331F8A95D2F709831A8379
:103470002B833C83C901B8010E9419070F900F905C
:103480000F900F90DF91CF911F910F910C94B60682
:103490008B3258F48530C0F0EBEFE80FE632A0F441
:1034A000F0E0EA5FF74D0C945427833450F48A33EC
:1034B00008F051C0853309F44AC0883329F481E00B
:1034C0000895833409F443C080E008950E94D10E2A
:1034D000F6CF80914202807F8093420281E0809308
:1034E000780208950E940F02EACF90914202892F3C
:1034F0008E7F90FF81608093420280FDE0CF817FCC
:1035000080934202DCCF90914202892F8D7F91FF00
:1035100082608093420281FFD2CF8091420281601B
:10352000EFCF90914202892F8B7F92FF846080932E
:10353000420282FDF2CFC3CF90914202892F877F52
:1035400093FF88608093420283FDE7CFB8CF80E08D
:103550000E94211AB4CF8953FBCF8D51F9CF80E05F
:1035600008950C94AF1ACF93C82F809178028130C0
:10357000A1F08230A1F18111ABC00E94480D8232CE
:1035800009F0A8C08C2F0E94AF1A81111BC08C2F8C
:103590000E94481A8170CF9108950E94480D82328E
:1035A00089F38C2F0E94B11A81110AC0C431A1F095
:1035B00060F4CB3029F0C03169F782E08093780263
:1035C00081E0E8CF81E090E0E5CFC93229F081E0E9
:1035D000C83301F380E0DECF10927802FBCFCF3406
:1035E00009F46EC0C0F4C83248F4CE3188F5C73053
:1035F00009F455C0C43121F081E0CDCFC932E1F7E3
:10360000809177028823C1F310927702109276029C
:1036100010927502F1CFC13509F454C081E0C23572
:1036200019F086EFC03541F7E0917502F09176020E
:10363000309711F32081082E000C990B820F911DF9
:103640008F3F910509F00CF43FC08FEF8083D4CFFA
:10365000CD51C0937702C430E1F068F4C230B1F0CC
:1036600087E291E0C33069F087E692E0C13049F02B
:1036700010927702C1CFC53079F083E291E0C63075
:10368000B9F79093760280937502B6CF88E291E005
:10369000F8CF86E291E0F5CF84E291E0F2CF10928C
:1036A000670284E180932801C09327018CE3809313
:1036B000260188E08093240188E2809323019CCF37
:1036C0008AE0B2CF8FEFB0CF97FFC0CF108294CFF8
:1036D0001092780280E05FCFCF93DF93EB018631C9
:1036E0009C4511F50E94480D9A81992399F08A7A98
:1036F00091E009F490E090937902811109C089E288
:103700000E94230D0E949B0D80E0DF91CF910895D0
:1037100085E3F6CF80917902811104C089E20E948D
:103720002A0DF0CF85E3FBCF81E0EFCF0F931F93FE
:10373000CF93DF93C42FD22FFC0182818823C9F05D
:1037400040937C020E94BF1F90937B0280937A0279
:1037500080E28C0F883008F050C0C77081E001C053
:10376000880FCA95EAF7DF91CF911F910F910C94C2
:10377000DD0310917C02141335C080917A02909180
:103780007B020E94EB1F883C910560F5C0E2CD0FE3
:103790001D17B9F080E2810F883040F4177081E086
:1037A00001C0880F1A95EAF70E94E403C83048F474
:1037B00081E09D2F977001C0880F9A95EAF70E94CB
:1037C000DD03802F0E94D503C830B8F4D77081E0A4
:1037D00001C0880FDA95EAF7DF91CF911F910F9121
:1037E0000C94E40380E28C0F883038F4C77081E0D9
:1037F00001C0880FCA95EAF7EFCFDF91CF911F91F3
:103800000F9108950F939C01CB01243F4CE53407A1
:10381000A1F190F4293DFCE53F0749F12A3D4CE533
:103820003407E9F1283D3C45C1F0FC018281882341
:10383000E1F110927C0219C0263FFCE53F0719F127
:10384000273F4CE5340729F1253F3C4571F707E256
:1038500025EE44EE65EF7CE505C006E221EE41EE83
:1038600068ED7CE50E94961B80E00F91089507E2C9
:1038700025EE45EE69ED7CE5F5CF06E221EE40EE62
:1038800064EF7CE5EFCF06E221EE42EE66EF7CE5E9
:10389000E9CF07E225EE46EE67EF7CE5E3CF08E2ED
:1038A00021E045EE6AED7CE5DDCF81E0DECF8EE103
:1038B000489B02C08150E1F7489BFECF089558987D
:1038C00080E28A95F1F7589A0895FC013BE03A9519
:1038D000F1F798E020E080E031E040E14A95F1F72F
:1038E000880F489B02C08160232742E04A95F1F788
:1038F000000040E14A95F1F7915079F790E19A95EF
:10390000F1F799B132E03A95F1F7000040E14A95BC
:10391000F1F7917092272081920F90830895EF9292
:10392000FF920F931F93CF93DF930F92CDB7DEB724
:1039300019828C017C01E60EF11C0E151F0561F445
:1039400081E09981911180E00F90DF91CF911F91DB
:103950000F91FF90EF9008950E94571CCE010196A1
:103960000E94651CF80181938F01E7CF509A589A05
:1039700008955098589AE89AE9E6F0E080818C7FA3
:10398000808308956150770B91E001C0990F6A958B
:10399000EAF720E031E0911108C0222391F0589A13
:1039A00080E28A95F1F758980895492F482339F015
:1039B000589A232740E24A95F1F79695ECCF58980C
:1039C000F9CF5898EDCFFF920F931F93CF93DF93CA
:1039D000EC018C01060F111DC017D10731F4DF91E6
:1039E000CF911F910F91FF900895F9900E945F1C55
:1039F00068E08F2D0E94C21CEFCF1F920F920FB66E
:103A00000F921124EF92FF920F931F932F933F93E6
:103A10004F935F936F937F938F939F93AF93BF93D6
:103A2000EF93FF93CF93DF930F92CDB7DEB7198259
:103A30000E94571CCE0101960E94651C282FA82FBA
:103A4000A695A695A695982F929595708A2F857024
:103A5000980F892F837096959695890F8227877086
:103A60009981892B09F075C0A43008F072C080E1FB
:103A70008A95F1F7589A509AB2E0BA95F1F700C0DA
:103A8000EA2EF12C5898EAE0AE9FD0011124AB5FEA
:103A9000BE4F1896ED91FC9119973097B1F0609157
:103AA000A1017091A20116962D913C911797260FB6
:103AB000371F13968D919C911497680F791F159657
:103AC0004C91159712968C9109958AE08E9DF00184
:103AD0008F9DF00D1124EB5FFE4F6581662351F041
:103AE0002091A1013091A20186819781820F931FBD
:103AF0000E94E31C0E945F1CF0E1FA95F1F75898D0
:103B00005098589A80E18A95F1F78AE08E9D80015D
:103B10008F9D100D11240B5F1E4FD80112966C91D2
:103B20001297662371F12091A1013091A2011396A1
:103B30008D919C91820F931F0E948F1CD801ED9153
:103B4000FC91882311F088E001C082E080830E940C
:103B5000571C0F90DF91CF91FF91EF91BF91AF91E3
:103B60009F918F917F916F915F914F913F912F9195
:103B70001F910F91FF90EF900F900FBE0F901F902D
:103B80001895ED91FC91DFCF0F931F93CF93DF93A7
:103B9000EC0104970CF0A9C08AE08C9FF0018D9F86
:103BA000F00D1124EB5FFE4F80819181892B09F488
:103BB0009CC0F894509A589885E08A95F1F70000D7
:103BC0008C2F869585709C2F9570890F982F9370F8
:103BD00086958695890F8E0193E0000F111F9A95A7
:103BE000E1F7082B0E945F1C00C068E0802F0E9454
:103BF000C21CA0E1AA95F1F75098589A489B27C09B
:103C000087E090E0489925C08AE08C9F80018D9FD5
:103C1000100D11240B5F1E4FF80165816623A1F181
:103C20002091A1013091A20186819781820F931F7B
:103C30000E948F1C811128C0509A589AD801ED918A
:103C4000FC9182E08083789482E090E016C000C00E
:103C5000D5CF0197B9F4509A589A8AE08C9FF00119
:103C60008D9FF00D1124EB5FFE4F0190F081E02D50
:103C700081E08083789481E090E0DF91CF911F9183
:103C80000F91089500C0BECF0E94571CB0E2BA95B4
:103C9000F1F75898509AE0E1EA95F1F78AE08C9FA5
:103CA000F0018D9FF00D1124EB5FFE4F62816623C2
:103CB00051F02091A1013091A20183819481820F62
:103CC000931F0E94E31C0E945F1C8AE08C9FF001FE
:103CD0008D9FF00D1124EB5FFE4F0190F081E02DE0
:103CE0001082789490E080E0C8CF84E090E0C5CF67
:103CF0009093BD018093BC010895909383028093BB
:103D0000820208950E943314811103C080917D02C4
:103D10000895E0918202F0918302309721F00190A2
:103D2000F081E02D099480E00895E0918202F09105
:103D30008302309721F00280F381E02D09940895E9
:103D4000DC01E0918202F0918302309739F082E049
:103D50008C930480F581E02DCD0109940895209184
:103D60008002309181022817390771F09093810207
:103D700080938002E0918202F0918302309721F0DB
:103D80000680F781E02D0994089520917E023091FC
:103D90007F022817390771F090937F0280937E028B
:103DA000E0918202F0918302309721F00084F18546
:103DB000E02D09940895AC019C012E5F3F4F485FB0
:103DC0005F4F80E02417350709F40895F9019191B8
:103DD0009F019923B9F38F5FF5CF9C01662351F0C2
:103DE000FC013296285F3F4F8191861729F0E21738
:103DF000F307D1F780E0089581E008959C01FC016C
:103E000032968FEF90E04191461751F08F3F19F4B1
:103E1000411101C0892F9F5F9630A9F78F3F09F4A8
:103E20000895280F311D87FD3A95F90162830895A1
:103E30009C01FC013296285F3F4F8191861303C09D
:103E4000DF0111971C92E217F307B9F708950C945C
:103E5000FE1E0C94181FFC01329686E0DF011D92B5
:103E60008A95E9F7089508950C94331F8F5F809326
:103E700084020C94341F83E0809384020C94341FDA
:103E80000C94361F81E0809384020C94341F0C94B0
:103E9000421F08958091B802843031F10E940A02D5
:103EA0001092850288E190E020E40FB6F894A8957E
:103EB000809360000FBE2093600083B7817F846091
:103EC00083BF83B7816083BF7894889583B78E7FE3
:103ED00083BF0FB6F894A8958091600088618093A5
:103EE0006000109260000FBE089508950895CF936A
:103EF0000E94751F0E94A0130E94761FC0E08C2FA5
:103F00000E946212811105C0CF5FCA30C1F7CF9104
:103F1000089581E0FCCF0E94B6060C9472021F92B5
:103F20001FB61F9211248F939F93AF93BF938091DD
:103F30008502811113C08091B0029091B102A091CD
:103F4000B202B091B3024196A11DB11D8093B0029F
:103F50009093B102A093B202B093B302BF91AF911C
:103F60009F918F911F901FBE1F90189582E084BD76
:103F700093E095BD9AEF97BD80936E0008952FB79B
:103F8000F8948091B0029091B102A091B202B091E8
:103F9000B3022FBF0895CF93DF9300D000D0CDB7E9
:103FA000DEB78FB7F8942091B0023091B102409102
:103FB000B2025091B30229833A834B835C838FBF53
:103FC00069817A818B819C810F900F900F900F9067
:103FD000DF91CF9108959C014FB7F8948091B00282
:103FE0009091B102A091B202B091B3024FBF821B77
:103FF000930B08950F931F93CF93DF9300D000D0BE
:10400000CDB7DEB7462F572FBC012FB7F89480915C
:10401000B0029091B102A091B202B091B3022FBF51
:104020008C019D01041B150B260B370BC901B80130
:104030000F900F900F900F90DF91CF911F910F91E4
:10404000089578941F921FB61F9211248F939F9307
:10405000AF93BF938091B0029091B102A091B20250
:10406000B091B3020196A11DB11D8093B00290934F
:10407000B102A093B202B093B302BF91AF919F91EE
:104080008F911F901FBE1F901895F89481E0809328
:10409000E00080E28093D800E9ECF0E010828FE14C
:1040A0009EE40197F1F700C000001DBA109268006D
:1040B0001CBC10BE1FBA10927A0010926E001092B3
:1040C0006F0010927100109272001082ECEBF0E021
:1040D000108214B817B81AB81DB810BA108215B8E3
:1040E00018B81BB81EB811BA0C94003F08958091FF
:1040F00091020895089522E02093E9002FEF309176
:10410000E800215035FD06C035ED3A95F1F7000085
:104110002111F5CF2091E80025FF0BC050E040E0D1
:1041200066E070E00E94A3228091E8008E77809381
:10413000E8000895CF93DF93D82FC92F81E08093B3
:10414000E9008FEF9091E800815095FD06C095ED54
:104150009A95F1F700008111F5CF8091E80085FF75
:1041600016C050E040E068E070E08D2F9C2F0E9468
:10417000A3228091E8008E778093E80088E0ED2FFD
:10418000FC2FA9E8B2E001900D928A95E1F7DF914A
:10419000CF9108958093860270938802609387027E
:1041A0008091B802843001F582E08093E9008FEFBE
:1041B0009091E800815095FD06C095ED9A95F1F734
:1041C00000008111F5CF8091E80085FF0DC050E01F
:1041D00040E063E070E086E892E00E94A3228091D4
:1041E000E8008E778093E8000895BC0184E00C9489
:1041F000CA20BC0183E00C94CA208091B7028111CF
:1042000009C00E942B240E9488248091E2008460CF
:104210008093E20008951092B70208950C94421F13
:104220006091B40281E0611101C080E00C943B1FF9
:104230009091B80281E0943009F080E06091B4027E
:104240000C94401F42E061EC81E00E94A72342E20F
:1042500061EC82E00E94A7239091B80281E0943043
:1042600009F080E06091B4020C94361F8091BA028C
:10427000893089F148F4823009F49EC0833009F412
:1042800059C0813041F008958A3009F485C08B30DF
:1042900009F46BC008958091B902813A09F049C0D0
:1042A0008091E800877F8093E8008091BD02909123
:1042B000BE02892B61F468E089E892E070E00E9418
:1042C000F2228091E8008B778093E800089560E007
:1042D00090E080E0F3CF8091B902813251F5809176
:1042E000BD029091BE02029720F58091E800877F81
:1042F0008093E8008091E80082FF17C09091F3005E
:104300008091F200029731F48091F100813011F038
:10431000863021F48091F100809391028091E80031
:104320008B778093E8000C94DB238091B802811195
:10433000E1CF08958091B902813AD9F78091BD0209
:104340009091BE02892BA9F78091E800877F809326
:10435000E8008091E80080FFFCCF809135018093D8
:10436000F1008091E8008E77DCCF8091B902813234
:1043700001F78091BD029091BE02892BD1F6809108
:10438000E800877F8093E8000E94DB238091BB02D6
:10439000809335010C94B6068091B902813249F6BA
:1043A0008091E800877F8093E8000E94DB23809162
:1043B000BC028093920208958091B902813A09F07B
:1043C000B8CF8091E800877F8093E8008091E80073
:1043D00080FFFCCF80919202C2CF84B7877F84BFD9
:1043E0000FB6F894A8958091600088618093600072
:1043F000109260000FBE80E890E00FB6F8948093B2
:104400006100909361000FBE0C94471F0E942B2403
:104410000E948824E2EEF0E08081846080837894BA
:104420000C94142789E291E00C947D1E8091B802CF
:104430008530A9F48091B802853011F00C948B1F5F
:104440000E944A1F8091B6028823A1F30E94771F21
:10445000882381F30E948D220E94B606EBCF089537
:1044600008950C943322FC01CB01DA012F2F33275E
:1044700023303105D1F070F42130310509F43EC00C
:104480002230310569F48BE390E026E132E02D9390
:104490003C93089521323105E9F02232310521F1B2
:1044A00090E080E030E020E0F2CFCF019927E130CA
:1044B00059F08230910559F0E2E1F2E0892B81F761
:1044C000849190E09F01E3CFE2E0F2E0F9CFE8EDE4
:1044D000F1E0F6CF892BB9F06130710509F789E079
:1044E00090E021E432E0D3CF892B91F06130710567
:1044F000B9F68BE790E023E632E0C9CF82E190E0A5
:1045000021E532E0C4CF89E090E028E232E0BFCF7D
:1045100080E490E02EED32E0BACF80E189BD82E107
:1045200089BD09B400FEFDCF8091D8008F7D8093B6
:10453000D8008091E00082608093E0008091E000EC
:1045400081FDFCCF0895AF92BF92CF92DF92FF9290
:104550000F931F93CF93DF936C01EB018A010E94AD
:10456000FA23F82E811123C00115110539F0F80145
:1045700080819181C81BD90BC80ED91EB12CA12CEA
:104580002097A9F08091E80085FD22C08091E80085
:104590008E778093E80001151105A1F0F801808164
:1045A00091818A0D9B1D9183808385E0F82E8F2D4C
:1045B000DF91CF911F910F91FF90DF90CF90BF902F
:1045C000AF9008950E94FA238823D1F2F82EEFCFFE
:1045D000F60181916F018093F1002197FFEFAF1AEF
:1045E000BF0ACECFFC01CB012091BF023091C002A7
:1045F0002617370790F0009729F42091E8002E77CE
:104600002093E80040E0009751F4411108C08091E8
:10461000E80082FF31C080E00895C901F3CF209106
:10462000B8022223A9F12530A9F12091E80023FD49
:104630002DC02091E80022FDEACF2091E80020FF64
:10464000E2CF3091F3002091F200009719F028306A
:10465000310558F041E02830310509F040E0209163
:10466000E8002E772093E800CECF41914093F100EF
:1046700001972F5F3F4FE9CF8091B802882341F027
:10468000853041F08091E80083FFC1CF81E008953B
:1046900082E0089583E00895FC01CB012091BF02E0
:1046A0003091C0022617370790F0009729F4209127
:1046B000E8002E772093E80040E0009751F4411184
:1046C00008C08091E80082FF32C080E00895C901EF
:1046D000F3CF2091B8022223B1F12530B1F120911E
:1046E000E80023FD2EC02091E80022FDEACF2091B2
:1046F000E80020FFE2CF3091F3002091F200009714
:1047000019F02830310558F041E02830310509F022
:1047100040E02091E8002E772093E800CECF44912E
:104720004093F100319601972F5F3F4FE8CF809182
:10473000B802882341F0853041F08091E80083FF82
:10474000C0CF81E0089582E0089583E00895982F16
:10475000973028F08F708093E90081E0089590935E
:10476000E900242F762F50E0981731F07091EC007B
:104770002091ED005091F00021FD02C09F5FE8CF35
:104780003091EB003E7F3093EB003091ED003D7FA8
:104790003093ED003091EB0031603093EB0070937B
:1047A000EC002093ED005093F0002091EE0027FDE7
:1047B000E5CF80E008958091B90287FF13C0809112
:1047C000E80082FF06C08091E8008B778093E800C4
:1047D00004C08091B8028111F2CF08958091B8028F
:1047E0008823D9F38091E80080FFF8CF8091E8001A
:1047F0008E77ECCF2091E4003091E50095E6A90199
:104800002091EC00822F817020FF06C08091E8008B
:1048100080FF06C080E008952091E80022FD1AC0C4
:104820008091B802882389F0853089F08091EB006F
:1048300085FD0FC02091E4003091E5004217530739
:10484000F9F29150E1F684E0089582E0089583E062
:10485000089581E008950E9499240E94A124E0EE29
:10486000F0E0808181608083E8EDF0E080818F77E7
:10487000808319BCA7EDB0E08C918E7F8C938081F2
:104880008F7E80831092B70208950F931F93CF936A
:10489000DF930E9499240E94A124C8EDD0E0888172
:1048A0008F77888388818068888388818F7D8883DB
:1048B00019BC1092B8021092B4021092B602109273
:1048C000B50200EE10E0F80180818B7F8083888143
:1048D0008160888342E060E080E00E94A723E1EEEF
:1048E000F0E080818E7F8083E2EEF0E08081816065
:1048F0008083808188608083F80180818E7F8083BF
:10490000888180618883DF91CF911F910F910895F5
:10491000E8EDF0E080818F7E8083E7EDF0E080813C
:104920008160808384E082BF81E08093B7020C9431
:104930004524E8EDF0E080818E7F80831092E200D4
:1049400008951092DA001092E10008951F920F92DC
:104950000FB60F9211242F933F934F935F936F9352
:104960007F938F939F93AF93BF93EF93FF93809128
:10497000E10082FF0BC08091E20082FF07C08091BE
:10498000E1008B7F8093E1000E9413278091DA0081
:1049900080FF19C08091D80080FF15C08091DA0097
:1049A0008E7F8093DA008091D90080FF94C080E1EF
:1049B00089BD82E189BD09B400FEFDCF81E080930D
:1049C000B8020E94FD208091E10080FF19C0809113
:1049D000E20080FF15C08091E2008E7F8093E200AC
:1049E0008091E20080618093E2008091D800806233
:1049F0008093D80019BC85E08093B8020E941021F2
:104A00008091E10084FF29C08091E20084FF25C0ED
:104A100080E189BD82E189BD09B400FEFDCF8091AE
:104A2000D8008F7D8093D8008091E1008F7E8093A5
:104A3000E1008091E2008F7E8093E2008091E200AD
:104A400081608093E2008091B402882309F449C018
:104A500084E08093B8020E9418218091E10083FFD6
:104A600029C08091E20083FF25C08091E100877F0B
:104A70008093E10082E08093B8021092B4028091AA
:104A8000E1008E7F8093E1008091E2008E7F809331
:104A9000E2008091E20080618093E20042E060E009
:104AA00080E00E94A7238091F00088608093F0004E
:104AB0000E940E21FF91EF91BF91AF919F918F9135
:104AC0007F916F915F914F913F912F910F900FBE0A
:104AD0000F901F90189519BC1092B8020E940B21DC
:104AE00072CF8091E30087FD02C081E0B2CF83E006
:104AF000B0CF1F920F920FB60F921124FF920F9317
:104B00001F932F933F934F935F936F937F938F9355
:104B10009F93AF93BF93CF93DF93EF93FF9309EEF0
:104B200010E0F8018081C091EC00C795CC27C795B3
:104B30008F70FC2EF82A1082C0EFD0E08881877F2A
:104B4000888378940E94C225F80110828881886049
:104B50008883CF2DCF70C083FF91EF91DF91CF91EC
:104B6000BF91AF919F918F917F916F915F914F9185
:104B70003F912F911F910F91FF900F900FBE0F90BB
:104B80001F9018951F93CF93DF93CDB7DEB7AA97E9
:104B90000FB6F894DEBF0FBECDBF89EB92E0FC01EB
:104BA00001962091F100208322E0813C9207B9F721
:104BB0000E9436218091E80083FF1DC18091B902D7
:104BC0009091BA029A3008F016C1E92FF0E0E45D46
:104BD000F74D0C945427803899F0823809F00BC1B6
:104BE0008091BD028F70873008F005C18093E90085
:104BF0008091EB0085FB882780F91092E90006C0C0
:104C00008091B5029091B602911182609091E80076
:104C1000977F9093E8008093F1001092F1008091CB
:104C2000E8008E77E4C0882309F4D2C0823009F00E
:104C3000E2C08091BB028111D5C08091BD028F700E
:104C40002FEF280F263008F0D6C08093E90020917E
:104C5000EB0020FFC7C0933031F48091EB008062FD
:104C60008093EB00BFC09091EB0090619093EB00BC
:104C700021E030E001C0220F8A95EAF72093EA0094
:104C80001092EA008091EB008860EACF8111B3C0F6
:104C90001091BB021F778091E3008078812B809375
:104CA000E3008091E800877F8093E8000E94DB2387
:104CB0008091E80080FFFCCF8091E30080688093C2
:104CC000E30082E0111183E08093B80294C0805821
:104CD000823008F090C08091BB029091BC028C3D64
:104CE00023E0920799F583E08A838AE289834FB7AC
:104CF000F894DE01139620E03EE051E2E32FF0E06D
:104D000050935700849120FF03C082958F703F5FBE
:104D10008F708A30C8F0895C90E08D939D932F5FEF
:104D2000243161F74FBF8091E800877F8093E800CE
:104D30006AE270E0CE0101960E94F2228091E800C2
:104D40008B778093E80057C0805DE6CF6091BD020D
:104D50007091BE02AE014F5F5F4F0E943122BC01D5
:104D6000892B09F448C08091E800877F8093E80090
:104D700089819A810E944C23E1CF8038E1F58091AE
:104D8000E800877F8093E8008091B4028093F1006F
:104D900046CF811130C09091BB02923060F5809176
:104DA000E800877F8093E8009093B4020E94DB23A1
:104DB0008091B402882311F084E005C08091E30063
:104DC00087FDFACF81E08093B8020E94222113C0B0
:104DD0008091BB02813079F481E0933009F080E06A
:104DE0008093B6021092E9008091E800877F80935B
:104DF000E8000E94DB238091E80083FF0AC08091D5
:104E0000E800877F8093E8008091EB0080628093C8
:104E1000EB00AA960FB6F894DEBF0FBECDBFDF91B0
:104E2000CF911F9108950895CF938091B802882360
:104E300099F08091E900C091EC00C795CC27C79507
:104E40008F70C82B1092E9008091E80083FD0E94CA
:104E5000C225CF70C093E900CF9108950E942B2402
:104E60001092B8020895E8EDF0E0808180618083BF
:104E70008AE18A95F1F700C08091D9008170089588
:104E800097FB072E16F4009407D077FD09D00E94F7
:104E90005A2707FC05D03EF4909581959F4F0895C1
:104EA000709561957F4F0895EE0FFF1F0590F49167
:104EB000E02D0994AA1BBB1B51E107C0AA1FBB1F11
:104EC000A617B70710F0A61BB70B881F991F5A9596
:104ED000A9F780959095BC01CD010895FB01DC01F7
:104EE00004C08D910190801921F441505040C8F7C1
:104EF000881B990B0895FB01DC0102C001900D9203
:104F000041505040D8F70895F999FECF92BD81BD28
:104F1000F89A992780B50895A8E1B0E042E050E002
:104F20000C94B827262FF999FECF92BD81BDF89A2F
:104F3000019700B4021639F01FBA20BD0FB6F894DD
:104F4000FA9AF99A0FBE08950396272F0E94932785
:104F50000E949227252F0E949327242F0C94932799
:104F60000196272F0E9493270C949227DC01CB01F6
:104F7000FC01F999FECF06C0F2BDE1BDF89A319669
:104F800000B40D9241505040B8F70895F894FFCF07
:104F90002B042B045F045F04FD04190590049004A6
:104FA0002405D005E105E1053D0690049004460680
:104FB0002E17341737173D1752175217521752171B
:104FC00052175217521752174017451749174F17C4
:104FD000601766176A1796199C19A019AE19B219AD
:104FE000B619BA19C019C819CC19D019D419E019B1
:104FF000E419E819EC19F219101AFA19AA19D819B2
:10500000DC19C419F619061A191A1D1A721A691A26
:10501000751A5F1A641A641A5F1A641A641A911A6C
:10502000641A9C1A641A641A641A641A641A5F1A5D
:10503000641A641A5F1A641A831A641A641AAD1A1D
:10504000AD1AAD1AAD1AAD1AAD1AAD1AAD1AAD1A28
:10505000A71A641A721A661AEB251326FB26132662
:0C506000FB2646266726FB26BD26C92637
:10506C00C800240201AF020000000100000000AFE4
:10507C00020000000501000000AF02040600000061
:10508C000000002808643C071477209A207B20F944
:10509C0020F5207A2001E200E900EA00B500B60014
:1050AC00B700CD008301CC008A019201940121024A
:1050BC00230224022502260227022A02B300B4008E
:1050CC006F007000E200E900EA00B500B600B7001E
:1050DC00CD008301CC008A019201940121022302AC
:1050EC0024022502260227022A02B300B4006F0014
:1050FC0070006697673435F73133323600000000A4
:10510C00004B02736C6176655F6D61747269780037
:0C511C0073796E635F74696D657200004A
:00000001FF
