:100000000C949B020C94B0250C94B8020C94B8028A
:100010000C94B8020C94B8020C94B8020C94B80278
:100020000C94B8020C94B8020C94592D0C942C2EFC
:100030000C9442280C94B8020C94B8020C94B802A8
:100040000C94B8020C94B8020C94B8020C94B80248
:100050000C94B8020C94D4280C94B8020C94B802F6
:100060000C94B8020C94B8020C94B8020C94B80228
:100070000C94B8020C94B8020C94B8020C94B80218
:100080000C94B8020C94B8020C94B8020C94B80208
:100090000C94B8020C94B8020C94B8020C94B802F8
:1000A0000C94B8020C94B8020C94B802130012001D
:1000B0000C0018001D0033000F000E000D000B0097
:1000C0003400370036001000110000002E002D0013
:1000D00028622A4200004D0049004C00E200140052
:1000E0001A00080015001700040016000700090098
:1000F0000A001C001B0006001900050000002F006C
:10010000300029612C4100004A0035002B00E3003B
:100110004B00010052000100A9004E004F005100A9
:100120005000A8003102380231003800AA00000057
:10013000010001000100C35C0000C85CCA5CC65C31
:10014000C45C0100F100ED00F20001000100EF00CD
:10015000EE00F000010001000100010001000100BB
:100160000000010001000100010000000100010089
:100170000100010043004200410040003F00270011
:10018000260025002400230027022602250224023F
:100190002302000001000100010001000000010035
:1001A0000100010001003A003B003C003D003E0020
:1001B0001E001F002000210022001E021F0220023C
:1001C000210222020000440045000100010000005D
:1001D000010001000100010000047F3F1F64321490
:1001E000643214783C1E1E140A0522232526282971
:1001F0002A2C2D2F3032333536383A3B3D3E4042A3
:10020000434547494A4C4E5051535557595A5C5EE5
:100210006062646668696B6D6F71737577797B7DF9
:100220007F81838587898A8C8E90929496989A9CF8
:100230009E9FA1A3A5A7A8AAACAEAFB1B3B4B6B810
:10024000B9BBBCBEBFC1C2C3C5C6C7C9CACBCCCD72
:10025000CED0D1D2D2D3D4D5D6D7D7D8D9D9DADA4D
:10026000DBDBDBDCDCDCDCDCDDDDDDDDDCDCDCDCCD
:10027000DCDBDBDBDADAD9D9D8D7D7D6D5D4D3D201
:10028000D2D1D0CECDCCCBCAC9C7C6C5C3C2C1BFDF
:10029000BEBCBBB9B8B6B4B3B1AFAEACAAA8A7A543
:1002A000A3A19F9E9C9A98969492908E8C8A8987FF
:1002B0008583817F7D7B79777573716F6D6B6968DD
:1002C000666462605E5C5A5957555351504E4C4AB1
:1002D0004947454342403E3D3B3A3836353332305C
:1002E0002F2D2C2A292826252322FFAA7F554000BE
:1002F00001010101010101010102020202020202E7
:1003000002020303030303030303040404040404B9
:10031000040505050505060606060607070707077F
:1003200008080808090909090A0A0A0B0B0B0C0C32
:100330000C0D0D0D0E0E0E0F0F0F101011111112CE
:100340001213131414151516161717181819191A4D
:100350001A1B1B1C1D1D1E1E1F20202122222324B0
:1003600024252626272829292A2B2C2D2D2E2F30EF
:10037000313232333435363738393A3B3C3D3E3F03
:10038000404142434445464748494A4C4D4E4F50F0
:10039000515354555658595A5B5D5E5F61626465AE
:1003A0006668696B6C6D6F7072737577787A7B7D38
:1003B0007E8082838587888A8C8E8F91939596988C
:1003C0009A9C9EA0A2A3A5A7A9ABADAFB1B3B5B7A8
:1003D000BABCBEC0C2C4C6C9CBCDCFD1D4D6D8DB7F
:1003E000DDDFE2E4E7E9EBEEF0F3F5F8FAFDFF28F4
:1003F00003440061006300740079006C0020004D2C
:100400000061006E00750066006F0072006D0020D4
:100410000034007800350000000E0374007300689B
:10042000006F007200740000000403090409023B1D
:1004300000020100A0FA0904000001030101000903
:1004400021110100012240000705810308000A096B
:100450000401000103000000092111010001227BB9
:10046000000705820320000A1201000200000008B4
:100470004D44353401000102000105010902A101CA
:1004800085020901A10005091901290815002501A6
:100490009508750181020501093009311581257F13
:1004A00095027508810609381581257F9501750823
:1004B0008106050C0A38021581257F950175088192
:1004C00006C0C005010980A101850319012AB700F2
:1004D000150126B700950175108100C0050C0901B2
:1004E000A101850419012AA002150126A002950187
:1004F00075108100C005010906A101050719E02951
:10050000E71500250195087501810295017508819F
:10051000010507190029FF150026FF00950675083B
:1005200081000508190129059505750191029501BC
:1005300075039101C00011241FBECFEFDAE0DEBFCA
:10054000CDBF12E0A0E0B1E0EAE6F2E602C005901D
:100550000D92A630B107D9F723E0A6E0B2E001C0C2
:100560001D92A034B207E1F70E942C180C94D830E9
:100570000C94000081E0089581E008950C94BC0281
:1005800008950C94C0021F93CF93DF9300D000D046
:100590000F92CDB7DEB749835A836B83309108023F
:1005A00089819A8131111DC06623B9F02223A9F0F7
:1005B0000E94410A182F682F89819A810E94EA09B6
:1005C00069817A81812F0F900F900F900F900F907B
:1005D000DF91CF911F910C94C2100E94180A182F1E
:1005E000EFCF0E94410A69817A81EDCFFC01262F6D
:1005F000408151816281738184810C94C30281E0C6
:100600000895CF93DF93D82FC92F60E00E94F602A0
:100610006D2F7C2FDF91CF910C94C1020E943E136D
:100620000E9491030C9477130C947A1380E00C943D
:100630009203089508950E94C3070E941A032FEFA2
:1006400084E39CE0215080409040E1F700C000002E
:100650000C94F8280F931F93CF93DF938C0161E0E4
:100660000E94F602EC01B8010E94BE028823D9F173
:10067000B801CE010E94B5248823A9F1B801CE01AA
:100680000E943623882379F1B801CE010E941F24ED
:10069000882349F1B801CE010E947322882319F101
:1006A000F8018281882361F0CB35FDE5DF0721F178
:1006B00070F4C115ECE5DE07A1F0CF3DDC45C9F0D3
:1006C000C801DF91CF911F910F910C94BA02CC35E4
:1006D0008DE5D807A1F0CD35DD4591F70E942A0FB1
:1006E000EFCF0E941B0380E0DF91CF911F910F910C
:1006F00008950E94DE0FF7CF0E94330FE1CF0E94D2
:10070000360FDECF0C9419030E9435270E94920306
:100710000C94820308950C948A0381E008950C944C
:100720008D030895CF93C82F0E948B038C2FCF91F8
:100730000C948F03EF92FF920F931F93CF93DF934D
:10074000CDB7DEB72B970FB6F894DEBF0FBECDBF87
:10075000042F4F83152F588769877A878B87EA8400
:10076000FB8461110E94770E1E8285E0FE013796A0
:10077000DE01119601900D928A95E1F7EF28A9F418
:1007800049815A816B817C818D819E810E94960D69
:100790002B960FB6F894DEBF0FBECDBFDF91CF9181
:1007A0001F910F91FF90EF90089510231F3F41F389
:1007B000CE0101960E94FF028111E2CFE9CFFC0138
:1007C000808191810C94830ACF93C82F882309F4E8
:1007D0008AC08238C1F40E94352781FD84C089E334
:1007E0000E94300E0E94A80E2FEF31EE84E02150BF
:1007F00030408040E1F700C0000089E30E94370EDE
:10080000CF910C94A80E8338A1F40E94352780FD67
:100810006AC083E50E94300E0E94A80E9FEF21EE71
:1008200034E0915020403040E1F700C0000083E503
:10083000E5CF8438A1F40E94352782FD54C087E4B7
:100840000E94300E0E94A80E8FEF91EE24E081509E
:1008500090402040E1F700C0000087E4CFCF8CEF4C
:100860008C0F813A90F46C2F8091020190910301DA
:100870000E94A027882329F08C2F0E94370E0E9407
:10088000A80E8C2F0E94300EBBCF80E28C0F8830D8
:1008900048F4C77081E001C0880FCA95EAF70E944A
:1008A000580EAECF8BE58C0F833038F42C2F2452AA
:1008B000330BC901CF910C946227E8E5EC0FE731C7
:1008C00050F4F0E0EE0FFF1FED5AFE4F8081918152
:1008D000CF910C947827CD3E30F08C2F0E94BC181D
:1008E000CF910C947E19CF910895882309F452C0BA
:1008F000823871F40E94352781FF4CC089E30E9441
:10090000300E0E94A80E89E30E94370E0C94A80EA8
:10091000833859F40E94352780FF3CC083E50E944C
:10092000300E0E94A80E83E5EFCF843859F40E9460
:10093000352782FF2FC087E40E94300E0E94A80E48
:1009400087E4E2CF9CEF980F913AF0F290E2980F93
:10095000983050F4877091E001C0990F8A95EAF7BA
:10096000892F0E945E0ED2CF9BE5980F933020F422
:1009700090E080E00C94622798E5980F973120F47E
:1009800090E080E00C9478278D3E20F00E940519BD
:100990000C947E1908951F93CF93DF93182FEB01CA
:1009A0000E94E403209731F4812FDF91CF911F91B2
:1009B0000C9475048FE99FE00197F1F700C00000E7
:1009C0002197F0CF70E060E0893311F460E570E0CA
:1009D0000C94CB04882321F00E94580E0C94A80E8E
:1009E0000895882321F00E945E0E0C94A80E0895AD
:1009F000AF92BF92CF92DF92EF92FF920F931F932D
:100A0000CF93DF9300D000D00F92CDB7DEB76C014B
:100A10006D837983FC011281F580F2949FE0F922C5
:100A20000E944E0EE82E8823B9F0E12E1123A1F08A
:100A30008981807F803421F08D81805E8830B0F0A4
:100A40008091FA0282FD12C082E00E94F90E0E949B
:100A50004E0E91E0E82EE926A980A2948FE0A8220C
:100A6000B12CF501E652FF4C0C943630E12CF4CF5A
:100A700009810F70F981F07F11F00295007F112339
:100A8000A1F0002361F08D81805E883018F01D8117
:100A9000111107C0802F0E94580E0E94A80E8D8150
:100AA00044C0802F0E94690EF8CF8D810E9475048A
:100AB000002309F442C08D81805E883018F01D81CA
:100AC000111104C0802F0E945E0E03C0802F0E946F
:100AD0006F0E0E94A80E31C009810F702981207FFE
:100AE000203211F00295007F3D81332381F03130B7
:100AF00009F471C0112309F47BC0FF2009F471C00F
:100B0000F601858180FFCBCF8F7085836AC080918D
:100B1000FA0282FF40C0112359F0002329F0802FF0
:100B20000E94580E0E94A80E80E00E94E40305C0B7
:100B300080E00E9475040111C5CF88E0A81AB108B1
:100B400094E0A916B10420F40E9435270E94920374
:100B5000EE2009F4AFC10E944A0E80FDABC1F60140
:100B600012820E94440E0E94DA08C6010E94810788
:100B70000E94440E0F900F900F900F900F90DF91F6
:100B8000CF911F910F91FF90EF90DF90CF90BF908A
:100B9000AF900C940B09112389F0F11006C00E944C
:100BA0008B0E802B0E94EA04C8CF81E0F812F7CFA9
:100BB0000E948B0E802B0E94910EBFCFF11006C0B9
:100BC0000E949E0E802F0E94F104B7CF91E0F9168B
:100BD00009F4B3CFF5CF112331F0E5E0EF1508F4B8
:100BE000ACCF802FDFCFF4E0FF1508F4A6CFEACF1B
:100BF000FF2041F30D81093349F41FEF27EE33E065
:100C0000115020403040E1F700C000008D810E946B
:100C1000750493CF898186958695837069F08130BC
:100C200009F08BCF8D8199819370111102C090E0F2
:100C300080E00E94782781CF8D8199819370111176
:100C400002C090E080E00E94622777CF8D8111235F
:100C500029F00E94BC180E947E196FCF0E940519CE
:100C6000FACF8981837009F050C0111166CF2D81B0
:100C7000229526952770220F220F4D814F7050E04C
:100C800070E060E0022E04C0440F551F661F771FFE
:100C90000A94D2F70D8180E090E0DC0104FF0FC0E0
:100CA0008FE090E0A0E0B0E004C0880F991FAA1F79
:100CB000BB1F2A95D2F780959095A095B095198184
:100CC0001695169513701D838C019D01042B152B11
:100CD000262B372B09831A832B833C831D81698143
:100CE0007A818B819C81123051F0133059F0113090
:100CF00019F00E94500821CF0E9428081ECF0E94A0
:100D000078081BCF0E94260818CF112309F448C089
:100D1000098100FF12CF2D81229526952770220F81
:100D2000220F4D814F7050E070E060E0022E04C051
:100D3000440F551F661F771F0A94D2F70D8180E07C
:100D400090E0DC0104FF0FC08FE090E0A0E0B0E095
:100D500004C0880F991FAA1FBB1F2A95D2F7809540
:100D60009095A095B09519811695169513701D83D1
:100D70008C019D01042B152B262B372B09831A83FD
:100D80002B833C831D8169817A818B819C81123008
:100D900071F0133079F0113039F00E949909CDCEFD
:100DA000198111FFCACEB7CF0E947109C6CE0E9429
:100DB000C109C3CE0E94A408C0CE09810F70098367
:100DC000112329F0802F0E94DA088D81EBCE8D81CE
:100DD0000E94F10489810E940B09AFCE0D81023F70
:100DE00059F160F4003FC1F0013F89F0112309F48B
:100DF0004CC0F11054CE89818F7122C00D81033F08
:100E000011F1043F99F78091FA0282FF26C089818F
:100E10008F71112301F314C0112349F014E01F1541
:100E200008F48BCE89818F710E94400986CE25E01F
:100E30002F1508F482CEF6CF89818F711111CBCF97
:100E40000E94DA087ACE112329F089818F710E94DD
:100E5000B50873CE0E94B00870CE112359F00981F5
:100E60000F710983802F0E94DA0863E089810E9454
:100E7000DE0E63CE81E00E94F90E11E01F1508F02E
:100E80005CCE82E00E94F90E58CEF110B3CE89817B
:100E90008F71A1CF49814F706D81C6010E94BE1034
:100EA0000E94B90A4ACE49814F706D81C6010E94E5
:100EB000C11043CE0F900F900F900F900F90DF91C5
:100EC000CF911F910F91FF90EF90DF90CF90BF9047
:100ED000AF9008950F931F93CF93DF93EC01688138
:100EE00079818A810E948F0A8C010E94E9090E94FF
:100EF0002508B801CE01DF91CF911F910F910C947D
:100F0000F804CF93DF93EC01988189812B813C8198
:100F1000232B19F089238F3F59F4DF91CF91089546
:100F2000CE010E946A07CE01DF91CF910C9401039C
:100F3000CE010E942A038111F3CF0E944E0E882316
:100F400061F38A81882349F38091FA0282FDE5CF1B
:100F500082E0DF91CF910C94F90E90E080E00E9446
:100F6000622790E080E00E9478270E94770E0E941E
:100F7000880E0E94A80E0E94A91A0C947E190E9445
:100F80003E0E0C94AD070E94660E0C94BF07282FEE
:100F9000892F82958F70903C80F48A30B0F4843031
:100FA00020F4823090F480E008958630E1F781E00B
:100FB000283E88F0213FB9F70EC08C3011F08F30F9
:100FC00091F793FB882780F9089581E0203F39F05D
:100FD00018F4283E40F70895243F29F7FCCF0895E0
:100FE000FC01808191810E94830A0C94C707CF93F2
:100FF000DF9300D000D00F92CDB7DEB70F900F90E7
:101000000F900F900F90DF91CF910895CF93DF93C2
:1010100000D000D000D0CDB7DEB726960FB6F8943A
:10102000DEBF0FBECDBFDF91CF91089508950C9420
:1010300016080E9417086093300270933102809363
:101040003202909333020C94AD0708950C94190862
:10105000CF93DF9300D000D0CDB7DEB769837A831A
:101060008B839C838091300290913102A091320257
:10107000B091330229813A814B815C81282B392B35
:101080004A2B5B2B29833A834B835C83CA01B901CA
:101090000F900F900F900F90DF91CF910C94190843
:1010A000CF93DF9300D000D0CDB7DEB769837A83CA
:1010B0008B839C838091300290913102A091320207
:1010C000B091330229813A814B815C8128233923F5
:1010D0004A235B2329833A834B835C83CA01B9018A
:1010E0000F900F900F900F90DF91CF910C941908F3
:1010F000CF93DF9300D000D0CDB7DEB769837A837A
:101100008B839C838091300290913102A0913202B6
:10111000B091330229813A814B815C81282739279C
:101120004A275B2729833A834B835C83CA01B90131
:101130000F900F900F900F90DF91CF910C941908A2
:101140000C9416080C94A0080E94A20860932C022C
:1011500070932D0280932E0290932F020C94AD0772
:1011600060E070E0CB010C94A4080F931F93CF9321
:10117000DF9300D000D0CDB7DEB741E050E060E0B3
:1011800070E08A019B0104C0000F111F221F331F52
:101190008A95D2F709831A832B833C83C901B8014E
:1011A0000F900F900F900F90DF91CF911F910F91A3
:1011B0000C94A4080F931F93CF93DF9300D000D01B
:1011C000CDB7DEB741E050E060E070E004C0440F0E
:1011D000551F661F771F8A95D2F780912C02909138
:1011E0002D02A0912E02B0912F028A019B01082BA3
:1011F000192B2A2B3B2B09831A832B833C83C90190
:10120000B8010F900F900F900F90DF91CF911F9129
:101210000F910C94A4080F931F93CF93DF9300D0EA
:1012200000D0CDB7DEB741E050E060E070E004C030
:10123000440F551F661F771F8A95D2F7409550952A
:101240006095709580912C0290912D02A0912E02B4
:10125000B0912F028A019B01082319232A233B23E3
:1012600009831A832B833C83C901B8010F900F9027
:101270000F900F90DF91CF911F910F910C94A408C4
:101280000F931F93CF93DF9300D000D0CDB7DEB77D
:1012900041E050E060E070E004C0440F551F661F5D
:1012A000771F8A95D2F780912C0290912D02A09100
:1012B0002E02B0912F028A019B01082719272A27A5
:1012C0003B2709831A832B833C83C901B8010F9004
:1012D0000F900F900F90DF91CF911F910F910C9471
:1012E000A408CF93DF9300D000D0CDB7DEB76983D9
:1012F0007A838B839C8380912C0290912D02A09104
:101300002E02B0912F0229813A814B815C81282BDA
:10131000392B4A2B5B2B29833A834B835C83CA018D
:10132000B9010F900F900F900F90DF91CF910C9417
:10133000A408CF93DF9300D000D0CDB7DEB7698388
:101340007A838B839C8380912C0290912D02A091B3
:101350002E02B0912F0229813A814B815C81282392
:1013600039234A235B2329833A834B835C83CA0155
:10137000B9010F900F900F900F90DF91CF910C94C7
:10138000A408CF93DF9300D000D0CDB7DEB7698338
:101390007A838B839C8380912C0290912D02A09163
:1013A0002E02B0912F0229813A814B815C8128273E
:1013B00039274A275B2729833A834B835C83CA01F9
:1013C000B9010F900F900F900F90DF91CF910C9477
:1013D000A4080895E92FEE0FEE0FE90FE80F8E2F06
:1013E000877041E001C0440F8A95EAF7E695E695DB
:1013F000E69585E0E89FF0011124E75FFD4F30E0BE
:1014000020E070E05191DF011197CB01022E02C064
:10141000969587950A94E2F78170819585278423B4
:1014200085278C932F5F3F4F2530310559F708955D
:10143000E92FEE0FEE0FE90FE80F9E2F9770E6955C
:10144000E695E69585E0E89FF0011124E75FFD4F02
:1014500050E040E080E0219130E0092E02C0369556
:1014600027950A94E2F721703327042E01C0220F3A
:101470000A94EAF7822B4F5F5F4F4530510559F7C9
:101480000895BF92CF92DF92EF92FF920F931F9336
:10149000CF93DF938C01C0902C02D0902D02E0906E
:1014A0002E02F0902F028091300290913102A09193
:1014B0003202B0913302C82AD92AEA2AFB2ACFE1A4
:1014C000D0E0BC2ED701C6010C2E04C0B695A7955E
:1014D000979587950A94D2F780FD0EC0219788F7DB
:1014E000B12C8B2DDF91CF911F910F91FF90EF9039
:1014F000DF90CF90BF900895B8018C2F0E94F0111B
:10150000019761F3EECFCF93DF93D82FC92F0E94BD
:10151000410A6D2F7C2FDF91CF910C94F0111F9316
:10152000CF93DF93162FD72F90910802992339F08C
:10153000862F972FDF91CF911F910C94830A8823D8
:1015400091F0862F972F0E94410AC82F682F812F74
:101550009D2F0E94EA09612F7D2F8C2FDF91CF9163
:101560001F910C94F011862F972F0E94180AC82FF4
:10157000F2CFEF92FF920F931F93CF93DF938C01E3
:10158000892B89F0F12CEE24E394E8012196F801EF
:101590008491843709F458C0A0F4823009F43FC024
:1015A00048F48130D1F0DF91CF911F910F91FF90DE
:1015B000EF9008959CEF980F9037A8F70E94E403EE
:1015C0000AC0853709F44EC09CE7980F903758F74A
:1015D0008F770E9475048E0116C00E5F1F4FFE01AB
:1015E000849190E2980F983060F48770FE2D01C0CE
:1015F000FF0F8A95EAF78F2F0E947A0E0E94A80E9D
:1016000002C00E94E4038F2D882309F4BECFEFE9C6
:10161000FFE03197F1F700C000008150F5CF0E5F79
:101620001F4FFE01849190E2980F983050F487701C
:10163000FE2D01C0FF0F8A95EAF78F2F0E94800EC2
:10164000DDCF0E947504DFCF0E5F1F4FFE01C491F6
:10165000CC23C9F28FE99FE00197F1F700C00000A9
:10166000C150F6CF0E5F1F4FFE01F490CCCF1F93F9
:10167000CF93DF93E091340216E0809135028E1310
:1016800004C0DF91CF911F910895CE2FD0E01E9F0F
:10169000F0011124EA5CFD4F408151816281738128
:1016A000848195810E9406082196EC2FE770E5CF92
:1016B00040916602509167026091680270916902E0
:1016C00080916A0290916B020C940608FF920F932E
:1016D0001F93CF93DF9380916B02807FD1F4809131
:1016E00068028823B1F08091340210913502709124
:1016F000660260916702A0916902B0916A02062FAA
:101700000723C0910001D091010196E0F92E181332
:1017100006C0DF91CF911F910F91FF90089590E047
:10172000109711F00F3F19F401968770F0CFF89ED3
:101730009001F99E300D1124F901EA5CFD4F4181C1
:101740006413F2CF40814713EFCF42814111ECCFB8
:10175000438154814A1B5B0B4C175D0728F780912E
:101760006B028F70806180936B02F901E55CFD4F25
:1017700080818F708061808386E692E00E9481077D
:10178000DF91CF911F910F91FF900C94370BAF9287
:10179000BF92CF92DF92EF92FF920F931F93CF935E
:1017A000DF93CDB7DEB72B970FB6F894DEBF0FBE31
:1017B000CDBF8C0185E0F801DE01179601900D92F6
:1017C0008A95E1F7D8011296EC9012971396CD9076
:1017D000DC9096E6A92E92E0B92E309166029091A7
:1017E00067024091690250916A024115510529F042
:1017F000892F83238F3F09F082C1EE2009F492C123
:10180000C8010E94F007F82E882309F48BC186E0F6
:10181000F801A6E6B2E001900D928A95E1F786E61E
:1018200092E00E94DF030E94660B38C180916B0238
:10183000E82FE07F4617570708F0D2C0D80111966D
:101840002C911197E11116C1FE2C291325C09C91F2
:10185000931322C0E11020C08F70806180936B02CF
:101860000E94580B86E692E00E94810780916B02ED
:10187000F80185838F2D2B960FB6F894DEBF0FBE2F
:10188000CDBFDF91CF911F910F91FF90EF90DF902F
:10189000CF90BF90AF9008953F81C114D10429F03B
:1018A000822F83238F3F09F0E2C080E080FF08C0D1
:1018B000E09134024091350286E0B82EE4131BC05B
:1018C000CD2829F0822F83238F3F09F0C2C080E00A
:1018D000F82FF170DF2EE09134024091350256E08E
:1018E00080FD30C0EE2031F280916B0281608093E8
:1018F0006B02F12CBFCF8E2F90E0BE9EF001112421
:10190000EA5CFD4F5181251306C05081531303C07B
:1019100052815E11A1C00196E82FE770CFCF8E2FC4
:1019200090E05E9FF0011124EA5CFD4F6181261377
:1019300006C06081631303C062816E11D3CF01962C
:10194000E82FE770E413EBCF8F8198850E94830A1C
:10195000292F22952F70903268F0225F2F7022304D
:1019600080F49F7059F0D80115969C91907F31F4C6
:10197000D12C0AC09F7011F08823D1F3805E88308B
:10198000B8F3C8010E948107FD2C74CFC8010E94E2
:10199000F007882309F4C6C0EE2009F4C3C0809183
:1019A0006B02803270F020916602309167023A83B8
:1019B00029831B82DD82CC828E83CE0101960E9418
:1019C000810786E0F801A6E6B2E001900D928A95C3
:1019D000E1F70E94660B0E94580BFF24F3944ACF54
:1019E000E1115FC04F81588569857A858B850E949A
:1019F000F70786E692E00E94810786E0D5011D92F6
:101A00008A95E9F70E94580B74CF86E0F801A6E6A4
:101A1000B2E001900D928A95E1F72CCFC8010E94A7
:101A2000F0078111CECF80916B02816080936B02B1
:101A3000C8010E9481071ECF4F81588569857A852C
:101A40008B850E94F70786E0D5011D928A95E9F7FC
:101A500025C081E08E253CCF86E692E00E9481077A
:101A6000E6E6F2E0DF011D92BA94E9F7CBCF81E020
:101A70008E251CCF29138ACFF8019081931386CF2E
:101A8000E11084CF8583C8010E94810786E0F801B8
:101A9000A6E6B2E001900D928A95E1F70E94580BFC
:101AA000E9CEF8012181921371CFF801908193134F
:101AB0006DCFE1106BCF8583C8010E94810786E05E
:101AC000D5011D928A95E9F7D5CED80111968C9152
:101AD0009813A4CFF80180818313A0CF80916B026B
:101AE00080FD93CF982F907F09F48FCF8583903F0F
:101AF00051F2982F907F905F8F70892BC3CFF09019
:101B00006802F601E41BF50BAF01609100017091D2
:101B10000101F1108BCE4617570708F08DCFFE2C30
:101B2000E110D3CFC8010E94810757CF1F93CF93F5
:101B3000DF93CDB7DEB72C970FB6F894DEBF0FBE9C
:101B4000CDBF4F83588769877A878B879C87CE0163
:101B500007960E94C70B882369F08A859B85892B8D
:101B600039F058854F81852F84238F3F09F071C04C
:101B700016E05FC086E0FE013796DE011196019007
:101B80000D928A95E1F78F819885209135024091D9
:101B900034026A857B85672B59F389238F3F41F394
:101BA00030E0C9010196877099274817190671F42A
:101BB0000E94C307109235021092340286E0E6E6D6
:101BC000F2E0DF011D928A95E9F7D2CF96E0929F6D
:101BD000D001939FB00D1124AA5CBD4FFE01319638
:101BE00001900D929A95E1F7809335020E94370B90
:101BF000BFCF819FC00111248A5C9D4F0E94C70BFB
:101C00008823E9F0E09134021E9FF0011124EA5C80
:101C1000FD4F4081518162817381848195810E9451
:101C200006088091340290E001968770992780938E
:101C3000340280913402909135028913DACF2C96C8
:101C40000FB6F894DEBF0FBECDBFDF91CF911F91CD
:101C5000089569857A858B859C850E94060888CFC2
:101C6000682F80910201909103010C94DA27682F6C
:101C700080910201909103010C94DC278091020174
:101C8000909103010C94DE2780916C0285958595D7
:101C90008595089580916C028770089590916C02EB
:101CA000977081E009F480E00895809178020895AA
:101CB00090917802982B909378020895982F9095A0
:101CC0008091780289238093780208951092780297
:101CD000089590917702982B909377020895982F0A
:101CE00090958091770289238093770208951092CE
:101CF0007702089590917602982B9093760208953A
:101D0000982F90958091760289238093760208958A
:101D100010927602089580916D02089508950C94B2
:101D20008E0E9091FA0292FD08C090916D02981764
:101D300021F080936D020C948F0E089580916D02B6
:101D4000882329F010926D0280E00C948F0E089584
:101D5000E0910201F0910301809178028083E0918B
:101D60000201F0910301808190917702892B808399
:101D7000E0910201F0910301808190917602892B1C
:101D8000808390916D02992381F0E0910201F0919E
:101D900003018081892B808380910201909103014E
:101DA0000E948E2781110E949E0E809102019091C7
:101DB00003010C94482708950C94DB0E9091FA02CD
:101DC00092FD10C098E0899F90011124622B6093CE
:101DD0006C020E94DA0880916C0285958595859544
:101DE0000C94DC0E0C94DA0810926C0280E00C94D7
:101DF000DC0E90916C028095892380936C02282FD1
:101E0000277091F4282F082E000C330B921713061D
:101E100059F09091FA0292FD07C0859585958595B8
:101E20000E940B090C94F40E08959091FA0292FB13
:101E3000222720F9281769F080FB92F99093FA0283
:101E40008091F9029091FA020E945A0F82E00C945C
:101E5000F90E08958091FA0282FB882780F991E0BB
:101E600089270C94150F81E00C94150F80E00C94D9
:101E7000150F90E080E00E949E309C0181E0293E99
:101E80003E4F09F080E0089582E090E00C9490309D
:101E900083E090E00C949030CF9384E090E00E9437
:101EA0009030C82F82E290E00E949030982F8C2FC3
:101EB000CF910895CF93682FC92F84E090E00E94BE
:101EC000A4306C2F82E290E0CF910C94A430AB014F
:101ED000BC018FE090E00C94B630AB01BC0183E113
:101EE00090E00C94B63060E070E0CB010C946D0F84
:101EF00060E070E0CB010E94670F0C94730F69EEF5
:101F00007EEF90E080E00E94C23060E082E090E0EE
:101F10000E94A43060E083E090E00E94A430109220
:101F2000300210923102109232021092330260E0BD
:101F300084E090E00E94A43060E082E290E00E94A1
:101F4000A43060E085E090E00E94A43060E086E08C
:101F500090E00E94A4306FEF87E090E00E94A430F0
:101F600040E050E0BA0188E090E00E94B63060E0C6
:101F70008DE090E00E94A43040E050E0BA0188E19A
:101F800090E00E94B63060E087E190E00E94A430CB
:101F900040E050E0BA018CE190E00E94B63070E081
:101FA00060E080E290E00E94C23040E050E0BA0180
:101FB00088E190E00E94B6300C94780F0C947F0F6B
:101FC000682F8EE090E00C94A4300E947E286093ED
:101FD00088027093890280938A0290938B026093A7
:101FE00084027093850280938602909387020895FD
:101FF00085B7806885BF85B7806885BF08950895D7
:1020000008950C94FF0F08950C9403100E94F80F8C
:102010008BE393E10E942B270E9400100C94011087
:102020000C944D15089508950E9412100C941310ED
:102030000E9469280E94CF120E9425140E941E232C
:102040000E9429210C940410AF92BF92CF92DF928C
:10205000EF92FF920F931F93CF93DF9300D000D0A6
:102060000F92CDB7DEB70E94BA1481110E94E50F1E
:102070008AE7A82E82E0B82E10E000E0C02E802F64
:102080000E947C13F82EF501E1905F01E81609F437
:102090004EC080918C0281FD0E9482138E2D8F256F
:1020A000D12CEE24E394982F9E21E1F10E94101090
:1020B000882399F0D982CA82FE2081E009F480E069
:1020C0008B830E9472288160782F9D838C83498145
:1020D0005A816B81892F0E949A03F801E658FD4FBF
:1020E00080818E2580830E9496210E9498190E94EB
:1020F000352790917902891789F10E9435278093BD
:1021000079020F900F900F900F900F90DF91CF9169
:102110001F910F91FF90EF90DF90CF90BF90AF9005
:102120000C949203D394EE0CF5E0DF12BCCF0F5F5A
:102130001F4F0A30110509F0A1CF8FEF89838A83E1
:102140001B820E9472288160782F9D838C83498135
:102150005A816B81892F0E949A03C5CF0F900F90EF
:102160000F900F900F90DF91CF911F910F91FF90E3
:10217000EF90DF90CF90BF90AF90089590E080E017
:1021800008950895972F70E025E0929F600D711DCE
:102190001124FB0192E3899FE00DF11D1124EE0F44
:1021A000FF1FE455FF4F859194910895FC01EE0FB8
:1021B000FF1FE852FE4F859194910895CF93DF93CE
:1021C0000E94F411EC01811520E5920708F043C04C
:1021D000811530E4930708F0B2C0803E9105E8F421
:1021E000803C910508F0A0C0883A910578F4853AC2
:1021F000910508F08BC08130910521F00497813A58
:10220000910540F4CE01DF91CF9108958F3B910568
:1022100009F07FC0D0E0C0E0F5CFC11580E2D8075B
:1022200070F4CF3FD10509F068F7C83ED10550F3EF
:10223000CE018D5E9109D065439720F3EBCFCE019F
:10224000C11520E3D20708F475C09927D3FD74C0E7
:10225000EC01D06CD7CF811535E5930760F5C1153A
:1022600084E5D80708F09EC0C11523E5D20778F4AD
:10227000C11532E5D30708F082C0C11581E5D80742
:1022800008F460C0DC2FCC27C16FD06ABBCF9E01A1
:102290002370332781E090E002C0880F991F2A95B0
:1022A000E2F7C695C69520E2C29FE0011124C82B33
:1022B000D92BDA68A7CF81153AE59307B0F4C11599
:1022C00089E5D80708F07EC0C11526E5D20708F4D5
:1022D0006EC0CE0198558F3F910511F008F09ACF4E
:1022E000DC2FCC27C06FD06A8DCF905681159042DD
:1022F00008F090CF8D2F8F710E948C1290E0982F54
:10230000882788279F718C2BEC015AC0A497D06432
:1023100079CFC85AD0E0CC0FDD1FCF57DE4F0990E0
:10232000D881C02DD4646ECF805C91090E94D610F4
:10233000EC0168CF9F70FACFEC01D86C63CFDF70EF
:10234000D06A60CF9E0174E0369527957A95E1F7C3
:1023500023708C2F86958695837030E2839FC00111
:102360001124922BC37021E030E002C0220F331FF2
:10237000CA95E2F7822B932BEC01DC6843CF9E01D8
:102380002370332781E090E002C0880F991F2A95BF
:10239000E2F7C695C69520E2C29FE0011124C82B42
:1023A000D92BEBCFDC2FCC27C46FD06A2BCF8C2F4F
:1023B0000E948C12C82FD0E0DC2FCC27CC27DF71F5
:1023C000D06220CF8C2F8F700E948C1234E0D69573
:1023D000C7953A95E1F7CF709C2FEC01D06912CFE9
:1023E0000E94C2100C94DE10803E910599F1C8F451
:1023F0008133910509F476C048F48932910509F4D6
:102400006AC08A32910509F474C008958933910530
:10241000D1F082389105B9F08533910509F454C0A3
:102420000895843E910599F138F4823E9105F9F0C2
:10243000833E910509F10895863E910599F1873E05
:102440009105B9F108952091F9022370A1F080EE71
:1024500090E008952091F90220FD52C03091FA02D7
:1024600030FF09C024FF4FC090E080E004C02091FD
:10247000F90222FDF7CF08952091F90222FD46C00E
:102480003091FA0230FDE3CF24FFF5CFEDCF20915C
:10249000FA0221FFF0CF8091F90284FDE5CF87EEAB
:1024A00090E008952091F90223FFE5CF24FDDCCFD1
:1024B000F6CF2091F90223FD2CC03091FA0231FFB2
:1024C000E3CF84EE90E008952091F90225FFD3CF69
:1024D00089E290E008952091F90225FFCCCF85E3B1
:1024E00090E008952091F90226FFC5CF8AE290E09E
:1024F00008952091F90226FFBECF81E390E0089570
:1025000089E390E0089583EE90E0089582EE90E0F4
:10251000089586EE90E008959091F90292FF06C02A
:10252000282F28712830F9F4877F846093FF06C034
:10253000282F28712831F1F4877E84612091FA02D6
:1025400020FF06C0382F38713830D9F4877F81607A
:1025500021FF06C0282F28712831D1F4877E8161A0
:1025600094FD877E0895282F24712430F9F68B7FFF
:102570008860DCCF282F2471243101F78B7E88619D
:10258000DDCF382F3171313019F78E7F8860E0CF81
:10259000282F2171213121F78E7E8861E1CF1092A1
:1025A000F5021092F6021092F7021092F8020895C6
:1025B000CF92DF92EF92FF92CF93DF9300D000D0C3
:1025C000CDB7DEB76B017C010E944D1581110EC0A5
:1025D0000E947E28C61AD70AE80AF90AC092F502B4
:1025E000D092F602E092F702F092F8020F900F906C
:1025F0000F900F90DF91CF91FF90EF90DF90CF90F1
:102600000895CF93DF9300D000D0CDB7DEB70E94FE
:102610004D15882341F00F900F900F900F90DF9190
:10262000CF910C947E280E947E2869837A838B83C5
:102630009C838091F5029091F602A091F702B091EF
:10264000F80229813A814B815C81280F391F4A1F8A
:102650005B1FCA01B9010F900F900F900F90DF918F
:10266000CF9108950E944D1581110C9472280E94FB
:102670000113CB01089580E008950895CF93DF936F
:1026800000D000D0CDB7DEB70E94390F811102C053
:102690000E94DE0F0E94440F80938C020E944C0F18
:1026A0009093FA028093F9020E943D130E94480F12
:1026B000282F30E050E040E0CA01B9010E9426080E
:1026C00080912C0290912D02A0912E02B0912F02A8
:1026D00089839A83AB83BC83BC01CD010F900F909B
:1026E0000F900F90DF91CF910C94A20808950C9455
:1026F000761308950C947913E82FF0E0EB5FFC4F0C
:1027000080810895089580EA8A95F1F7089500C0C0
:1027100008950C948313F894E82FE295EF70F0E09D
:1027200041A18F7021E030E0B90102C0660F771F30
:102730008A95E2F7CB01962F9095942391A392A1CD
:10274000892B82A37894089508950C94A413CF93B1
:10275000DF93C4EBD1E089918F3F11F00E948B137E
:1027600081E0C93BD807B9F7CFEAD1E089918F3F23
:1027700011F00E948B1381E0C43BD807B9F7DF91B9
:10278000CF910895CF92DF92EF92FF920F931F9314
:10279000CF93DF93EC01D62E062F10E0C8018C54A6
:1027A0009E4F7C01FC0180818F3F09F445C0F89465
:1027B000E82FE295EF70F0E091A18F7021E030E01A
:1027C00001C0220F8A95EAF7892F822B81A382A16B
:1027D0002095282322A378940E948713EFEAF1E042
:1027E00044EB51E091E0C12C81918F3F79F0A82F0B
:1027F000A295AF70A05EB0E02C9130E08F7002C067
:10280000359527958A95E2F7892F20FD80E0C82A23
:10281000990F4E175F0741F7F70180818F3F11F045
:102820000E948B1361E0C11001C060E08D2D0E94F9
:102830008913C00FD11FC882DF91CF911F910F91D3
:10284000FF90EF90DF90CF9008950E9472158091D5
:1028500004018091040195E0811190E090931003B0
:1028600085E0891B80930F030E94A7138AE0E5E0AF
:10287000F3E0DF01982F1D929A95E9F7EBEFF2E074
:10288000DF011D928A95E9F785E00E9416150E94E6
:102890000E030C948715DF92EF92FF920F931F9314
:1028A000CF93DF9300D000D00F92CDB7DEB70E9458
:1028B0004D15182F60911003882309F44EC01A8219
:1028C0001982FE01339683E0DF011D928A95E9F7B4
:1028D000862F90E032977F01BF018B5F9C4F0E9453
:1028E0009515DE2C0F2D882301F180910F0390E0C8
:1028F00045E050E0B7018B5F9C4F0E947A3021E0A9
:1029000020938D02892BE1F410E00E941403812FA3
:102910000F900F900F900F900F90DF91CF911F911C
:102920000F91FF90EF90DF90089580918D028823A2
:1029300059F385E0D7011D928A95E9F710928D022F
:10294000A0910F03B0E0AB5FBC4F85E0ED2DF02F01
:1029500001900D928A95E1F7D8CF70E06B5F7C4FC4
:1029600080910F0390E08B5F9C4F0E942B160E947A
:10297000A513CDCFDF92EF92FF920F931F93CF93CA
:10298000DF93CDB7DEB72A970FB6F894DEBF0FBE40
:10299000CDBF1A821982FE01339688E0DF011D92B5
:1029A0008A95E9F7F12C8E010F5F1F4F6F2DC8013B
:1029B0000E94C213F394D02EE12EB5E0FB12F6CFA5
:1029C0004AE050E0B8018BEF92E00E947A308C012F
:1029D00021E0892B09F420E00115110549F08AE076
:1029E000ED2DFE2DABEFB2E001900D928A95E1F74F
:1029F0006091100370E06B5F7C4F45E08BEF92E0DD
:102A00000E94171581E090E0012B11F40E944B14F5
:102A10002A960FB6F894DEBF0FBECDBFDF91CF91DF
:102A20001F910F91FF90EF90DF9008950895FF920E
:102A30000F931F93CF93DF93F82E092F162FD72FC5
:102A4000C42F222349F081E0809390020E947228D3
:102A500090938F0280938E02809190028823A1F040
:102A600080918E0290918F020E949E28059760F0BF
:102A7000EF2DF02FA12FBD2FCF018C0F911DE81747
:102A8000F90741F410929002DF91CF911F910F91BD
:102A9000FF90089521912D93F2CFCF9380919302CF
:102AA000811116C0C8EC0E94E62F81110EC08FE381
:102AB0009CE90197F1F700C00000C150A1F782E046
:102AC000809393020E94E12F03C081E080939302E0
:102AD00081E090919302913009F080E0CF910895C8
:102AE0000C944D150E94701580930401809104018F
:102AF00064E0882349F080E00E945E1B0E944D152F
:102B0000882321F00C94CD1584E0F6CF08950E941F
:102B10004D15811102C00C94CF15089581E090915C
:102B200094029A3008F080E008950F931F93CF939A
:102B3000DF93EC01162F072F809194028A30C0F4A6
:102B4000612F702FCE010E942916C82F811122C03B
:102B5000809194028F3FB9F40E9472289093920260
:102B6000809391028C2FDF91CF911F910F91089547
:102B700080919102909192020E949E28843F914000
:102B8000F8F6C0E0EFCF8F5F809394028A3020F791
:102B9000C1E0E8CF10929402E5CF0C9469250C9423
:102BA0006C25CF92DF92EF92FF920F931F93CF93FA
:102BB000DF93FA0169017801C82F880FDD0B309788
:102BC000B9F08AE08C9FD0018D9FB00D1124AB5FCE
:102BD000BE4F13968D919C9114978B569D4F1296D4
:102BE0004C9150E0E417F50708F4AF010E948730DC
:102BF000CE010E947726892B11F5E114F104E9F04A
:102C00008AE08C9FF0018D9FF00D1124EB5FFE4F49
:102C1000458150E0E416F50608F4A7018AE08C9F90
:102C2000F0018D9FF00D1124EB5FFE4F66817781DF
:102C30006B567D4FC6010E94873081E001C080E065
:102C4000DF91CF911F910F91FF90EF90DF90CF9088
:102C500008950C94AE170C94DB170F931F93CF932A
:102C6000DF93CDB7DEB728970FB6F894DEBF0FBE5F
:102C7000CDBF8091B4029091B502A091B602B091FF
:102C8000B702BC01CD010E94AD2811E06436710588
:102C90008105910520F10E940113DC01CB01029610
:102CA000A11DB11D89839A83AB83BC8310E000E032
:102CB00030E020E044E050E0BE016F5F7F4F82E0F3
:102CC0000E94D115182F882351F00E947E2860930E
:102CD000B4027093B5028093B6029093B702812F2D
:102CE00028960FB6F894DEBF0FBECDBFDF91CF910F
:102CF0001F910F910895AF92BF92CF92DF92EF9202
:102D0000FF920F931F93CF93DF93F82EE92ED62EC9
:102D1000C72E89010E948E15AA24A394B12C882362
:102D200019F08AE0A82EB12CC1E0D0E0F8946D2D06
:102D30007C2D8F2D9E2DF80109957894811104C06A
:102D40002196AC16BD065CF4DF91CF911F910F91D7
:102D5000FF90EF90DF90CF90BF90AF900895CC9F01
:102D60009001CD9F300D300D112490E080E045E3BF
:102D70004A95F1F70000019628173907C1F7D6CF19
:102D8000FF920F931F93CF93DF93CDB7DEB72C97AE
:102D90000FB6F894DEBF0FBECDBF8E010F5F1F4F81
:102DA000C8010E941E20F8848091B8029091B90257
:102DB000A091BA02B091BB02BC01CD010E94AD2826
:102DC00069877A878B879C87B80189859A85AB85C7
:102DD000BC8584369105A105B10510F4FF20A9F04A
:102DE00010E000E030E020E048E050E083E00E94A6
:102DF000D115882369F00E947E286093B8027093F1
:102E0000B9028093BA029093BB020E941B2081E01A
:102E10002C960FB6F894DEBF0FBECDBFDF91CF91D9
:102E20001F910F91FF900895AF92BF92CF92DF92C2
:102E3000EF92FF920F931F93CF93DF93CDB7DEB73F
:102E40002A970FB6F894DEBF0FBECDBF7B01A090CE
:102E5000BE01B090BF0101E010E09E012A5F3F4F2C
:102E600050E040E070E060E080E00E94D115182F53
:102E7000882309F44EC065018FEFC81AD80A8091E3
:102E8000B0029091B102A091B202B091B302BC0124
:102E9000CD010E94AD286F83788789879A87643631
:102EA00071058105910568F105E010E09E012F5F35
:102EB0003F4F50E040E070E060E081E00E94D115BB
:102EC000082F65E070E0C6010E941F2311E09E817B
:102ED000981310E0102341F10E947E286093B00205
:102EE0007093B1028093B2029093B30285E0FE0129
:102EF0003196ABEAB2E001900D928A95E1F711E0CC
:102F000013C065E070E0C6010E941F239E818913F3
:102F1000CBCF85E0F5013196DE01119601900D923F
:102F20008A95E1F71111E2CF85E0EBEAF2E0D701F3
:102F300001900D928A95E1F7812F2A960FB6F894A9
:102F4000DEBF0FBECDBFDF91CF911F910F91FF90DC
:102F5000EF90DF90CF90BF90AF9008950F931F93A5
:102F6000CF93DF93D82FC92F8B0124E137E140ECB9
:102F700051E00E947B168823C1F02DE236E14DEC32
:102F800051E0B8018D2F9C2F0E947B16882369F099
:102F900020EC36E148ED51E0B8018D2F9C2FDF91F8
:102FA000CF911F910F910C947B1680E0DF91CF9110
:102FB0001F910F9108950F931F93CF93DF93FB0100
:102FC000F894C091BE01D091BF01CE01019625E0D9
:102FD000DC0101900D922A95E1F765E070E00E9416
:102FE0001F2388837894F8946E817F8188859985E2
:102FF0000091A7021091A8022091A9023091AA0283
:10300000601771078207930751F06093A7027093CE
:10301000A8028093A9029093AA020E94D8127894E1
:10302000F8948989882331F060E0CE010A960E94E5
:103030006121198A7894DF91CF911F910F910895A2
:103040000E94B92A0E9418100C94C52A0E94C92A0D
:103050000E9424100C94E32A0E94FC270E94A02ABC
:103060000E9406100E9420180E9426180E94141028
:10307000FBCF8091C40280FF12C06091310185E0D6
:10308000689FB001112475956795759567956038AF
:103090007105A8F561157105A1F1862F089581FFCD
:1030A00009C06091310185E0689FB00111247595D8
:1030B0006795EDCF6091310182FD0AC02091C30276
:1030C0002223D1F09091300160913101291728F02D
:1030D00085E0689FB0011124DACF269F900111246A
:1030E00085E0829FA001839F500D1124692F70E01D
:1030F000CA010E940030CBCF65E070E0CECF8FE7F1
:10310000089581E008958091C40280FF0CC0609111
:103110002E0170E075956795759567956115710538
:1031200049F1862F089581FF06C060912E0170E05D
:1031300075956795F3CF60912E0182FD0BC090913C
:10314000C2029923A1F060912D0180912E01961762
:1031500038F0682F70E06038710500F38FE708954C
:10316000899FC001112470E00E940030F4CF61E01B
:1031700070E0D7CF81E00895E3E1E80FE331E0F5B7
:10318000F0E0E651FF4C0C9436300E9439188195DE
:103190008093C80208950E943918FACF0E94391806
:1031A00081958093C70208950E943918FACF0E9432
:1031B00083188093C90208950E9483188195F9CFDE
:1031C0000E94831881958093CA0208950E948318F3
:1031D000FACF815F990B21E030E001C0220F8A9580
:1031E000EAF78091C602822B8093C60208958091EF
:1031F000C40281608093C40208958091C4028260F9
:10320000F9CF8091C4028460F5CF4091C7028D3E12
:1032100059F48091C80287FF0DC01092C802411175
:103220000BC01092C30208C08E3E81F48091C80288
:1032300018169CF3442381F08091C9029091CA0230
:10324000892B09F05AC01092C20208958F3E49F4AA
:1032500047FFF0CF1092C7028091C8028111ECCFD6
:10326000E0CF803F19F41416ACF3E4CF9091C9027B
:10327000893F29F41916F4F61092C902DBCF8A3F70
:1032800019F497FFD7CFF8CF9091CA028B3F29F45A
:1032900097FFD0CF1092CA02CDCF8C3F19F41916E8
:1032A000CCF3C8CF9FE0980F983090F4815F990BD2
:1032B00021E030E0B90102C0660F771F8A95E2F77E
:1032C000CB0180959091C60289238093C602B2CF2C
:1032D0008D3F31F48091C4028E7F8093C402AACFC7
:1032E0008E3F21F48091C4028D7FF7CF8F3F09F08C
:1032F000A1CF8091C4028B7FF0CF08950E947228E5
:103300002091C7023091C802232B21F08093C00284
:103310009093C1022091C9023091CA02232B21F05F
:103320008093BE029093BF0285EC92E00C945327E9
:10333000CF92DF92EF92FF920F931F93CF93DF9381
:1033400000D000D000D0CDB7DEB726E0E5ECF2E04B
:10335000CE010196DC0101900D922A95E1F7C09013
:10336000C702D090C802E090C902F090CA02109241
:10337000C7021092C8021092C9021092CA022C2DE4
:103380002D298C0191F08091C0029091C1020E9480
:103390009E289C018091C302882309F440C090912B
:1033A00032019217130608F448C08E2D8F2991F030
:1033B0008091BE029091BF020E949E289C01809144
:1033C000C202882309F478C090912F019217130646
:1033D00008F480C08091C7029091C802892B909117
:1033E000C902892B9091CA02892B11F00E947E1983
:1033F00086E0F801A5ECB2E001900D928A95E1F724
:1034000026960FB6F894DEBF0FBECDBFDF91CF91E9
:103410001F910F91FF90EF90DF90CF900895409112
:10342000BD029AE0499FA00111244217530708F0FA
:10343000BCCF8F5F8093C30202C08F3FD1F7CC20F7
:1034400059F00E9439189FEF1C140CF491E0899FE9
:10345000802D11248093C702DD2059F00E94391875
:103460009FEF1D140CF491E0899F802D112480930F
:10347000C8023091C702332309F497CF2091C802C4
:10348000222309F492CF45EB3403C0011124992380
:1034900059F09093C70245EB240390011124332384
:1034A00039F03093C80281CF81E08093C702F3CF17
:1034B00081E08093C80279CF4091BC029AE0499F95
:1034C000A00111244217530708F084CF8F5F809327
:1034D000C20202C08F3FD1F7EE2059F00E9483183C
:1034E0009FEF1E140CF491E0899F802D112480938E
:1034F000C902FF2059F00E9483189FEF1F140CF49B
:1035000091E0899F802D11248093CA023091C902D5
:103510002091CA02332309F45DCF222309F45ACF44
:1035200045EB3403C0011124992359F09093C9024B
:1035300045EB240390011124332339F03093CA0260
:1035400049CF81E08093C902F3CF81E08093CA0222
:1035500041CF86E0E5ECF2E0DF011D928A95E9F7C4
:103560001092C3021092C2021092C4020895AF9248
:10357000BF92CF92DF92EF92FF920F931F93CF9360
:10358000DF938B01282F111114C0442329F090E000
:1035900081519D4FFC018491682F782FDF91CF914D
:1035A0001F910F91FF90EF90DF90CF90BF90AF9061
:1035B0000895C12FD0E030E0442329F021513D4F40
:1035C000F901249130E0F6E00F9F70011124EFEF34
:1035D000F0E0C701BF010E94EC2FAB01802F90E00B
:1035E000880F991FA5E5A49FB001A59F700D112418
:1035F000861B970B782F770F780FCF018C1B9D0BB5
:10360000829FD001839FB00D929FB00D11246B2F2C
:10361000719FC0011124892F99278F01081B190B55
:10362000C801829F8001839F100D929F100D11246D
:10363000812F5F01A71AB108AC9E6001AD9ED00C2E
:10364000BC9ED00C1124CD2CDD24EC19FD09E29F89
:10365000E001E39FD00DF29FD00D1124722F433073
:103660005105D1F09CEFE91693E0F90670F4413072
:103670005105B1F042305105B9F0EFEFEE16F1040B
:1036800008F08CCF8B2F6D2F89CF4430510579F006
:1036900046305105B9F382CF612F822F7B2F7ECF29
:1036A000622F712F8B2F7ACF8D2F622FF7CF822F22
:1036B0007D2F74CF41E00C94B71A0895E6E3F1E052
:1036C0008083618308950C945A1BCF93DF93982FC6
:1036D000762F842FE901692F0E94631B7983688309
:1036E0008A83DF91CF91089580911203982F9E7F56
:1036F00029F4817082608093120308958A34E8F37C
:1037000081708864F8CF88E090E00C9498300F9333
:103710001F93CF93DF938B01D82FC92F0E94741B67
:10372000A8016D2F7C2F88E090E0DF91CF911F9151
:103730000F910C94B630E2E1F3E083E080831182D4
:103740008FEF828383831482E8EDF2E082818360CD
:10375000828363E070E08FEF9FEF0C94871B809172
:10376000120380FF02C08695089580E00895CF93EC
:10377000DF9300D000D0CDB7DEB790911603933021
:1037800018F49F5F909316038823B1F08091120381
:1037900090911303A0911403B091150389839A8328
:1037A000AB83BC83BC01CD010F900F900F900F90A5
:1037B000DF91CF910C94871B0F900F900F900F907B
:1037C000DF91CF91089581E00C94B71BCF93DF93E5
:1037D00000D000D0CDB7DEB790911603992319F031
:1037E0009150909316038823B1F080911203909129
:1037F0001303A0911403B091150389839A83AB83BB
:10380000BC83BC01CD010F900F900F900F90DF9102
:10381000CF910C94871B0F900F900F900F90DF911A
:10382000CF91089581E00C94E61B70E00C94F02297
:10383000609137018091120380FF0AC080913601A8
:1038400023E0829FC0011124895E9C4F0C94151CBB
:10385000809138019091390123E0829FF001112479
:10386000E95EFC4F891750F71182108212828F5F38
:103870003396F8CF9091120390FF14C090913801C5
:103880002091390133E0939FF0011124E95EFC4F50
:10389000921710F00C94181C8183608342839F5F01
:1038A0003396F6CF0895CF93DF9300D00F92CDB724
:1038B000DEB79091120390FF0FC09E012F5F3F4F24
:1038C0000E94651B4B8169818A810F900F900F9038
:1038D000DF91CF910C943A1C0F900F900F90DF91D5
:1038E000CF910895CF93DF93EC01EC81F0E0E651A6
:1038F000FE4F4491E2E1F3E0628181810E94531C1A
:103900008C818F5F8C83DF91CF910895CF93DF936C
:10391000EC01E2E1F3E0438162818C810E94531C5F
:103920008C818F5F8C83DF91CF9108950F931F93CC
:10393000CF93DF9300D00F92CDB7DEB78C0180918B
:10394000CB0281110AC09E012F5F3F4F4FEF6FEFF7
:103950000E94651B8A818093CB02F80164816130EB
:1039600049F06230F1F08091CB0240E0662331F003
:1039700040E019C06091CB0240E080E00E943A1C18
:10398000F801848190E0019663E070E00E940030CD
:1039900084830F900F900F90DF91CF911F910F9123
:1039A00008954091CB0280E060E0E8CFAF92BF92F3
:1039B000CF92DF92EF92FF920F931F93CF93DF93FB
:1039C00000D000D000D00F92CDB7DEB7182FF62E62
:1039D000042FD22E9091120390FF96C0E92FE69506
:1039E000AE2FB0E0AF51BE4F8C918093D8029E7F36
:1039F000923009F045C09E012F5F3F4F812F0E94FA
:103A0000651B4B8169818A810E943A1C8091130356
:103A1000811308C0809114038F1104C08091150395
:103A2000801729F08091DA0282608093DA02109385
:103A30001303F092140300931503DD2009F464C00E
:103A40008091120390911303A0911403B091150378
:103A50008C839D83AE83BF83BC01CD0127960FB6B7
:103A6000F894DEBF0FBECDBFDF91CF911F910F91B4
:103A7000FF90EF90DF90CF90BF90AF900C94871B9A
:103A8000823019F400911503C1CF863019F41091DA
:103A90001303BCCF8930D9F3893109F0B7CFE9518D
:103AA0008E2F8170C82EE695F0E0E651FD4FA5906F
:103AB000B490E12CBB2460913A01E61618F00E9404
:103AC000181CA4CF2E2D30E0EA9CC001EB9C900D79
:103AD000112470E00E94EC2F812FC11013C0860FBB
:103AE00090913801A901490F511D9A01220F331FEE
:103AF000240F351F295E3C4F402F6F2D0E94651B00
:103B0000E394D9CF861BECCF27960FB6F894DEBF8F
:103B10000FBECDBFDF91CF911F910F91FF90EF901E
:103B2000DF90CF90BF90AF900895282FE2E1F3E0AF
:103B3000818143816281885F0C94D61C81E00C9462
:103B4000951D282FE2E1F3E0818143816281885055
:103B50000C94D61C81E00C94A11D282FE2E1F3E027
:103B6000628131E1630F08F46FEF438181810C942E
:103B7000D61C81E00C94AD1D282FE2E1F3E06281B8
:103B800031E1631B08F460E0438181810C94D61C11
:103B900081E00C94BC1D282FE2E1F3E0438131E188
:103BA000430F08F44FEF628181810C94D61C81E0B1
:103BB0000C94CB1D282FE2E1F3E0438131E1431B5C
:103BC00008F440E0628181810C94D61C81E00C9461
:103BD000DA1D20E00C94D61CEF92FF921F93CF9336
:103BE000DF93EC0110E0EE24EA94F12C60913A01AD
:103BF000161770F00E94181C9A818C8190FF25C0C6
:103C00008F5F8C83DF91CF911F91FF90EF9008958C
:103C100080913801810F9927991F9C01220F331F32
:103C2000280F391F295E3C4F70E0C7010E94003009
:103C3000962F8C814091150360911403199F800D7C
:103C400011240E94651B1F5FD1CF8150DACF9F9254
:103C5000AF92BF92CF92DF92EF92FF920F931F939A
:103C6000CF93DF93EC018A81BB24BA9480FD02C01C
:103C7000BB24B3948C8181110AC091E0B91203C0B6
:103C800080913A0181508093CD0281E08C83A12CF8
:103C900080913A01A816F0F00E94181C9091CD0274
:103CA00081E0B81258C080913A018150992319F0EF
:103CB0008FEF890F91E08093CD029C83DF91CF91AC
:103CC0001F910F91FF90EF90DF90CF90BF90AF903A
:103CD0009F90089580913801CA2CD12C8C0D9D2D78
:103CE000911D8C01000F111F080F191F095E1C4F39
:103CF000F80111821082128234E0E32EF12C912C13
:103D00008091CD02890D893004F18770082E000C56
:103D1000990BC816D90691F4809115038E9DA001C8
:103D20008F9D500D112455954795559547959801B0
:103D300060911403809113030E94651B9B0CF1E0BA
:103D4000EF1AF108E9F6A394A3CF87FFDFCF909194
:103D50003A01890FDBCF892F90E0019660913A01FB
:103D600070E00E940030982FA6CF0F931F93CF933F
:103D7000DF93EC018C81811109C081E08C8310926A
:103D8000CC0292E090933501809334018091380108
:103D90009091390123E0829FF0011124E95EFC4FEC
:103DA000891758F110E003E060913A01161758F1B5
:103DB0000E94181C809134012091CC02280F20937E
:103DC000CC0290913501980F90933501191654F457
:103DD000022E000C330B40913A014150550B241731
:103DE000350734F0819580933401813009F41C82C9
:103DF000DF91CF911F910F9108951182108212824D
:103E00008F5F3396CDCFE12FF0E070E0CF010E94BD
:103E1000003020913801280F422F50E08091CC02D1
:103E2000082E000C990BE817F907BCF080913501BA
:103E3000082E000C990B8E179F077CF0209F900195
:103E40001124295E3C4F4091150360911403809129
:103E500013030E94651B1F5FA7CFFA01EE0FFF1F20
:103E6000E40FF51FE95EFC4F118210821282F3CF3E
:103E7000EF92FF920F931F93CF93DF93CDB7DEB7EF
:103E80002E970FB6F894DEBF0FBECDBF8D879E87ED
:103E9000AD85BE8514961C91212F30E0D9010E947A
:103EA00044309B01AC010E945A3069837A838B8332
:103EB0009C83E0E2F0E0E11BF109A5E5B0E09B01A5
:103EC000AC010E945A3069877A878B879C879F0153
:103ED000DF010E943C309B01AC010E9465306D8384
:103EE0007E838F8398879B01AC0189819A81AB8106
:103EF000BC81280F391F4A1F5B1F69857A858B8516
:103F00009C850E941430F22E422F50E099E29F15BA
:103F100088F1A3E02A9F9001112435952795122F4F
:103F2000109500E085E5E82EEF1880913A0108171A
:103F300078F10E94181CED85FE85948181E099231B
:103F400019F0903219F48FEF80933301809133018F
:103F5000890FAD85BE8514968C932E960FB6F89476
:103F6000DEBF0FBECDBFDF91CF911F910F91FF90AC
:103F7000EF90089585E590E0841B950B9C01220F3E
:103F8000331F280F391F37FFC8CF2F5F3F4FC5CFD3
:103F90008E2D01FD8F2D40913801400F5527551F63
:103FA0009A01220F331F240F351F295E3C4F412FEA
:103FB000609114030E94651B0F5FB7CF0F931F938F
:103FC000CF93DF93EC0110E000E090913A0190175D
:103FD000110609F06CF40E94181C8C8190E0019687
:103FE000817099278C83DF91CF911F910F91089554
:103FF00080913801A801480F511D9A01220F331FEB
:10400000240F351F295E3C4F4C8160911403809131
:10401000130396959017110651F04CF0442349F084
:10402000409115030E94651B0F5F1F4FCECF4423A5
:10403000B9F340E0F7CF1092DA020895CF93DF93FF
:10404000EC0185E0E2E1F3E0DE0101900D928A955A
:10405000E1F78091D8029091D902A091DA028D8384
:104060009E83AF83DF91CF910895E8EDF2E0118256
:104070008281846082830895E2E1F3E080818E7F13
:1040800080830E943520E8EDF2E0828181608283A6
:104090002FEF80E792E0215080409040E1F700C090
:1040A00000000C94181CCF93DF9300D000D0CDB744
:1040B000DEB7E2E1F3E080818E7F808380819181B1
:1040C000A281B38189839A83AB83BC83BC01CD0178
:1040D0000E94871B0E943520E8EDF2E0828181601A
:1040E00082839FEFA0E7B2E09150A040B040E1F79B
:1040F00000C000000F900F900F900F90DF91CF91B4
:104100000C94181C60911203669570E04BE050E02F
:104110008BE391E00E946D30892B19F481E080934C
:10412000D9020E9432139093D2028093D1028091DF
:10413000DA0284608093DA020895CF93DF9300D08F
:1041400000D0CDB7DEB79091120390FF4BC088230B
:1041500009F441C0853208F040C08F77880F9091F4
:1041600012039170892B809312038091DA0281608F
:104170008093DA02662381F08091120390911303F9
:10418000A0911403B091150389839A83AB83BC83F8
:10419000BC01CD010E94871B60911203669570E0FF
:1041A0004BE050E08BE391E00E946D30892BB9F039
:1041B0000E94352081E08093D402409115036091E4
:1041C0001403809113030F900F900F900F90DF91C5
:1041D000CF910C94E91D81E0C1CF84E2BFCF0E9452
:1041E0008220E8CF0F900F900F900F90DF91CF912A
:1041F0000895682F8091120386958F5F853208F0AD
:1042000081E00C949D2081E00C94F920682F90911E
:10421000120396958FEF890F913009F484E20C9484
:104220009D2081E00C94062161E00C949D20E2E148
:10423000F3E080818160808386950C9414218091C5
:10424000120380FD0C9453200C94172160E00C9411
:104250009D208091D702811133C00E94390F8111B6
:1042600004C00E94DE0F0E949B1B0E94831B609370
:10427000120370931303809314039093150380919A
:10428000DA0283608093DA026E7F61F40E949B1BE6
:104290000E94831B60931203709313038093140393
:1042A000909315030E94741B0E9435208091120385
:1042B00080FF03C086950E94262181E08093D7026B
:1042C00008951F93CF93DF93EC01162F8F8180FF0A
:1042D0000CC0888180FF24C080911203816080938C
:1042E0001203888186950E949D208F8181FF06C0E0
:1042F000212F4B816A8189810E94D61C8F8182FF88
:1043000005C08E81882379F00E9482208F8183FFEF
:1043100003C081E08093D402DF91CF911F91089573
:104320000E943C20E2CF0E943520F0CFEF92FF9216
:104330000F931F93CF93DF938091D902882309F4C1
:1043400063C08091D802E0911203E695E81BE093E8
:10435000D302823009F05FC0F0E0EA51FE4FE491F1
:10436000CE2FD0E002E71CE18091D402882361F0D7
:104370001092D4020E9432139093D2028093D10201
:104380001092D6021092D5020E9432139C018091A5
:10439000D1029091D202A901481B590B4F3F5F47B0
:1043A00098F54091D0024423B1F01092D002409190
:1043B000CE025091CF02241B350B2F3F3F4758F4BC
:1043C000405D5A485093CF024093CE022091DA02CA
:1043D00028602093DA02E090D502F090D6028C0F8C
:1043E0009D1F9093D2028093D10281ED92E0F8015B
:1043F00009958091D5029091D602892B29F4EF2856
:1044000019F081E08093D002DF91CF911F910F913D
:10441000FF90EF900895853109F43BC058F489303E
:1044200021F18F3061F18630B9F0C0EDD7E00DE5B4
:104430001BE19ACF833209F435C0C4EFD1E00EED11
:104440001FE1843209F490CFC8E2D0E008E31FE115
:10445000883109F489CFE9CFF0E0ED51FE4FE491C6
:10446000CE2FD0E006E81CE17FCFE695F0E0E052E9
:10447000FE4FE491CE2FD0E00CEE1DE175CFE69516
:10448000F0E0E352FE4FE491CE2FD0E007E21EE1D0
:104490006BCFF0E0E652FE4FE491CE2FD0E005EB7B
:1044A0001EE162CFE8EDF1E0C591D49106E91CE18F
:1044B0005BCFFA0181110994FB01FDCFCF93DF930C
:1044C000C82FD62F0E94AF1B8C1740F00E94AF1B45
:1044D0008D1720F4DF91CF910C9403218C2FDF9165
:1044E000CF910C9414211F93CF93DF93EC01FB0128
:1044F000128111111BC00E94550E8272C73DFCE54E
:10450000DF0778F4C33C9CE5D90708F467C0FE01D7
:10451000E45CFC45E331F10570F4E350FF4C0C948E
:10452000363011E0CE35DD4509F410E0812FDF9102
:10453000CF911F9108950E941F21F8CF41E151E2D0
:1045400063E071E20E945922F1CF43E051E261E160
:1045500071E2F8CF4AEA5DE16EE97DE1F3CF4EE921
:104560005DE16AEA7DE1EECF48EC5DE169EB7DE17A
:10457000E9CF49EB5DE168EC7DE1E4CF46EE5DE13A
:1045800067ED7DE1DFCF47ED5DE166EE7DE1DACFFE
:1045900042E15CE163EE7BE1D5CF43EE5BE162E1BA
:1045A0007CE1D0CF81E00E941421C0CF65E082E0A1
:1045B0000E945E22BBCF68E086E0FACF6EE089E021
:1045C000F7CF64E18FE0F4CF67E185E1F1CF88E1D7
:1045D000EACF62E289E1ECCF83E2E5CF11E0A6CF3A
:1045E0009C01AB01539A6BB1677F7BB17860EFB7E9
:1045F000F894CA01880F991F840F951F820F931F8B
:104600008217930741F4EFBF8FE594E00197F1F72C
:1046100000C000000895D9014D919D0158E07BB97B
:10462000000000C047FF6BB9440F000000C000C08D
:1046300000C06BB900C05A9591F7E2CF0895FC0114
:10464000680F791F8FEF91E36E177F0709F40895C4
:104650002191822728E030E087FF06C0880F892754
:1046600021503109C9F7F0CF880FFACFCF93DF93EC
:10467000EC01FB018281882309F4DFC0C430FDE531
:10468000DF0710F5CB3F9CE5D90730F49E0122509F
:104690003C4524313105E0F40E944C0F9093FA021E
:1046A0008093F902C631FCE5DF0710F5C2308CE5D6
:1046B000D80788F48091F9029091FA020E945A0F6B
:1046C0000E94C30780E004C0C236EDE5DE0721F397
:1046D000DF91CF910895FE01E350FC458091F902EE
:1046E0008160E331F10518F5E05FFE4C0C94363043
:1046F000C4309DE5D90770F4CB3FECE5DE07D0F27E
:10470000FE01EC5FFC45E830F105E0F4ED5DFE4CA8
:104710000C943630C236DD4569F69091F902892F46
:104720008F7E94FF806103C08091F9028260809344
:10473000F902C0CF8091F9028460F9CF8091F9022B
:104740008860F5CF8091FA0281608093FA02B2CF3F
:104750008091FA028260F9CF8091F9028061E7CFFF
:104760008091F9028062E3CF8091F9028064DFCF0B
:104770000E94C3078091F9028068D9CF8091F90225
:104780008C60D5CF8091FA028360DFCF8091F902EF
:104790008E7FCDCF8091F9028D7FC9CF8091F902B4
:1047A0008B7FC5CF8091F902877FC1CF8091FA02BC
:1047B0008E7FCBCF8091FA028D7FC7CF8091F90297
:1047C0008F7EB5CF8091F9028F7DB1CF8091F902B4
:1047D0008F7BADCF0E94C3078091F9028F77A7CF5F
:1047E0008091F902837FA3CF8091FA028C7FADCFB5
:1047F0008091F90282FB992790F921E0922790FBA2
:1048000082F990FB83F993CF8091FA02982F9095CB
:1048100091708E7F892B90FB81F997CF0E94C307FF
:104820009091F902892F97FB87F9805880CF81E01A
:104830000E94E00F3FCF80E0FBCF81E049CFCF93D4
:10484000DF93EB0186319C4511F50E94550E9A814C
:10485000992399F08A7A91E009F490E09093DB0231
:10486000811109C089E20E94300E0E94A80E80E0EA
:10487000DF91CF91089585E3F6CF8091DB0281111E
:1048800004C089E20E94370EF0CF85E3FBCF81E0C0
:10489000EFCF0F931F93CF93DF93C42FD22FFC0141
:1048A00082818823C9F04093DE020E94722890938F
:1048B000DD028093DC0280E28C0F883008F050C06B
:1048C000C77081E001C0880FCA95EAF7DF91CF91E8
:1048D0001F910F910C94EA041091DE02141335C05D
:1048E0008091DC029091DD020E949E28883C910517
:1048F00060F5C0E2CD0F1D17B9F080E2810F88305E
:1049000040F4177081E001C0880F1A95EAF70E9401
:10491000F104C83048F481E09D2F977001C0880FE2
:104920009A95EAF70E94EA04802F0E94E204C830B8
:10493000B8F4D77081E001C0880FDA95EAF7DF910B
:10494000CF911F910F910C94F10480E28C0F88306D
:1049500038F4C77081E001C0880FCA95EAF7EFCF3D
:10496000DF91CF911F910F9108950F939C01CB017F
:10497000243F4CE53407A1F190F4293DFCE53F07C5
:1049800049F12A3D4CE53407E9F1283D3C45C1F0A9
:10499000FC0182818823E1F11092DE0219C0263FDA
:1049A000FCE53F0719F1273F4CE5340729F1253F86
:1049B0003C4571F707E225EE44EE65EF7CE505C066
:1049C00006E221EE41EE68ED7CE50E94492480E09C
:1049D0000F91089507E225EE45EE69ED7CE5F5CFF0
:1049E00006E221EE40EE64EF7CE5EFCF06E221EE39
:1049F00042EE66EF7CE5E9CF07E225EE46EE67EF93
:104A00007CE5E3CF08E221E045EE6AED7CE5DDCF11
:104A100081E0DECF8EE1489B02C08150E1F7489BE8
:104A2000FECF0895589880E28A95F1F7589A089534
:104A3000FC013BE03A95F1F798E020E080E031E0BE
:104A400040E14A95F1F7880F489B02C08160232717
:104A500042E04A95F1F7000040E14A95F1F79150A4
:104A600079F790E19A95F1F799B132E03A95F1F73B
:104A7000000040E14A95F1F7917092272081920F52
:104A800090830895EF92FF920F931F93CF93DF933C
:104A90000F92CDB7DEB719828C017C01E60EF11CB6
:104AA0000E151F0561F481E09981911180E00F904E
:104AB000DF91CF911F910F91FF90EF9008950E9489
:104AC0000A25CE0101960E941825F80181938F01D5
:104AD000E7CF509A589A08955098589AE89AE9E67C
:104AE000F0E080818C7F808308956150770B91E0A6
:104AF00001C0990F6A95EAF720E031E0911108C0F2
:104B0000222391F0589A80E28A95F1F758980895F7
:104B1000492F482339F0589A232740E24A95F1F764
:104B20009695ECCF5898F9CF5898EDCFFF920F9308
:104B30001F93CF93DF93EC018C01060F111DC0175B
:104B4000D10731F4DF91CF911F910F91FF9008951C
:104B5000F9900E94122568E08F2D0E947525EFCFF5
:104B60001F920F920FB60F921124EF92FF920F93A4
:104B70001F932F933F934F935F936F937F938F93E5
:104B80009F93AF93BF93EF93FF93CF93DF930F92D6
:104B9000CDB7DEB719820E940A25CE0101960E9488
:104BA0001825282FA82FA695A695A695982F9295FB
:104BB00095708A2F8570980F892F8370969596959A
:104BC000890F822787709981892B09F075C0A530DC
:104BD00008F072C080E18A95F1F7589A509AB2E0D5
:104BE000BA95F1F700C0EA2EF12C5898EAE0AE9F92
:104BF000D0011124AB5FBE4F1896ED91FC9119972F
:104C00003097B1F06091BE017091BF0116962D9161
:104C10003C911797260F371F13968D919C911497EF
:104C2000680F791F15964C91159712968C910995DE
:104C30008AE08E9DF0018F9DF00D1124EB5FFE4FF9
:104C40006581662351F02091BE013091BF018681BC
:104C50009781820F931F0E9496250E941225F0E1F2
:104C6000FA95F1F758985098589A80E18A95F1F79B
:104C70008AE08E9D80018F9D100D11240B5F1E4FC9
:104C8000D80112966C911297662371F12091BE01A2
:104C90003091BF0113968D919C91820F931F0E94BA
:104CA0004225D801ED91FC91882311F088E001C0E4
:104CB00082E080830E940A250F90DF91CF91FF91BF
:104CC000EF91BF91AF919F918F917F916F915F9184
:104CD0004F913F912F911F910F91FF90EF900F9067
:104CE0000FBE0F901F901895ED91FC91DFCF0F93A1
:104CF0001F93CF93DF93EC0105970CF0A9C08AE0D6
:104D00008C9FF0018D9FF00D1124EB5FFE4F808191
:104D10009181892B09F49CC0F894509A589885E0A9
:104D20008A95F1F700008C2F869585709C2F9570E1
:104D3000890F982F937086958695890F8E0193E041
:104D4000000F111F9A95E1F7082B0E94122500C051
:104D500068E0802F0E947525A0E1AA95F1F7509890
:104D6000589A489B27C087E090E0489925C08AE080
:104D70008C9F80018D9F100D11240B5F1E4FF80139
:104D800065816623A1F12091BE013091BF0186812A
:104D90009781820F931F0E944225811128C0509A4B
:104DA000589AD801ED91FC9182E08083789482E05A
:104DB00090E016C000C0D5CF0197B9F4509A589A28
:104DC0008AE08C9FF0018D9FF00D1124EB5FFE4F68
:104DD0000190F081E02D81E08083789481E090E083
:104DE000DF91CF911F910F91089500C0BECF0E9417
:104DF0000A25B0E2BA95F1F75898509AE0E1EA95A1
:104E0000F1F78AE08C9FF0018D9FF00D1124EB5F8C
:104E1000FE4F6281662351F02091BE013091BF01A7
:104E200083819481820F931F0E9496250E941225F0
:104E30008AE08C9FF0018D9FF00D1124EB5FFE4FF7
:104E40000190F081E02D1082789490E080E0C8CF4E
:104E500084E090E0C5CF9093070280930602089506
:104E60009093E5028093E40208950E944D1581110C
:104E700003C08091DF020895E091E402F091E50221
:104E8000309721F00190F081E02D099480E00895A1
:104E9000E091E402F091E502309721F00280F38185
:104EA000E02D09940895DC01E091E402F091E5021F
:104EB000309739F082E08C930480F581E02DCD01AC
:104EC000099408952091E2023091E30228173907EE
:104ED00071F09093E3028093E202E091E402F0919A
:104EE000E502309721F00680F781E02D09940895BE
:104EF0002091E0023091E1022817390771F0909378
:104F0000E1028093E002E091E402F091E502309743
:104F100021F00084F185E02D09940895AC019C01F5
:104F20002E5F3F4F485F5F4F80E02417350709F43D
:104F30000895F90191919F019923B9F38F5FF5CFFE
:104F40009C01662351F0FC013296285F3F4F81910E
:104F5000861729F0E217F307D1F780E0089581E082
:104F600008959C01FC0132968FEF90E04191461725
:104F700051F08F3F19F4411101C0892F9F5F963086
:104F8000A9F78F3F09F40895280F311D87FD3A9541
:104F9000F901628308959C01FC013296285F3F4F1E
:104FA0008191861303C0DF0111971C92E217F3076A
:104FB000B9F708950C94B1270C94CB27FC013296D5
:104FC00086E0DF011D928A95E9F7089508950C9413
:104FD000E6278F5F8093E6020C94E72783E08093B7
:104FE000E6020C94E7270C94E92781E08093E6021F
:104FF0000C94E7270C94F5270895809137038430AB
:1050000031F10E9416031092E70288E190E020E45B
:105010000FB6F894A895809360000FBE20936000AF
:1050200083B7817F846083BF83B7816083BF7894B7
:10503000889583B78E7F83BF0FB6F894A89580912B
:105040006000886180936000109260000FBE089538
:1050500008950895CF930E9428280E94BA140E94B0
:105060002928C0E08C2F0E947C13811105C0CF5FDE
:10507000CA30C1F7CF91089581E0FCCF0E94C307E9
:105080000C9484031F921FB61F9211248F939F9339
:10509000AF93BF938091E702811113C080912F03DA
:1050A00090913003A0913103B09132034196A11D3C
:1050B000B11D80932F0390933003A0933103B093DD
:1050C0003203BF91AF919F918F911F901FBE1F9090
:1050D000189582E084BD93E095BD9AEF97BD8093CB
:1050E0006E0008952FB7F89480912F0390913003AC
:1050F000A0913103B09132032FBF0895CF93DF9376
:1051000000D000D0CDB7DEB78FB7F89420912F0331
:1051100030913003409131035091320329833A8317
:105120004B835C838FBF69817A818B819C810F90D7
:105130000F900F900F90DF91CF9108959C014FB782
:10514000F89480912F0390913003A0913103B09196
:1051500032034FBF821B930B08950F931F93CF937E
:10516000DF9300D000D0CDB7DEB7462F572FBC015C
:105170002FB7F89480912F0390913003A0913103C1
:10518000B09132032FBF8C019D01041B150B260B20
:10519000370BC901B8010F900F900F900F90DF915E
:1051A000CF911F910F91089578941F921FB61F926F
:1051B00011248F939F93AF93BF9380912F0390916E
:1051C0003003A0913103B09132030196A11DB11DAE
:1051D00080932F0390933003A0933103B093320355
:1051E000BF91AF919F918F911F901FBE1F901895F7
:1051F000F89481E08093E00080E28093D800E9ECAD
:10520000F0E010828FE19EE40197F1F700C000000A
:105210001DBA109268001CBC10BE1FBA10927A0012
:1052200010926E0010926F00109271001092720036
:105230001082ECEBF0E0108214B817B81AB81DB861
:1052400010BA108215B818B81BB81EB811BA0C9451
:10525000003F08958091F3020895089522E020937D
:10526000E9002FEF3091E800215035FD06C035ED03
:105270003A95F1F700002111F5CF2091E80025FFC4
:105280000BC050E040E066E070E00E94562B809139
:10529000E8008E778093E8000895CF93DF93D82FAE
:1052A000C92F81E08093E9008FEF9091E800815051
:1052B00095FD06C095ED9A95F1F700008111F5CFA7
:1052C0008091E80085FF16C050E040E068E070E0A3
:1052D0008D2F9C2F0E94562B8091E8008E77809313
:1052E000E80088E0ED2FFC2FABEEB2E001900D92CC
:1052F0008A95E1F7DF91CF9108958093E80270934A
:10530000EA026093E90280913703843001F582E07C
:105310008093E9008FEF9091E800815095FD06C0E1
:1053200095ED9A95F1F700008111F5CF8091E80095
:1053300085FF0DC050E040E063E070E088EE92E051
:105340000E94562B8091E8008E778093E8000895A4
:10535000BC0184E00C947D29BC0183E00C947D2980
:1053600080913603811109C00E94DE2C0E943B2DE2
:105370008091E20084608093E200089510923603E9
:1053800008950C94F5276091330381E0611101C009
:1053900080E00C94EE279091370381E0943009F07F
:1053A00080E0609133030C94F32742E061EC81E0EC
:1053B0000E945A2C42E261EC82E00E945A2C9091A9
:1053C000370381E0943009F080E0609133030C945E
:1053D000E92780913903893089F148F4823009F452
:1053E0009EC0833009F459C0813041F008958A305D
:1053F00009F485C08B3009F46BC00895809138039F
:10540000813A09F049C08091E800877F8093E800E5
:1054100080913C0390913D03892B61F468E08BEE11
:1054200092E070E00E94A52B8091E8008B7780933A
:10543000E800089560E090E080E0F3CF80913803C9
:10544000813251F580913C0390913D03029720F504
:105450008091E800877F8093E8008091E80082FFD8
:1054600017C09091F3008091F200029731F480917F
:10547000F100813011F0863021F48091F1008093A9
:10548000F3028091E8008B778093E8000C948E2CD7
:10549000809137038111E1CF089580913803813ADB
:1054A000D9F780913C0390913D03892BA9F7809116
:1054B000E800877F8093E8008091E80080FFFCCFC0
:1054C000809152018093F1008091E8008E77DCCFCB
:1054D00080913803813201F780913C0390913D0324
:1054E000892BD1F68091E800877F8093E8000E94A5
:1054F0008E2C80913A03809352010C94C3078091C3
:105500003803813249F68091E800877F8093E80074
:105510000E948E2C80913B038093F4020895809129
:105520003803813A09F0B8CF8091E800877F8093F3
:10553000E8008091E80080FFFCCF8091F402C2CFA8
:1055400084B7877F84BF0FB6F894A89580916000D8
:10555000886180936000109260000FBE80E890E048
:105560000FB6F89480936100909361000FBE0C9485
:10557000FA270E94DE2C0E943B2DE2EEF0E08081B3
:105580008460808378940C94C72F86E491E00C9417
:105590003027809137038530A9F480913703853017
:1055A00011F00C943E280E94FD278091350388233A
:1055B000A1F30E942A28882381F30E94402B0E9495
:1055C000C307EBCF089508950C94E62AFC01CB01A4
:1055D000DA012F2F332723303105D1F070F4213039
:1055E000310509F43EC02230310569F48BE390E0C7
:1055F0002DE234E02D933C93089521323105E9F0FA
:105600002232310521F190E080E030E020E0F2CF5D
:10561000CF019927E13059F08230910559F0E9E244
:10562000F4E0892B81F7849190E09F01E3CFE9E1D9
:10563000F4E0F9CFEFEEF3E0F6CF892BB9F061306B
:10564000710509F789E090E028E534E0D3CF892B94
:1056500091F061307105B9F68BE790E02AE734E00C
:10566000C9CF82E190E028E634E0C4CF89E090E041
:105670002FE334E0BFCF80E490E025EF34E0BACFF1
:1056800080E189BD82E189BD09B400FEFDCF809132
:10569000D8008F7D8093D8008091E0008260809355
:1056A000E0008091E00081FDFCCF0895AF92BF92B1
:1056B000CF92DF92FF920F931F93CF93DF936C01F2
:1056C000EB018A010E94AD2CF82E811123C0011537
:1056D000110539F0F80180819181C81BD90BC80EE2
:1056E000D91EB12CA12C2097A9F08091E80085FD4E
:1056F00022C08091E8008E778093E80001151105A3
:10570000A1F0F801808191818A0D9B1D9183808396
:1057100085E0F82E8F2DDF91CF911F910F91FF9093
:10572000DF90CF90BF90AF9008950E94AD2C88235A
:10573000D1F2F82EEFCFF60181916F018093F10045
:105740002197FFEFAF1ABF0ACECFFC01CB0120910A
:105750003E0330913F032617370790F0009729F456
:105760002091E8002E772093E80040E0009751F464
:10577000411108C08091E80082FF31C080E00895A7
:10578000C901F3CF209137032223A9F12530A9F1D4
:105790002091E80023FD2DC02091E80022FDEACFF2
:1057A0002091E80020FFE2CF3091F3002091F20039
:1057B000009719F02830310558F041E028303105C4
:1057C00009F040E02091E8002E772093E800CECF4A
:1057D00041914093F10001972F5F3F4FE9CF8091B6
:1057E0003703882341F0853041F08091E80083FF42
:1057F000C1CF81E0089582E0089583E00895FC011F
:10580000CB0120913E0330913F032617370790F0DC
:10581000009729F42091E8002E772093E80040E0DB
:10582000009751F4411108C08091E80082FF32C016
:1058300080E00895C901F3CF209137032223B1F10D
:105840002530B1F12091E80023FD2EC02091E80021
:1058500022FDEACF2091E80020FFE2CF3091F30053
:105860002091F200009719F02830310558F041E0FE
:105870002830310509F040E02091E8002E77209390
:10588000E800CECF44914093F100319601972F5F0D
:105890003F4FE8CF80913703882341F0853041F0B6
:1058A0008091E80083FFC0CF81E0089582E00895F1
:1058B00083E00895982F973028F08F708093E90047
:1058C00081E008959093E900242F762F50E09817F7
:1058D00031F07091EC002091ED005091F00021FD2D
:1058E00002C09F5FE8CF3091EB003E7F3093EB002A
:1058F0003091ED003D7F3093ED003091EB00316051
:105900003093EB007093EC002093ED005093F00087
:105910002091EE0027FDE5CF80E0089580913803C7
:1059200087FF13C08091E80082FF06C08091E800E5
:105930008B778093E80004C0809137038111F2CF08
:105940000895809137038823D9F38091E80080FF80
:10595000F8CF8091E8008E77ECCF2091E400309171
:10596000E50095E6A9012091EC00822F817020FFCF
:1059700006C08091E80080FF06C080E00895209175
:10598000E80022FD1AC080913703882389F0853012
:1059900089F08091EB0085FD0FC02091E4003091EB
:1059A000E50042175307F9F29150E1F684E00895BB
:1059B00082E0089583E0089581E008950E944C2DCF
:1059C0000E94542DE0EEF0E0808181608083E8ED5C
:1059D000F0E080818F77808319BCA7EDB0E08C91D7
:1059E0008E7F8C9380818F7E808310923603089502
:1059F0000F931F93CF93DF930E944C2D0E94542D41
:105A0000C8EDD0E088818F7788838881806888831B
:105A100088818F7D888319BC1092370310923303DD
:105A2000109235031092340300EE10E0F8018081EB
:105A30008B7F808388818160888342E060E080E0A2
:105A40000E945A2CE1EEF0E080818E7F8083E2EEAE
:105A5000F0E0808181608083808188608083F801AC
:105A600080818E7F8083888180618883DF91CF9160
:105A70001F910F910895E8EDF0E080818F7E808383
:105A8000E7EDF0E080818160808384E082BF81E087
:105A9000809336030C94F82CE8EDF0E080818E7F43
:105AA00080831092E20008951092DA001092E100D3
:105AB00008951F920F920FB60F9211242F933F93C8
:105AC0004F935F936F937F938F939F93AF93BF9306
:105AD000EF93FF938091E10082FF0BC08091E20081
