:100000000C949B020C94C8250C94B8020C94B80272
:100010000C94B8020C94B8020C94B8020C94B80278
:100020000C94B8020C94B8020C94712D0C94442ECC
:100030000C945A280C94B8020C94B8020C94B80290
:100040000C94B8020C94B8020C94B8020C94B80248
:100050000C94B8020C94EC280C94B8020C94B802DE
:100060000C94B8020C94B8020C94B8020C94B80228
:100070000C94B8020C94B8020C94B8020C94B80218
:100080000C94B8020C94B8020C94B8020C94B80208
:100090000C94B8020C94B8020C94B8020C94B802F8
:1000A0000C94B8020C94B8020C94B802130012001D
:1000B0000C0018001D0033000F000E000D000B0097
:1000C0003400370036001000110000002E002D0013
:1000D00028622A4200004D0049004C00E200140052
:1000E0001A00080015001700040016000700090098
:1000F0000A001C001B0006001900050000002F006C
:10010000300029612C4100004A0035002B00E3003B
:100110004B00010052000100A9004E004F005100A9
:100120005000A8003102380231003800AA00000057
:10013000010001000100C35C0000C85CCA5CC65C31
:10014000C45C0100F100ED00F20001000100EF00CD
:10015000EE00F000010001000100010001000100BB
:100160000000010001000100010000000100010089
:100170000100010043004200410040003F00270011
:10018000260025002400230027022602250224023F
:100190002302000001000100010001000000010035
:1001A0000100010001003A003B003C003D003E0020
:1001B0001E001F002000210022001E021F0220023C
:1001C000210222020000440045000100010000005D
:1001D000010001000100010000047F3F1F64321490
:1001E000643214783C1E1E140A0522232526282971
:1001F0002A2C2D2F3032333536383A3B3D3E4042A3
:10020000434547494A4C4E5051535557595A5C5EE5
:100210006062646668696B6D6F71737577797B7DF9
:100220007F81838587898A8C8E90929496989A9CF8
:100230009E9FA1A3A5A7A8AAACAEAFB1B3B4B6B810
:10024000B9BBBCBEBFC1C2C3C5C6C7C9CACBCCCD72
:10025000CED0D1D2D2D3D4D5D6D7D7D8D9D9DADA4D
:10026000DBDBDBDCDCDCDCDCDDDDDDDDDCDCDCDCCD
:10027000DCDBDBDBDADAD9D9D8D7D7D6D5D4D3D201
:10028000D2D1D0CECDCCCBCAC9C7C6C5C3C2C1BFDF
:10029000BEBCBBB9B8B6B4B3B1AFAEACAAA8A7A543
:1002A000A3A19F9E9C9A98969492908E8C8A8987FF
:1002B0008583817F7D7B79777573716F6D6B6968DD
:1002C000666462605E5C5A5957555351504E4C4AB1
:1002D0004947454342403E3D3B3A3836353332305C
:1002E0002F2D2C2A292826252322FFAA7F554000BE
:1002F00001010101010101010102020202020202E7
:1003000002020303030303030303040404040404B9
:10031000040505050505060606060607070707077F
:1003200008080808090909090A0A0A0B0B0B0C0C32
:100330000C0D0D0D0E0E0E0F0F0F101011111112CE
:100340001213131414151516161717181819191A4D
:100350001A1B1B1C1D1D1E1E1F20202122222324B0
:1003600024252626272829292A2B2C2D2D2E2F30EF
:10037000313232333435363738393A3B3C3D3E3F03
:10038000404142434445464748494A4C4D4E4F50F0
:10039000515354555658595A5B5D5E5F61626465AE
:1003A0006668696B6C6D6F7072737577787A7B7D38
:1003B0007E8082838587888A8C8E8F91939596988C
:1003C0009A9C9EA0A2A3A5A7A9ABADAFB1B3B5B7A8
:1003D000BABCBEC0C2C4C6C9CBCDCFD1D4D6D8DB7F
:1003E000DDDFE2E4E7E9EBEEF0F3F5F8FAFDFF28F4
:1003F00003440061006300740079006C0020004D2C
:100400000061006E00750066006F0072006D0020D4
:100410000034007800350000000E0374007300689B
:10042000006F007200740000000403090409023B1D
:1004300000020100A0FA0904000001030101000903
:1004400021110100012240000705810308000A096B
:100450000401000103000000092111010001227BB9
:10046000000705820320000A1201000200000008B4
:100470004D44353401000102000105010902A101CA
:1004800085020901A10005091901290815002501A6
:100490009508750181020501093009311581257F13
:1004A00095027508810609381581257F9501750823
:1004B0008106050C0A38021581257F950175088192
:1004C00006C0C005010980A101850319012AB700F2
:1004D000150126B700950175108100C0050C0901B2
:1004E000A101850419012AA002150126A002950187
:1004F00075108100C005010906A101050719E02951
:10050000E71500250195087501810295017508819F
:10051000010507190029FF150026FF00950675083B
:1005200081000508190129059505750191029501BC
:1005300075039101C00011241FBECFEFDAE0DEBFCA
:10054000CDBF12E0A0E0B1E0EAE9F2E602C005901A
:100550000D92A630B107D9F723E0A6E0B2E001C0C2
:100560001D92A134B207E1F70E9444180C94F030B8
:100570000C9400009C01FB0190910802233131058D
:1005800031F48281882359F0916090930802809120
:100590000802813039F40E94102980E008959E7F7E
:1005A0009093080281E0089581E008950C94BA02C6
:1005B00008950C94D8021F93CF93DF9300D000D0FE
:1005C0000F92CDB7DEB749835A836B83309109020E
:1005D00089819A8131111DC06623B9F02223A9F0C7
:1005E0000E94590A182F682F89819A810E94020A55
:1005F00069817A81812F0F900F900F900F900F904B
:10060000DF91CF911F910C94DA100E94300A182FBD
:10061000EFCF0E94590A69817A81EDCFFC01262F24
:10062000408151816281738184810C94DB0281E07D
:100630000895CF93DF93D82FC92F60E00E940E0357
:100640006D2F7C2FDF91CF910C94D9020E9456130D
:100650000E94A9030C948F130C94921380E00C94C5
:10066000AA03089508950E94DB070E9432032FEF2A
:1006700084E39CE0215080409040E1F700C00000FE
:100680000C9410290F931F93CF93DF938C0161E09B
:100690000E940E03EC01B8010E94D6028823D9F112
:1006A000B801CE010E94CD248823A9F1B801CE0162
:1006B0000E944E23882379F1B801CE010E9437248D
:1006C000882349F1B801CE010E948B22882319F1B9
:1006D000F8018281882361F0CB35FDE5DF0721F148
:1006E00070F4C115ECE5DE07A1F0CF3DDC45C9F0A3
:1006F000C801DF91CF911F910F910C94D402CC359A
:100700008DE5D807A1F0CD35DD4591F70E94420F68
:10071000EFCF0E94330380E0DF91CF911F910F91C3
:1007200008950E94F60FF7CF0E944B0FE1CF0E9471
:100730004E0FDECF0C9431030E944D270E94AA0376
:100740000C949A0308950C94A20381E008950C94EC
:10075000A5030895CF93C82F0E94A3038C2FCF9198
:100760000C94A703EF92FF920F931F93CF93DF9305
:10077000CDB7DEB72B970FB6F894DEBF0FBECDBF57
:10078000042F4F83152F588769877A878B87EA84D0
:10079000FB8461110E948F0E1E8285E0FE01379658
:1007A000DE01119601900D928A95E1F7EF28A9F4E8
:1007B00049815A816B817C818D819E810E94AE0D21
:1007C0002B960FB6F894DEBF0FBECDBFDF91CF9151
:1007D0001F910F91FF90EF90089510231F3F41F359
:1007E000CE0101960E9417038111E2CFE9CFFC01EF
:1007F000808191810C949B0ACF93C82F882309F4A0
:100800008AC08238C1F40E944D2781FD84C089E3EB
:100810000E94480E0E94C00E2FEF31EE84E021505E
:1008200030408040E1F700C0000089E30E944F0E95
:10083000CF910C94C00E8338A1F40E944D2780FD07
:100840006AC083E50E94480E0E94C00E9FEF21EE11
:1008500034E0915020403040E1F700C0000083E5D3
:10086000E5CF8438A1F40E944D2782FD54C087E46F
:100870000E94480E0E94C00E8FEF91EE24E081503E
:1008800090402040E1F700C0000087E4CFCF8CEF1C
:100890008C0F813A90F46C2F8091020190910301AA
:1008A0000E94B827882329F08C2F0E944F0E0E94A7
:1008B000C00E8C2F0E94480EBBCF80E28C0F883078
:1008C00048F4C77081E001C0880FCA95EAF70E941A
:1008D000700EAECF8BE58C0F833038F42C2F245262
:1008E000330BC901CF910C947A27E8E5EC0FE7317F
:1008F00050F4F0E0EE0FFF1FED5AFE4F8081918122
:10090000CF910C949027CD3E30F08C2F0E94D418BC
:10091000CF910C949619CF910895882309F452C071
:10092000823871F40E944D2781FF4CC089E30E94F8
:10093000480E0E94C00E89E30E944F0E0C94C00E18
:10094000833859F40E944D2780FF3CC083E50E9404
:10095000480E0E94C00E83E5EFCF843859F40E9400
:100960004D2782FF2FC087E40E94480E0E94C00ED0
:1009700087E4E2CF9CEF980F913AF0F290E2980F63
:10098000983050F4877091E001C0990F8A95EAF78A
:10099000892F0E94760ED2CF9BE5980F933020F4DA
:1009A00090E080E00C947A2798E5980F973120F436
:1009B00090E080E00C9490278D3E20F00E941D195D
:1009C0000C94961908951F93CF93DF93182FEB0182
:1009D0000E94FC03209731F4812FDF91CF911F916A
:1009E0000C948D048FE99FE00197F1F700C000009F
:1009F0002197F0CF70E060E0893311F460E570E09A
:100A00000C94E304882321F00E94700E0C94C00E15
:100A10000895882321F00E94760E0C94C00E08954C
:100A2000AF92BF92CF92DF92EF92FF920F931F93FC
:100A3000CF93DF9300D000D00F92CDB7DEB76C011B
:100A40006D837983FC011281F580F2949FE0F92295
:100A50000E94660EE82E8823B9F0E12E1123A1F042
:100A60008981807F803421F08D81805E8830B0F074
:100A70008091FB0282FD12C082E00E94110F0E9451
:100A8000660E91E0E82EE926A980A2948FE0A822C4
:100A9000B12CF501EE50FF4C0C944E30E12CF4CF0C
:100AA00009810F70F981F07F11F00295007F112309
:100AB000A1F0002361F08D81805E883018F01D81E7
:100AC000111107C0802F0E94700E0E94C00E8D81F0
:100AD00044C0802F0E94810EF8CF8D810E948D042A
:100AE000002309F442C08D81805E883018F01D819A
:100AF000111104C0802F0E94760E03C0802F0E9427
:100B0000870E0E94C00E31C009810F702981207F9D
:100B1000203211F00295007F3D81332381F0313086
:100B200009F471C0112309F47BC0FF2009F471C0DE
:100B3000F601858180FFCBCF8F7085836AC080915D
:100B4000FB0282FF40C0112359F0002329F0802FBF
:100B50000E94700E0E94C00E80E00E94FC0305C03F
:100B600080E00E948D040111C5CF88E0A81AB10869
:100B700094E0A916B10420F40E944D270E94AA0314
:100B8000EE2009F4AFC10E94620E80FDABC1F601F8
:100B900012820E945C0E0E94F208C6010E94990710
:100BA0000E945C0E0F900F900F900F900F90DF91AE
:100BB000CF911F910F91FF90EF90DF90CF90BF905A
:100BC000AF900C942309112389F0F11006C00E9404
:100BD000A30E802B0E940205C8CF81E0F812F7CF48
:100BE0000E94A30E802B0E94A90EBFCFF11006C059
:100BF0000E94B60E802F0E940905B7CF91E0F9162A
:100C000009F4B3CFF5CF112331F0E5E0EF1508F487
:100C1000ACCF802FDFCFF4E0FF1508F4A6CFEACFEA
:100C2000FF2041F30D81093349F41FEF27EE33E034
:100C3000115020403040E1F700C000008D810E943B
:100C40008D0493CF898186958695837069F0813074
:100C500009F08BCF8D8199819370111102C090E0C2
:100C600080E00E94902781CF8D819981937011112E
:100C700002C090E080E00E947A2777CF8D81112317
:100C800029F00E94D4180E9496196FCF0E941D1956
:100C9000FACF8981837009F050C0111166CF2D8180
:100CA000229526952770220F220F4D814F7050E01C
:100CB00070E060E0022E04C0440F551F661F771FCE
:100CC0000A94D2F70D8180E090E0DC0104FF0FC0B0
:100CD0008FE090E0A0E0B0E004C0880F991FAA1F49
:100CE000BB1F2A95D2F780959095A095B095198154
:100CF0001695169513701D838C019D01042B152BE1
:100D0000262B372B09831A832B833C831D81698112
:100D10007A818B819C81123051F0133059F011305F
:100D200019F00E94680821CF0E9440081ECF0E943F
:100D300090081BCF0E943E0818CF112309F448C029
:100D4000098100FF12CF2D81229526952770220F51
:100D5000220F4D814F7050E070E060E0022E04C021
:100D6000440F551F661F771F0A94D2F70D8180E04C
:100D700090E0DC0104FF0FC08FE090E0A0E0B0E065
:100D800004C0880F991FAA1FBB1F2A95D2F7809510
:100D90009095A095B09519811695169513701D83A1
:100DA0008C019D01042B152B262B372B09831A83CD
:100DB0002B833C831D8169817A818B819C811230D8
:100DC00071F0133079F0113039F00E94B109CDCEB5
:100DD000198111FFCACEB7CF0E948909C6CE0E94E1
:100DE000D909C3CE0E94BC08C0CE09810F70098307
:100DF000112329F0802F0E94F2088D81EBCE8D8186
:100E00000E94090589810E942309AFCE0D81023F0E
:100E100059F160F4003FC1F0013F89F0112309F45A
:100E20004CC0F11054CE89818F7122C00D81033FD7
:100E300011F1043F99F78091FB0282FF26C089815E
:100E40008F71112301F314C0112349F014E01F1511
:100E500008F48BCE89818F710E94580986CE25E0D7
:100E60002F1508F482CEF6CF89818F711111CBCF67
:100E70000E94F2087ACE112329F089818F710E9495
:100E8000CD0873CE0E94C80870CE112359F0098195
:100E90000F710983802F0E94F20863E089810E940C
:100EA000F60E63CE81E00E94110F11E01F1508F0CD
:100EB0005CCE82E00E94110F58CEF110B3CE898132
:100EC0008F71A1CF49814F706D81C6010E94D610EC
:100ED0000E94D10A4ACE49814F706D81C6010E949D
:100EE000D91043CE0F900F900F900F900F90DF917D
:100EF000CF911F910F91FF90EF90DF90CF90BF9017
:100F0000AF9008950F931F93CF93DF93EC01688107
:100F100079818A810E94A70A8C010E94010A0E949D
:100F20003D08B801CE01DF91CF911F910F910C9434
:100F30001005CF93DF93EC01988189812B813C814F
:100F4000232B19F089238F3F59F4DF91CF91089516
:100F5000CE010E948207CE01DF91CF910C9419033C
:100F6000CE010E9442038111F3CF0E94660E8823B6
:100F700061F38A81882349F38091FB0282FDE5CFEA
:100F800082E0DF91CF910C94110F90E080E00E94FD
:100F90007A2790E080E00E9490270E948F0E0E94A6
:100FA000A00E0E94C00E0E94C11A0C9496190E94B5
:100FB000560E0C94C5070E947E0E0C94D707282F5E
:100FC000892F82958F70903C80F48A30B0F4843001
:100FD00020F4823090F480E008958630E1F781E0DB
:100FE000283E88F0213FB9F70EC08C3011F08F30C9
:100FF00091F793FB882780F9089581E0203F39F02D
:1010000018F4283E40F70895243F29F7FCCF0895AF
:10101000FC01808191810E949B0A0C94DF07CF9391
:10102000DF9300D000D00F92CDB7DEB70F900F90B6
:101030000F900F900F90DF91CF910895CF93DF9392
:1010400000D000D000D0CDB7DEB726960FB6F8940A
:10105000DEBF0FBECDBFDF91CF91089508950C94F0
:101060002E080E942F086093310270933202809301
:101070003302909334020C94C50708950C94310800
:10108000CF93DF9300D000D0CDB7DEB769837A83EA
:101090008B839C838091310290913202A091330224
:1010A000B091340229813A814B815C81282B392B04
:1010B0004A2B5B2B29833A834B835C83CA01B9019A
:1010C0000F900F900F900F90DF91CF910C943108FB
:1010D000CF93DF9300D000D0CDB7DEB769837A839A
:1010E0008B839C838091310290913202A0913302D4
:1010F000B091340229813A814B815C8128233923C4
:101100004A235B2329833A834B835C83CA01B90159
:101110000F900F900F900F90DF91CF910C943108AA
:10112000CF93DF9300D000D0CDB7DEB769837A8349
:101130008B839C838091310290913202A091330283
:10114000B091340229813A814B815C81282739276B
:101150004A275B2729833A834B835C83CA01B90101
:101160000F900F900F900F90DF91CF910C9431085A
:101170000C942E080C94B8080E94BA0860932D02B3
:1011800070932E0280932F02909330020C94C50727
:1011900060E070E0CB010C94BC080F931F93CF93D9
:1011A000DF9300D000D0CDB7DEB741E050E060E083
:1011B00070E08A019B0104C0000F111F221F331F22
:1011C0008A95D2F709831A832B833C83C901B8011E
:1011D0000F900F900F900F90DF91CF911F910F9173
:1011E0000C94BC080F931F93CF93DF9300D000D0D3
:1011F000CDB7DEB741E050E060E070E004C0440FDE
:10120000551F661F771F8A95D2F780912D02909106
:101210002E02A0912F02B09130028A019B01082B6F
:10122000192B2A2B3B2B09831A832B833C83C9015F
:10123000B8010F900F900F900F90DF91CF911F91F9
:101240000F910C94BC080F931F93CF93DF9300D0A2
:1012500000D0CDB7DEB741E050E060E070E004C000
:10126000440F551F661F771F8A95D2F740955095FA
:101270006095709580912D0290912E02A0912F0281
:10128000B09130028A019B01082319232A233B23B2
:1012900009831A832B833C83C901B8010F900F90F7
:1012A0000F900F90DF91CF911F910F910C94BC087C
:1012B0000F931F93CF93DF9300D000D0CDB7DEB74D
:1012C00041E050E060E070E004C0440F551F661F2D
:1012D000771F8A95D2F780912D0290912E02A091CE
:1012E0002F02B09130028A019B01082719272A2773
:1012F0003B2709831A832B833C83C901B8010F90D4
:101300000F900F900F90DF91CF911F910F910C9440
:10131000BC08CF93DF9300D000D0CDB7DEB7698390
:101320007A838B839C8380912D0290912E02A091D1
:101330002F02B091300229813A814B815C81282BA8
:10134000392B4A2B5B2B29833A834B835C83CA015D
:10135000B9010F900F900F900F90DF91CF910C94E7
:10136000BC08CF93DF9300D000D0CDB7DEB7698340
:101370007A838B839C8380912D0290912E02A09181
:101380002F02B091300229813A814B815C81282360
:1013900039234A235B2329833A834B835C83CA0125
:1013A000B9010F900F900F900F90DF91CF910C9497
:1013B000BC08CF93DF9300D000D0CDB7DEB76983F0
:1013C0007A838B839C8380912D0290912E02A09131
:1013D0002F02B091300229813A814B815C8128270C
:1013E00039274A275B2729833A834B835C83CA01C9
:1013F000B9010F900F900F900F90DF91CF910C9447
:10140000BC080895E92FEE0FEE0FE90FE80F8E2FBD
:10141000877041E001C0440F8A95EAF7E695E695AA
:10142000E69585E0E89FF0011124E65FFD4F30E08E
:1014300020E070E05191DF011197CB01022E02C034
:10144000969587950A94E2F7817081958527842384
:1014500085278C932F5F3F4F2530310559F708952D
:10146000E92FEE0FEE0FE90FE80F9E2F9770E6952C
:10147000E695E69585E0E89FF0011124E65FFD4FD3
:1014800050E040E080E0219130E0092E02C0369526
:1014900027950A94E2F721703327042E01C0220F0A
:1014A0000A94EAF7822B4F5F5F4F4530510559F799
:1014B0000895BF92CF92DF92EF92FF920F931F9306
:1014C000CF93DF938C01C0902D02D0902E02E0903C
:1014D0002F02F09030028091310290913202A0915F
:1014E0003302B0913402C82AD92AEA2AFB2ACFE172
:1014F000D0E0BC2ED701C6010C2E04C0B695A7952E
:10150000979587950A94D2F780FD0EC0219788F7AA
:10151000B12C8B2DDF91CF911F910F91FF90EF9008
:10152000DF90CF90BF900895B8018C2F0E940812D1
:10153000019761F3EECFCF93DF93D82FC92F0E948D
:10154000590A6D2F7C2FDF91CF910C9408121F93B5
:10155000CF93DF93162FD72F90910902992339F05B
:10156000862F972FDF91CF911F910C949B0A882390
:1015700091F0862F972F0E94590AC82F682F812F2C
:101580009D2F0E94020A612F7D2F8C2FDF91CF911A
:101590001F910C940812862F972F0E94300AC82F93
:1015A000F2CFEF92FF920F931F93CF93DF938C01B3
:1015B000892B89F0F12CEE24E394E8012196F801BF
:1015C0008491843709F458C0A0F4823009F43FC0F4
:1015D00048F48130D1F0DF91CF911F910F91FF90AE
:1015E000EF9008959CEF980F9037A8F70E94FC03A6
:1015F0000AC0853709F44EC09CE7980F903758F71A
:101600008F770E948D048E0116C00E5F1F4FFE0162
:10161000849190E2980F983060F48770FE2D01C09D
:10162000FF0F8A95EAF78F2F0E94920E0E94C00E3C
:1016300002C00E94FC038F2D882309F4BECFEFE97E
:10164000FFE03197F1F700C000008150F5CF0E5F49
:101650001F4FFE01849190E2980F983050F48770EC
:10166000FE2D01C0FF0F8A95EAF78F2F0E94980E7A
:10167000DDCF0E948D04DFCF0E5F1F4FFE01C491AE
:10168000CC23C9F28FE99FE00197F1F700C0000079
:10169000C150F6CF0E5F1F4FFE01F490CCCF1F93C9
:1016A000CF93DF93E091350216E0809136028E13DE
:1016B00004C0DF91CF911F910895CE2FD0E01E9FDF
:1016C000F0011124E95CFD4F4081518162817381F9
:1016D000848195810E941E082196EC2FE770E5CF4A
:1016E00040916702509168026091690270916A02AC
:1016F00080916B0290916C020C941E08FF920F93E4
:101700001F93CF93DF9380916C02807FD1F48091FF
:1017100069028823B1F080913502109136027091F0
:10172000670260916802A0916A02B0916B02062F75
:101730000723C0910001D091010196E0F92E181302
:1017400006C0DF91CF911F910F91FF90089590E017
:10175000109711F00F3F19F401968770F0CFF89EA3
:101760009001F99E300D1124F901E95CFD4F418192
:101770006413F2CF40814713EFCF42814111ECCF88
:10178000438154814A1B5B0B4C175D0728F78091FE
:101790006C028F70806180936C02F901E45CFD4FF4
:1017A00080818F708061808387E692E00E94990734
:1017B000DF91CF911F910F91FF900C944F0BAF923F
:1017C000BF92CF92DF92EF92FF920F931F93CF932E
:1017D000DF93CDB7DEB72B970FB6F894DEBF0FBE01
:1017E000CDBF8C0185E0F801DE01179601900D92C6
:1017F0008A95E1F7D8011296EC9012971396CD9046
:10180000DC9097E6A92E92E0B92E30916702909174
:10181000680240916A0250916B024115510529F00E
:10182000892F83238F3F09F082C1EE2009F492C1F2
:10183000C8010E940808F82E882309F48BC186E0AD
:10184000F801A7E6B2E001900D928A95E1F787E6EC
:1018500092E00E94F7030E947E0B38C180916C02D7
:10186000E82FE07F4617570708F0D2C0D80111963D
:101870002C911197E11116C1FE2C291325C09C91C2
:10188000931322C0E11020C08F70806180936C029E
:101890000E94700B87E692E00E94990780916C028B
:1018A000F80185838F2D2B960FB6F894DEBF0FBEFF
:1018B000CDBFDF91CF911F910F91FF90EF90DF90FF
:1018C000CF90BF90AF9008953F81C114D10429F00B
:1018D000822F83238F3F09F0E2C080E080FF08C0A1
:1018E000E09135024091360286E0B82EE4131BC029
:1018F000CD2829F0822F83238F3F09F0C2C080E0DA
:10190000F82FF170DF2EE09135024091360256E05B
:1019100080FD30C0EE2031F280916C0281608093B6
:101920006C02F12CBFCF8E2F90E0BE9EF0011124EF
:10193000E95CFD4F5181251306C05081531303C04C
:1019400052815E11A1C00196E82FE770CFCF8E2F94
:1019500090E05E9FF0011124E95CFD4F6181261348
:1019600006C06081631303C062816E11D3CF0196FC
:10197000E82FE770E413EBCF8F8198850E949B0AD4
:10198000292F22952F70903268F0225F2F7022301D
:1019900080F49F7059F0D80115969C91907F31F496
:1019A000D12C0AC09F7011F08823D1F3805E88305B
:1019B000B8F3C8010E949907FD2C74CFC8010E949A
:1019C0000808882309F4C6C0EE2009F4C3C080913A
:1019D0006C02803270F020916702309168023A8385
:1019E00029831B82DD82CC828E83CE0101960E94E8
:1019F000990786E0F801A7E6B2E001900D928A957A
:101A0000E1F70E947E0B0E94700BFF24F3944ACFF3
:101A1000E1115FC04F81588569857A858B850E9469
:101A20000F0887E692E00E94990786E0D5011D9293
:101A30008A95E9F70E94700B74CF86E0F801A7E65B
:101A4000B2E001900D928A95E1F72CCFC8010E9477
:101A500008088111CECF80916C02816080936C0266
:101A6000C8010E9499071ECF4F81588569857A85E4
:101A70008B850E940F0886E0D5011D928A95E9F7B3
:101A800025C081E08E253CCF87E692E00E94990731
:101A9000E7E6F2E0DF011D92BA94E9F7CBCF81E0EF
:101AA0008E251CCF29138ACFF8019081931386CFFE
:101AB000E11084CF8583C8010E94990786E0F80170
:101AC000A7E6B2E001900D928A95E1F70E94700BB3
:101AD000E9CEF8012181921371CFF801908193131F
:101AE0006DCFE1106BCF8583C8010E94990786E016
:101AF000D5011D928A95E9F7D5CED80111968C9122
:101B00009813A4CFF80180818313A0CF80916C0239
:101B100080FD93CF982F907F09F48FCF8583903FDE
:101B200051F2982F907F905F8F70892BC3CFF090E8
:101B30006902F601E41BF50BAF01609100017091A1
:101B40000101F1108BCE4617570708F08DCFFE2C00
:101B5000E110D3CFC8010E94990757CF1F93CF93AD
:101B6000DF93CDB7DEB72C970FB6F894DEBF0FBE6C
:101B7000CDBF4F83588769877A878B879C87CE0133
:101B800007960E94DF0B882369F08A859B85892B45
:101B900039F058854F81852F84238F3F09F071C01C
:101BA00016E05FC086E0FE013796DE0111960190D7
:101BB0000D928A95E1F78F819885209136024091A8
:101BC00035026A857B85672B59F389238F3F41F363
:101BD00030E0C9010196877099274817190671F4FA
:101BE0000E94DB07109236021092350286E0E7E68B
:101BF000F2E0DF011D928A95E9F7D2CF96E0929F3D
:101C0000D001939FB00D1124A95CBD4FFE01319608
:101C100001900D929A95E1F7809336020E944F0B46
:101C2000BFCF819FC0011124895C9D4F0E94DF0BB3
:101C30008823E9F0E09135021E9FF0011124E95C50
:101C4000FD4F4081518162817381848195810E9421
:101C50001E088091350290E0019687709927809345
:101C6000350280913502909136028913DACF2C9695
:101C70000FB6F894DEBF0FBECDBFDF91CF911F919D
:101C8000089569857A858B859C850E941E0888CF7A
:101C9000682F80910201909103010C94F227682F24
:101CA00080910201909103010C94F427809102012C
:101CB000909103010C94F62780916D02859585958E
:101CC0008595089580916D028770089590916D02B9
:101CD000977081E009F480E0089580917902089579
:101CE00090917902982B909379020895982F90956E
:101CF0008091790289238093790208951092790264
:101D0000089590917802982B909378020895982FD7
:101D1000909580917802892380937802089510929B
:101D20007802089590917702982B90937702089506
:101D3000982F909580917702892380937702089558
:101D400010927702089580916E02089508950C9480
:101D5000A60E9091FB0292FD08C090916E0298171A
:101D600021F080936E020C94A70E089580916E026C
:101D7000882329F010926E0280E00C94A70E08953B
:101D8000E0910201F0910301809179028083E0915A
:101D90000201F0910301808190917802892B808368
:101DA000E0910201F0910301808190917702892BEB
:101DB000808390916E02992381F0E0910201F0916D
:101DC00003018081892B808380910201909103011E
:101DD0000E94A62781110E94B60E80910201909167
:101DE00003010C94602708950C94F30E9091FB026C
:101DF00092FD10C098E0899F90011124622B60939E
:101E00006D020E94F20880916D02859585958595F9
:101E10000C94F40E0C94F20810926D0280E00C9475
:101E2000F40E90916D028095892380936D02282F86
:101E3000277091F4282F082E000C330B92171306ED
:101E400059F09091FB0292FD07C085958595859587
:101E50000E9423090C940C0F08959091FB0292FBB1
:101E6000222720F9281769F080FB92F99093FB0252
:101E70008091FA029091FB020E94720F82E00C9412
:101E8000110F08958091FB0282FB882780F991E071
:101E900089270C942D0F81E00C942D0F80E00C9479
:101EA0002D0F90E080E00E94B6309C0181E0293E39
:101EB0003E4F09F080E0089582E090E00C94A83055
:101EC00083E090E00C94A830CF9384E090E00E94EF
:101ED000A830C82F82E290E00E94A830982F8C2F63
:101EE000CF910895CF93682FC92F84E090E00E948E
:101EF000BC306C2F82E290E0CF910C94BC30AB01EF
:101F0000BC018FE090E00C94CE30AB01BC0183E1CA
:101F100090E00C94CE3060E070E0CB010C94850F23
:101F200060E070E0CB010E947F0F0C948B0F69EE94
:101F30007EEF90E080E00E94DA3060E082E090E0A6
:101F40000E94BC3060E083E090E00E94BC301092C0
:101F5000310210923202109233021092340260E089
:101F600084E090E00E94BC3060E082E290E00E9459
:101F7000BC3060E085E090E00E94BC3060E086E02C
:101F800090E00E94BC306FEF87E090E00E94BC3090
:101F900040E050E0BA0188E090E00E94CE3060E07E
:101FA0008DE090E00E94BC3040E050E0BA0188E152
:101FB00090E00E94CE3060E087E190E00E94BC306B
:101FC00040E050E0BA018CE190E00E94CE3070E039
:101FD00060E080E290E00E94DA3040E050E0BA0138
:101FE00088E190E00E94CE300C94900F0C94970FF3
:101FF000682F8EE090E00C94BC300E94962860938D
:10200000890270938A0280938B0290938C02609372
:1020100085027093860280938702909388020895C8
:1020200085B7806885BF85B7806885BF08950895A6
:1020300008950C94171008950C941B100E94101012
:1020400083E593E10E9443270E9418100C94191015
:102050000C946515089508950E942A100C942B1075
:102060000E9481280E94E7120E943D140E9436239C
:102070000E9441210C941C10AF92BF92CF92DF922C
:10208000EF92FF920F931F93CF93DF9300D000D076
:102090000F92CDB7DEB70E94D21481110E94FD0FBE
:1020A0008BE7A82E82E0B82E10E000E0C02E802F33
:1020B0000E949413F82EF501E1905F01E81609F4EF
:1020C0004EC080918D0281FD0E949A138E2D8F2526
:1020D000D12CEE24E394982F9E21E1F10E94281048
:1020E000882399F0D982CA82FE2081E009F480E039
:1020F0008B830E948A288160782F9D838C834981FD
:102100005A816B81892F0E94B203F801E558FD4F77
:1021100080818E2580830E94AE210E94B0190E948A
:102120004D2790917A02891789F10E944D2780935B
:102130007A020F900F900F900F900F90DF91CF9138
:102140001F910F91FF90EF90DF90CF90BF90AF90D5
:102150000C94AA03D394EE0CF5E0DF12BCCF0F5F12
:102160001F4F0A30110509F0A1CF8FEF89838A83B1
:102170001B820E948A288160782F9D838C834981ED
:102180005A816B81892F0E94B203C5CF0F900F90A7
:102190000F900F900F90DF91CF911F910F91FF90B3
:1021A000EF90DF90CF90BF90AF90089590E080E0E7
:1021B00008950895972F70E025E0929F600D711D9E
:1021C0001124FB0192E3899FE00DF11D1124EE0F14
:1021D000FF1FE455FF4F859194910895FC01EE0F88
:1021E000FF1FE852FE4F859194910895CF93DF939E
:1021F0000E940C12EC01811520E5920708F043C003
:10220000811530E4930708F0B2C0803E9105E8F4F0
:10221000803C910508F0A0C0883A910578F4853A91
:10222000910508F08BC08130910521F00497813A27
:10223000910540F4CE01DF91CF9108958F3B910538
:1022400009F07FC0D0E0C0E0F5CFC11580E2D8072B
:1022500070F4CF3FD10509F068F7C83ED10550F3BF
:10226000CE018D5E9109D065439720F3EBCFCE016F
:10227000C11520E3D20708F475C09927D3FD74C0B7
:10228000EC01D06CD7CF811535E5930760F5C1150A
:1022900084E5D80708F09EC0C11523E5D20778F47D
:1022A000C11532E5D30708F082C0C11581E5D80712
:1022B00008F460C0DC2FCC27C16FD06ABBCF9E0171
:1022C0002370332781E090E002C0880F991F2A9580
:1022D000E2F7C695C69520E2C29FE0011124C82B03
:1022E000D92BDA68A7CF81153AE59307B0F4C11569
:1022F00089E5D80708F07EC0C11526E5D20708F4A5
:102300006EC0CE0198558F3F910511F008F09ACF1D
:10231000DC2FCC27C06FD06A8DCF905681159042AC
:1023200008F090CF8D2F8F710E94A41290E0982F0B
:10233000882788279F718C2BEC015AC0A497D06402
:1023400079CFC85AD0E0CC0FDD1FCF57DE4F0990B0
:10235000D881C02DD4646ECF805C91090E94EE10AC
:10236000EC0168CF9F70FACFEC01D86C63CFDF70BF
:10237000D06A60CF9E0174E0369527957A95E1F793
:1023800023708C2F86958695837030E2839FC001E1
:102390001124922BC37021E030E002C0220F331FC2
:1023A000CA95E2F7822B932BEC01DC6843CF9E01A8
:1023B0002370332781E090E002C0880F991F2A958F
:1023C000E2F7C695C69520E2C29FE0011124C82B12
:1023D000D92BEBCFDC2FCC27C46FD06A2BCF8C2F1F
:1023E0000E94A412C82FD0E0DC2FCC27CC27DF71AD
:1023F000D06220CF8C2F8F700E94A41234E0D6952B
:10240000C7953A95E1F7CF709C2FEC01D06912CFB8
:102410000E94DA100C94F610803E910599F1C8F4F0
:102420008133910509F476C048F48932910509F4A5
:102430006AC08A32910509F474C008958933910500
:10244000D1F082389105B9F08533910509F454C073
:102450000895843E910599F138F4823E9105F9F092
:10246000833E910509F10895863E910599F1873ED5
:102470009105B9F108952091FA022370A1F080EE40
:1024800090E008952091FA0220FD52C03091FB02A5
:1024900030FF09C024FF4FC090E080E004C02091CD
:1024A000FA0222FDF7CF08952091FA0222FD46C0DC
:1024B0003091FB0230FDE3CF24FFF5CFEDCF20912B
:1024C000FB0221FFF0CF8091FA0284FDE5CF87EE79
:1024D00090E008952091FA0223FFE5CF24FDDCCFA0
:1024E000F6CF2091FA0223FD2CC03091FB0231FF80
:1024F000E3CF84EE90E008952091FA0225FFD3CF38
:1025000089E290E008952091FA0225FFCCCF85E37F
:1025100090E008952091FA0226FFC5CF8AE290E06C
:1025200008952091FA0226FFBECF81E390E008953E
:1025300089E390E0089583EE90E0089582EE90E0C4
:10254000089586EE90E008959091FA0292FF06C0F9
:10255000282F28712830F9F4877F846093FF06C004
:10256000282F28712831F1F4877E84612091FB02A5
:1025700020FF06C0382F38713830D9F4877F81604A
:1025800021FF06C0282F28712831D1F4877E816170
:1025900094FD877E0895282F24712430F9F68B7FCF
:1025A0008860DCCF282F2471243101F78B7E88616D
:1025B000DDCF382F3171313019F78E7F8860E0CF51
:1025C000282F2171213121F78E7E8861E1CF109271
:1025D000F6021092F7021092F8021092F902089592
:1025E000CF92DF92EF92FF92CF93DF9300D000D093
:1025F000CDB7DEB76B017C010E94651581110EC05D
:102600000E949628C61AD70AE80AF90AC092F6026A
:10261000D092F702E092F802F092F9020F900F9038
:102620000F900F90DF91CF91FF90EF90DF90CF90C0
:102630000895CF93DF9300D000D0CDB7DEB70E94CE
:102640006515882341F00F900F900F900F90DF9148
:10265000CF910C9496280E94962869837A838B8365
:102660009C838091F6029091F702A091F802B091BC
:10267000F90229813A814B815C81280F391F4A1F59
:102680005B1FCA01B9010F900F900F900F90DF915F
:10269000CF9108950E94651581110C948A280E949B
:1026A0001913CB01089580E008950895CF93DF9327
:1026B00000D000D0CDB7DEB70E94510F811102C00B
:1026C0000E94F60F0E945C0F80938D020E94640F9F
:1026D0009093FB028093FA020E9455130E94600FB0
:1026E000282F30E050E040E0CA01B9010E943E08C6
:1026F00080912D0290912E02A0912F02B091300274
:1027000089839A83AB83BC83BC01CD010F900F906A
:102710000F900F90DF91CF910C94BA0808950C940C
:102720008E1308950C949113E82FF0E0EA5FFC4FAC
:1027300080810895089580EA8A95F1F7089500C090
:1027400008950C949B13F894E82FE295EF70F0E055
:1027500041A18F7021E030E0B90102C0660F771F00
:102760008A95E2F7CB01962F9095942391A392A19D
:10277000892B82A37894089508950C94BC13CF9369
:10278000DF93C4EBD1E089918F3F11F00E94A31336
:1027900081E0C93BD807B9F7CFEAD1E089918F3FF3
:1027A00011F00E94A31381E0C43BD807B9F7DF9171
:1027B000CF910895CF92DF92EF92FF920F931F93E4
:1027C000CF93DF93EC01D62E062F10E0C8018C5476
:1027D0009E4F7C01FC0180818F3F09F445C0F89435
:1027E000E82FE295EF70F0E091A18F7021E030E0EA
:1027F00001C0220F8A95EAF7892F822B81A382A13B
:102800002095282322A378940E949F13EFEAF1E0F9
:1028100044EB51E091E0C12C81918F3F79F0A82FDA
:10282000A295AF70A05EB0E02C9130E08F7002C036
:10283000359527958A95E2F7892F20FD80E0C82AF3
:10284000990F4E175F0741F7F70180818F3F11F015
:102850000E94A31361E0C11001C060E08D2D0E94B1
:10286000A113C00FD11FC882DF91CF911F910F918B
:10287000FF90EF90DF90CF9008950E948A1580918D
:1028800004018091040195E0811190E0909311037F
:1028900085E0891B809310030E94BF138AE0E6E065
:1028A000F3E0DF01982F1D929A95E9F7ECEFF2E043
:1028B000DF011D928A95E9F785E00E942E150E949E
:1028C00026030C949F15DF92EF92FF920F931F93B4
:1028D000CF93DF9300D000D00F92CDB7DEB70E9428
:1028E0006515182F60911103882309F44EC01A82D0
:1028F0001982FE01339683E0DF011D928A95E9F784
:10290000862F90E032977F01BF018A5F9C4F0E9423
:10291000AD15DE2C0F2D882301F18091100390E07E
:1029200045E050E0B7018A5F9C4F0E94923021E061
:1029300020938E02892BE1F410E00E942C03812F5A
:102940000F900F900F900F900F90DF91CF911F91EC
:102950000F91FF90EF90DF90089580918E02882371
:1029600059F385E0D7011D928A95E9F710928E02FE
:10297000A0911003B0E0AA5FBC4F85E0ED2DF02FD1
:1029800001900D928A95E1F7D8CF70E06A5F7C4F95
:102990008091100390E08A5F9C4F0E9443160E9432
:1029A000BD13CDCFDF92EF92FF920F931F93CF9382
:1029B000DF93CDB7DEB72A970FB6F894DEBF0FBE10
:1029C000CDBF1A821982FE01339688E0DF011D9285
:1029D0008A95E9F7F12C8E010F5F1F4F6F2DC8010B
:1029E0000E94DA13F394D02EE12EB5E0FB12F6CF5D
:1029F0004AE050E0B8018CEF92E00E9492308C01E6
:102A000021E0892B09F420E00115110549F08AE045
:102A1000ED2DFE2DACEFB2E001900D928A95E1F71D
:102A20006091110370E06A5F7C4F45E08CEF92E0AB
:102A30000E942F1581E090E0012B11F40E94631495
:102A40002A960FB6F894DEBF0FBECDBFDF91CF91AF
:102A50001F910F91FF90EF90DF9008950895FF92DE
:102A60000F931F93CF93DF93F82E092F162FD72F95
:102A7000C42F222349F081E0809391020E948A288A
:102A80009093900280938F02809191028823A1F00D
:102A900080918F02909190020E94B628059760F075
:102AA000EF2DF02FA12FBD2FCF018C0F911DE81717
:102AB000F90741F410929102DF91CF911F910F918C
:102AC000FF90089521912D93F2CFCF93809194029E
:102AD000811116C0C8EC0E94FE2F81110EC08FE339
:102AE0009CE90197F1F700C00000C150A1F782E016
:102AF000809394020E94F92F03C081E08093940296
:102B000081E090919402913009F080E0CF91089596
:102B10000C9465150E94881580930401809104012E
:102B200064E0882349F080E00E94761B0E946515CE
:102B3000882321F00C94E51584E0F6CF08950E94D7
:102B40006515811102C00C94E715089581E09091FC
:102B500095029A3008F080E008950F931F93CF9369
:102B6000DF93EC01162F072F809195028A30C0F475
:102B7000612F702FCE010E944116C82F811122C0F3
:102B8000809195028F3FB9F40E948A289093930216
:102B9000809392028C2FDF91CF911F910F91089516
:102BA00080919202909193020E94B628843F9140B6
:102BB000F8F6C0E0EFCF8F5F809395028A3020F760
:102BC000C1E0E8CF10929502E5CF0C9481250C94DA
:102BD0008425CF92DF92EF92FF920F931F93CF93B2
:102BE000DF93FA0169017801C82F880FDD0B309758
:102BF000B9F08AE08C9FD0018D9FB00D1124AB5F9E
:102C0000BE4F13968D919C9114978A569D4F1296A4
:102C10004C9150E0E417F50708F4AF010E949F3093
:102C2000CE010E948F26892B11F5E114F104E9F001
:102C30008AE08C9FF0018D9FF00D1124EB5FFE4F19
:102C4000458150E0E416F50608F4A7018AE08C9F60
:102C5000F0018D9FF00D1124EB5FFE4F66817781AF
:102C60006A567D4FC6010E949F3081E001C080E01E
:102C7000DF91CF911F910F91FF90EF90DF90CF9058
:102C800008950C94C6170C94F3170F931F93CF93CA
:102C9000DF93CDB7DEB728970FB6F894DEBF0FBE2F
:102CA000CDBF8091B5029091B602A091B702B091CC
:102CB000B802BC01CD010E94C52811E0643671053F
:102CC0008105910520F10E941913DC01CB010296C8
:102CD000A11DB11D89839A83AB83BC8310E000E002
:102CE00030E020E044E050E0BE016F5F7F4F82E0C3
:102CF0000E94E915182F882351F00E9496286093AE
:102D0000B5027093B6028093B7029093B802812FF8
:102D100028960FB6F894DEBF0FBECDBFDF91CF91DE
:102D20001F910F910895AF92BF92CF92DF92EF92D1
:102D3000FF920F931F93CF93DF93F82EE92ED62E99
:102D4000C72E89010E94A615AA24A394B12C88231A
:102D500019F08AE0A82EB12CC1E0D0E0F8946D2DD6
:102D60007C2D8F2D9E2DF80109957894811104C03A
:102D70002196AC16BD065CF4DF91CF911F910F91A7
:102D8000FF90EF90DF90CF90BF90AF900895CC9FD1
:102D90009001CD9F300D300D112490E080E045E38F
:102DA0004A95F1F70000019628173907C1F7D6CFE9
:102DB000FF920F931F93CF93DF93CDB7DEB72C977E
:102DC0000FB6F894DEBF0FBECDBF8E010F5F1F4F51
:102DD000C8010E943620F8848091B9029091BA020D
:102DE000A091BB02B091BC02BC01CD010E94C528DC
:102DF00069877A878B879C87B80189859A85AB8597
:102E0000BC8584369105A105B10510F4FF20A9F019
:102E100010E000E030E020E048E050E083E00E9475
:102E2000E915882369F00E9496286093B90270938F
:102E3000BA028093BB029093BC020E94332081E0CF
:102E40002C960FB6F894DEBF0FBECDBFDF91CF91A9
:102E50001F910F91FF900895AF92BF92CF92DF9292
:102E6000EF92FF920F931F93CF93DF93CDB7DEB70F
:102E70002A970FB6F894DEBF0FBECDBF7B01A0909E
:102E8000BE01B090BF0101E010E09E012A5F3F4FFC
:102E900050E040E070E060E080E00E94E915182F0B
:102EA000882309F44EC065018FEFC81AD80A8091B3
:102EB000B1029091B202A091B302B091B402BC01F0
:102EC000CD010E94C5286F83788789879A876436E9
:102ED00071058105910568F105E010E09E012F5F05
:102EE0003F4F50E040E070E060E081E00E94E91573
:102EF000082F65E070E0C6010E94372311E09E8133
:102F0000981310E0102341F10E9496286093B102BB
:102F10007093B2028093B3029093B40285E0FE01F5
:102F20003196ACEAB2E001900D928A95E1F711E09A
:102F300013C065E070E0C6010E9437239E818913AB
:102F4000CBCF85E0F5013196DE01119601900D920F
:102F50008A95E1F71111E2CF85E0ECEAF2E0D701C2
:102F600001900D928A95E1F7812F2A960FB6F89479
:102F7000DEBF0FBECDBFDF91CF911F910F91FF90AC
:102F8000EF90DF90CF90BF90AF9008950F931F9375
:102F9000CF93DF93D82FC92F8B012CE237E140EC80
:102FA00051E00E9493168823C1F025E436E14DECF0
:102FB00051E0B8018D2F9C2F0E949316882369F051
:102FC00028ED36E148ED51E0B8018D2F9C2FDF91BF
:102FD000CF911F910F910C94931680E0DF91CF91C8
:102FE0001F910F9108950F931F93CF93DF93FB01D0
:102FF000F894C091BE01D091BF01CE01019625E0A9
:10300000DC0101900D922A95E1F765E070E00E94E5
:10301000372388837894F8946E817F818885998599
:103020000091A8021091A9022091AA023091AB024E
:10303000601771078207930751F06093A80270939D
:10304000A9028093AA029093AB020E94F012789496
:10305000F8948989882331F060E0CE010A960E94B5
:103060007921198A7894DF91CF911F910F9108955A
:103070000E94D12A0E9430100C94DD2A0E94E12A7D
:103080000E943C100C94FB2A0E9414280E94B82A2B
:103090000E941E100E9438180E943E180E942C1098
:1030A000FBCF8091C50280FF12C06091310185E0A5
:1030B000689FB0011124759567957595679560387F
:1030C0007105A8F561157105A1F1862F089581FF9D
:1030D00009C06091310185E0689FB00111247595A8
:1030E0006795EDCF6091310182FD0AC02091C40245
:1030F0002223D1F09091300160913101291728F0FD
:1031000085E0689FB0011124DACF269F9001112439
:1031100085E0829FA001839F500D1124692F70E0EC
:10312000CA010E941830CBCF65E070E0CECF8FE7A8
:10313000089581E008958091C50280FF0CC06091E0
:103140002E0170E075956795759567956115710508
:1031500049F1862F089581FF06C060912E0170E02D
:1031600075956795F3CF60912E0182FD0BC090910C
:10317000C3029923A1F060912D0180912E01961731
:1031800038F0682F70E06038710500F38FE708951C
:10319000899FC001112470E00E941830F4CF61E0D3
:1031A00070E0D7CF81E00895E3E1E80FE331E0F587
:1031B000F0E0EE5FFE4C0C944E300E945118819569
:1031C0008093C90208950E945118FACF0E945118A5
:1031D00081958093C80208950E945118FACF0E94E9
:1031E0009B188093CA0208950E949B188195F9CF7D
:1031F0000E949B1881958093CB0208950E949B1892
:10320000FACF815F990B21E030E001C0220F8A954F
:10321000EAF78091C702822B8093C70208958091BC
:10322000C50281608093C50208958091C5028260C5
:10323000F9CF8091C5028460F5CF4091C8028D3EE0
:1032400059F48091C90287FF0DC01092C902411143
:103250000BC01092C40208C08E3E81F48091C90256
:1032600018169CF3442381F08091CA029091CB02FE
:10327000892B09F05AC01092C30208958F3E49F479
:1032800047FFF0CF1092C8028091C9028111ECCFA4
:10329000E0CF803F19F41416ACF3E4CF9091CA024A
:1032A000893F29F41916F4F61092CA02DBCF8A3F3F
:1032B00019F497FFD7CFF8CF9091CB028B3F29F429
:1032C00097FFD0CF1092CB02CDCF8C3F19F41916B7
:1032D000CCF3C8CF9FE0980F983090F4815F990BA2
:1032E00021E030E0B90102C0660F771F8A95E2F74E
:1032F000CB0180959091C70289238093C702B2CFFA
:103300008D3F31F48091C5028E7F8093C502AACF94
:103310008E3F21F48091C5028D7FF7CF8F3F09F05A
:10332000A1CF8091C5028B7FF0CF08950E948A289B
:103330002091C8023091C902232B21F08093C10251
:103340009093C2022091CA023091CB02232B21F02C
:103350008093BF029093C00286EC92E00C946B279E
:10336000CF92DF92EF92FF920F931F93CF93DF9351
:1033700000D000D000D0CDB7DEB726E0E6ECF2E01A
:10338000CE010196DC0101900D922A95E1F7C090E3
:10339000C802D090C902E090CA02F090CB0210920D
:1033A000C8021092C9021092CA021092CB022C2DB0
:1033B0002D298C0191F08091C1029091C2020E944E
:1033C000B6289C018091C402882309F440C09091E2
:1033D00032019217130608F448C08E2D8F2991F000
:1033E0008091BF029091C0020E94B6289C018091FA
:1033F000C302882309F478C090912F019217130615
:1034000008F480C08091C8029091C902892B9091E4
:10341000CA02892B9091CB02892B11F00E94961938
:1034200086E0F801A6ECB2E001900D928A95E1F7F2
:1034300026960FB6F894DEBF0FBECDBFDF91CF91B9
:103440001F910F91FF90EF90DF90CF9008954091E2
:10345000BE029AE0499FA00111244217530708F0C9
:10346000BCCF8F5F8093C40202C08F3FD1F7CC20C6
:1034700059F00E9451189FEF1C140CF491E0899FA1
:10348000802D11248093C802DD2059F00E9451182C
:103490009FEF1D140CF491E0899F802D11248093DF
:1034A000C9023091C802332309F497CF2091C90291
:1034B000222309F492CF45EB3403C0011124992350
:1034C00059F09093C80245EB240390011124332353
:1034D00039F03093C90281CF81E08093C802F3CFE5
:1034E00081E08093C90279CF4091BD029AE0499F63
:1034F000A00111244217530708F084CF8F5F8093F7
:10350000C30202C08F3FD1F7EE2059F00E949B18F2
:103510009FEF1E140CF491E0899F802D112480935D
:10352000CA02FF2059F00E949B189FEF1F140CF451
:1035300091E0899F802D11248093CB023091CA02A3
:103540002091CB02332309F45DCF222309F45ACF13
:1035500045EB3403C0011124992359F09093CA021A
:1035600045EB240390011124332339F03093CB022F
:1035700049CF81E08093CA02F3CF81E08093CB02F0
:1035800041CF86E0E6ECF2E0DF011D928A95E9F793
:103590001092C4021092C3021092C5020895AF9215
:1035A000BF92CF92DF92EF92FF920F931F93CF9330
:1035B000DF938B01282F111114C0442329F090E0D0
:1035C00081519D4FFC018491682F782FDF91CF911D
:1035D0001F910F91FF90EF90DF90CF90BF90AF9031
:1035E0000895C12FD0E030E0442329F021513D4F10
:1035F000F901249130E0F6E00F9F70011124EFEF04
:10360000F0E0C701BF010E940430AB01802F90E0C1
:10361000880F991FA5E5A49FB001A59F700D1124E7
:10362000861B970B782F770F780FCF018C1B9D0B84
:10363000829FD001839FB00D929FB00D11246B2FFC
:10364000719FC0011124892F99278F01081B190B25
:10365000C801829F8001839F100D929F100D11243D
:10366000812F5F01A71AB108AC9E6001AD9ED00CFE
:10367000BC9ED00C1124CD2CDD24EC19FD09E29F59
:10368000E001E39FD00DF29FD00D1124722F433043
:103690005105D1F09CEFE91693E0F90670F4413042
:1036A0005105B1F042305105B9F0EFEFEE16F104DB
:1036B00008F08CCF8B2F6D2F89CF4430510579F0D6
:1036C00046305105B9F382CF612F822F7B2F7ECFF9
:1036D000622F712F8B2F7ACF8D2F622FF7CF822FF2
:1036E0007D2F74CF41E00C94CF1A0895E6E3F1E00A
:1036F0008083618308950C94721BCF93DF93982F7E
:10370000762F842FE901692F0E947B1B79836883C0
:103710008A83DF91CF91089580911303982F9E7F24
:1037200029F4817082608093130308958A34E8F34A
:1037300081708864F8CF88E090E00C94B0300F93EB
:103740001F93CF93DF938B01D82FC92F0E948C1B1F
:10375000A8016D2F7C2F88E090E0DF91CF911F9121
:103760000F910C94CE30E3E1F3E083E0808311828B
:103770008FEF828383831482E9EDF2E0828183609C
:10378000828363E070E08FEF9FEF0C949F1B80912A
:10379000130380FF02C08695089580E00895CF93BB
:1037A000DF9300D000D0CDB7DEB7909117039330F0
:1037B00018F49F5F909317038823B1F0809113034F
:1037C00090911403A0911503B091160389839A83F5
:1037D000AB83BC83BC01CD010F900F900F900F9075
:1037E000DF91CF910C949F1B0F900F900F900F9033
:1037F000DF91CF91089581E00C94CF1BCF93DF939D
:1038000000D000D0CDB7DEB790911703992319F0FF
:103810009150909317038823B1F0809113039091F6
:103820001403A0911503B091160389839A83AB8387
:10383000BC83BC01CD010F900F900F900F90DF91D2
:10384000CF910C949F1B0F900F900F900F90DF91D2
:10385000CF91089581E00C94FE1B70E00C94082336
:10386000609137018091130380FF0AC08091360177
:1038700023E0829FC0011124885E9C4F0C942D1C74
:10388000809138019091390123E0829FF001112449
:10389000E85EFC4F891750F71182108212828F5F09
:1038A0003396F8CF9091130390FF14C09091380194
:1038B0002091390133E0939FF0011124E85EFC4F21
:1038C000921710F00C94301C8183608342839F5FB9
:1038D0003396F6CF0895CF93DF9300D00F92CDB7F4
:1038E000DEB79091130390FF0FC09E012F5F3F4FF3
:1038F0000E947D1B4B8169818A810F900F900F90F0
:10390000DF91CF910C94521C0F900F900F90DF918C
:10391000CF910895CF93DF93EC01EC81F0E0E65175
:10392000FE4F4491E3E1F3E0628181810E946B1CD0
:103930008C818F5F8C83DF91CF910895CF93DF933C
:10394000EC01E3E1F3E0438162818C810E946B1C16
:103950008C818F5F8C83DF91CF9108950F931F939C
:10396000CF93DF9300D00F92CDB7DEB78C0180915B
:10397000CC0281110AC09E012F5F3F4F4FEF6FEFC6
:103980000E947D1B8A818093CC02F80164816130A2
:1039900049F06230F1F08091CC0240E0662331F0D2
:1039A00040E019C06091CC0240E080E00E94521CCF
:1039B000F801848190E0019663E070E00E94183085
:1039C00084830F900F900F90DF91CF911F910F91F3
:1039D00008954091CC0280E060E0E8CFAF92BF92C2
:1039E000CF92DF92EF92FF920F931F93CF93DF93CB
:1039F00000D000D000D00F92CDB7DEB7182FF62E32
:103A0000042FD22E9091130390FF96C0E92FE695D4
:103A1000AE2FB0E0AF51BE4F8C918093D9029E7F04
:103A2000923009F045C09E012F5F3F4F812F0E94C9
:103A30007D1B4B8169818A810E94521C80911403F5
:103A4000811308C0809115038F1104C08091160363
:103A5000801729F08091DB0282608093DB02109353
:103A60001403F092150300931603DD2009F464C0DB
:103A70008091130390911403A0911503B091160344
:103A80008C839D83AE83BF83BC01CD0127960FB687
:103A9000F894DEBF0FBECDBFDF91CF911F910F9184
:103AA000FF90EF90DF90CF90BF90AF900C949F1B52
:103AB000823019F400911603C1CF863019F41091A9
:103AC0001403BCCF8930D9F3893109F0B7CFE9515C
:103AD0008E2F8170C82EE695F0E0E651FD4FA5903F
:103AE000B490E12CBB2460913A01E61618F00E94D4
:103AF000301CA4CF2E2D30E0EA9CC001EB9C900D31
:103B0000112470E00E940430812FC11013C0860F71
:103B100090913801A901490F511D9A01220F331FBD
:103B2000240F351F285E3C4F402F6F2D0E947D1BB8
:103B3000E394D9CF861BECCF27960FB6F894DEBF5F
:103B40000FBECDBFDF91CF911F910F91FF90EF90EE
:103B5000DF90CF90BF90AF900895282FE3E1F3E07E
:103B6000818143816281885F0C94EE1C81E00C941A
:103B7000AD1D282FE3E1F3E081814381628188500C
:103B80000C94EE1C81E00C94B91D282FE3E1F3E0C6
:103B9000628131E1630F08F46FEF438181810C94FE
:103BA000EE1C81E00C94C51D282FE3E1F3E0628157
:103BB00031E1631B08F460E0438181810C94EE1CC9
:103BC00081E00C94D41D282FE3E1F3E0438131E13F
:103BD000430F08F44FEF628181810C94EE1C81E069
:103BE0000C94E31D282FE3E1F3E0438131E1431B13
:103BF00008F440E0628181810C94EE1C81E00C9419
:103C0000F21D20E00C94EE1CEF92FF921F93CF93D5
:103C1000DF93EC0110E0EE24EA94F12C60913A017C
:103C2000161770F00E94301C9A818C8190FF25C07D
:103C30008F5F8C83DF91CF911F91FF90EF9008955C
:103C400080913801810F9927991F9C01220F331F02
:103C5000280F391F285E3C4F70E0C7010E941830C2
:103C6000962F8C814091160360911503199F800D4A
:103C700011240E947D1B1F5FD1CF8150DACF9F920C
:103C8000AF92BF92CF92DF92EF92FF920F931F936A
:103C9000CF93DF93EC018A81BB24BA9480FD02C0EC
:103CA000BB24B3948C8181110AC091E0B91203C086
:103CB00080913A0181508093CE0281E08C83A12CC7
:103CC00080913A01A816F0F00E94301C9091CE022B
:103CD00081E0B81258C080913A018150992319F0BF
:103CE0008FEF890F91E08093CE029C83DF91CF917B
:103CF0001F910F91FF90EF90DF90CF90BF90AF900A
:103D00009F90089580913801CA2CD12C8C0D9D2D47
:103D1000911D8C01000F111F080F191F085E1C4F09
:103D2000F80111821082128234E0E32EF12C912CE2
:103D30008091CE02890D893004F18770082E000C25
:103D4000990BC816D90691F4809116038E9DA00197
:103D50008F9D500D11245595479555954795980180
:103D600060911503809114030E947D1B9B0CF1E070
:103D7000EF1AF108E9F6A394A3CF87FFDFCF909164
:103D80003A01890FDBCF892F90E0019660913A01CB
:103D900070E00E941830982FA6CF0F931F93CF93F7
:103DA000DF93EC018C81811109C081E08C8310923A
:103DB000CD0292E0909335018093340180913801D7
:103DC0009091390123E0829FF0011124E85EFC4FBD
:103DD000891758F110E003E060913A01161758F185
:103DE0000E94301C809134012091CD02280F209335
:103DF000CD0290913501980F90933501191654F426
:103E0000022E000C330B40913A014150550B241700
:103E1000350734F0819580933401813009F41C8298
:103E2000DF91CF911F910F9108951182108212821C
:103E30008F5F3396CDCFE12FF0E070E0CF010E948D
:103E4000183020913801280F422F50E08091CD0288
:103E5000082E000C990BE817F907BCF0809135018A
:103E6000082E000C990B8E179F077CF0209F900165
:103E70001124285E3C4F40911603609115038091F8
:103E800014030E947D1B1F5FA7CFFA01EE0FFF1FD7
:103E9000E40FF51FE85EFC4F118210821282F3CF0F
:103EA000EF92FF920F931F93CF93DF93CDB7DEB7BF
:103EB0002E970FB6F894DEBF0FBECDBF8D879E87BD
:103EC000AD85BE8514961C91212F30E0D9010E944A
:103ED0005C309B01AC010E94723069837A838B83D2
:103EE0009C83E0E2F0E0E11BF109A5E5B0E09B0175
:103EF000AC010E94723069877A878B879C879F010B
:103F0000DF010E9454309B01AC010E947D306D8323
:103F10007E838F8398879B01AC0189819A81AB81D5
:103F2000BC81280F391F4A1F5B1F69857A858B85E5
:103F30009C850E942C30F22E422F50E099E29F1572
:103F400088F1A3E02A9F9001112435952795122F1F
:103F5000109500E085E5E82EEF1880913A010817EA
:103F600078F10E94301CED85FE85948181E09923D3
:103F700019F0903219F48FEF80933301809133015F
:103F8000890FAD85BE8514968C932E960FB6F89446
:103F9000DEBF0FBECDBFDF91CF911F910F91FF907C
:103FA000EF90089585E590E0841B950B9C01220F0E
:103FB000331F280F391F37FFC8CF2F5F3F4FC5CFA3
:103FC0008E2D01FD8F2D40913801400F5527551F33
:103FD0009A01220F331F240F351F285E3C4F412FBB
:103FE000609115030E947D1B0F5FB7CF0F931F9346
:103FF000CF93DF93EC0110E000E090913A0190172D
:10400000110609F06CF40E94301C8C8190E001963E
:10401000817099278C83DF91CF911F910F91089523
:1040200080913801A801480F511D9A01220F331FBA
:10403000240F351F285E3C4F4C8160911503809101
:10404000140396959017110651F04CF0442349F053
:10405000409116030E947D1B0F5F1F4FCECF44235C
:10406000B9F340E0F7CF1092DB020895CF93DF93CE
:10407000EC0185E0E3E1F3E0DE0101900D928A9529
:10408000E1F78091D9029091DA02A091DB028D8351
:104090009E83AF83DF91CF910895E9EDF2E0118225
:1040A0008281846082830895E3E1F3E080818E7FE2
:1040B00080830E944D20E9EDF2E08281816082835D
:1040C0002FEF80E792E0215080409040E1F700C060
:1040D00000000C94301CCF93DF9300D000D0CDB7FC
:1040E000DEB7E3E1F3E080818E7F80838081918180
:1040F000A281B38189839A83AB83BC83BC01CD0148
:104100000E949F1B0E944D20E9EDF2E082818160B8
:1041100082839FEFA0E7B2E09150A040B040E1F76A
:1041200000C000000F900F900F900F90DF91CF9183
:104130000C94301C60911303669570E04BE050E0E6
:104140008BE391E00E948530892B19F481E0809304
:10415000DA020E944A139093D3028093D202809194
:10416000DB0284608093DB020895CF93DF9300D05D
:1041700000D0CDB7DEB79091130390FF4BC08823DA
:1041800009F441C0853208F040C08F77880F9091C4
:1041900013039170892B809313038091DB0281605C
:1041A0008093DB02662381F08091130390911403C6
:1041B000A0911503B091160389839A83AB83BC83C6
:1041C000BC01CD010E949F1B60911303669570E0B6
:1041D0004BE050E08BE391E00E948530892BB9F0F1
:1041E0000E944D2081E08093D5024091160360919A
:1041F0001503809114030F900F900F900F90DF9193
:10420000CF910C94011E81E0C1CF84E2BFCF0E9408
:104210009A20E8CF0F900F900F900F90DF91CF91E1
:104220000895682F8091130386958F5F853208F07B
:1042300081E00C94B52081E00C941121682F9091BD
:10424000130396958FEF890F913009F484E20C9453
:10425000B52081E00C941E2161E00C94B520E3E1CF
:10426000F3E080818160808386950C942C2180917D
:10427000130380FD0C946B200C942F2160E00C94B0
:10428000B5208091D802811133C00E94510F811155
:1042900004C00E94F60F0E94B31B0E949B1B6093F8
:1042A0001303709314038093150390931603809166
:1042B000DB0283608093DB026E7F61F40E94B31B9C
:1042C0000E949B1B60931303709314038093150348
:1042D000909316030E948C1B0E944D208091130323
:1042E00080FF03C086950E943E2181E08093D80222
:1042F00008951F93CF93DF93EC01162F8F8180FFDA
:104300000CC0888180FF24C080911303816080935A
:104310001303888186950E94B5208F8181FF06C096
:10432000212F4B816A8189810E94EE1C8F8182FF3F
:1043300005C08E81882379F00E949A208F8183FFA7
:1043400003C081E08093D502DF91CF911F91089542
:104350000E945420E2CF0E944D20F0CFEF92FF92B6
:104360000F931F93CF93DF938091DA02882309F490
:1043700063C08091D902E0911303E695E81BE093B6
:10438000D402823009F05FC0F0E0EA51FE4FE491C0
:10439000CE2FD0E00AE81CE18091D502882361F09D
:1043A0001092D5020E944A139093D3028093D202B6
:1043B0001092D7021092D6020E944A139C0180915B
:1043C000D2029091D302A901481B590B4F3F5F477E
:1043D00098F54091D1024423B1F01092D10240915E
:1043E000CF025091D002241B350B2F3F3F4758F48A
:1043F000405D5A485093D0024093CF022091DB0297
:1044000028602093DB02E090D602F090D7028C0F58
:104410009D1F9093D3028093D20282ED92E0F80127
:1044200009958091D6029091D702892B29F4EF2823
:1044300019F081E08093D102DF91CF911F910F910C
:10444000FF90EF900895853109F43BC058F489300E
:1044500021F18F3061F18630B9F0C0EDD7E005E78A
:104460001BE19ACF833209F435C0C4EFD1E006EFE7
:104470001FE1843209F490CFC8E2D0E000E51FE1EB
:10448000883109F489CFE9CFF0E0ED51FE4FE49196
:10449000CE2FD0E00EE91CE17FCFE695F0E0E052B0
:1044A000FE4FE491CE2FD0E004E01EE175CFE695FB
:1044B000F0E0E352FE4FE491CE2FD0E00FE31EE197
:1044C0006BCFF0E0E652FE4FE491CE2FD0E00DEC42
:1044D0001EE162CFE8EDF1E0C591D4910EEA1CE156
:1044E0005BCFFA0181110994FB01FDCFCF93DF93DC
:1044F000C82FD62F0E94C71B8C1740F00E94C71BE5
:104500008D1720F4DF91CF910C941B218C2FDF911C
:10451000CF910C942C211F93CF93DF93EC01FB01DF
:10452000128111111BC00E946D0E8272C73DFCE505
:10453000DF0778F4C33C9CE5D90708F467C0FE01A7
:10454000E45CFC45E331F10570F4EB5EFE4C0C9449
:104550004E3011E0CE35DD4509F410E0812FDF91BA
:10456000CF911F9108950E943721F8CF49E251E27F
:104570006BE171E20E947122F1CF4BE151E269E2FD
:1045800071E2F8CF42EC5DE166EB7DE1F3CF46EB03
:104590005DE162EC7DE1EECF40EE5DE161ED7DE15C
:1045A000E9CF41ED5DE160EE7DE1E4CF4EEF5DE10D
:1045B0006FEE7DE1DFCF4FEE5DE16EEF7DE1DACFB3
:1045C0004AE25CE16BEF7BE1D5CF4BEF5BE16AE266
:1045D0007CE1D0CF81E00E942C21C0CF65E082E059
:1045E0000E947622BBCF68E086E0FACF6EE089E0D9
:1045F000F7CF64E18FE0F4CF67E185E1F1CF88E1A7
:10460000EACF62E289E1ECCF83E2E5CF11E0A6CF09
:104610009C01AB01539A6BB1677F7BB17860EFB7B8
:10462000F894CA01880F991F840F951F820F931F5A
:104630008217930741F4EFBF8FE594E00197F1F7FC
:1046400000C000000895D9014D919D0158E07BB94B
:10465000000000C047FF6BB9440F000000C000C05D
:1046600000C06BB900C05A9591F7E2CF0895FC01E4
:10467000680F791F8FEF91E36E177F0709F4089594
:104680002191822728E030E087FF06C0880F892724
:1046900021503109C9F7F0CF880FFACFCF93DF93BC
:1046A000EC01FB018281882309F4DFC0C430FDE501
:1046B000DF0710F5CB3F9CE5D90730F49E0122506F
:1046C0003C4524313105E0F40E94640F9093FB02D5
:1046D0008093FA02C631FCE5DF0710F5C2308CE5A5
:1046E000D80788F48091FA029091FB020E94720F21
:1046F0000E94DB0780E004C0C236EDE5DE0721F34F
:10470000DF91CF910895FE01E350FC458091FA02BC
:104710008160E331F10518F5E85DFE4C0C944E30F4
:10472000C4309DE5D90770F4CB3FECE5DE07D0F24D
:10473000FE01EC5FFC45E830F105E0F4E55CFE4C81
:104740000C944E30C236DD4569F69091FA02892FFD
:104750008F7E94FF806103C08091FA028260809313
:10476000FA02C0CF8091FA028460F9CF8091FA02F8
:104770008860F5CF8091FB0281608093FB02B2CF0D
:104780008091FB028260F9CF8091FA028061E7CFCD
:104790008091FA028062E3CF8091FA028064DFCFD9
:1047A0000E94DB078091FA028068D9CF8091FA02DB
:1047B0008C60D5CF8091FB028360DFCF8091FA02BD
:1047C0008E7FCDCF8091FA028D7FC9CF8091FA0282
:1047D0008B7FC5CF8091FA02877FC1CF8091FB028A
:1047E0008E7FCBCF8091FB028D7FC7CF8091FA0265
:1047F0008F7EB5CF8091FA028F7DB1CF8091FA0282
:104800008F7BADCF0E94DB078091FA028F77A7CF15
:104810008091FA02837FA3CF8091FB028C7FADCF82
:104820008091FA0282FB992790F921E0922790FB70
:1048300082F990FB83F993CF8091FB02982F90959A
:1048400091708E7F892B90FB81F997CF0E94DB07B7
:104850009091FA02892F97FB87F9805880CF81E0E9
:104860000E94F80F3FCF80E0FBCF81E049CFCF938C
:10487000DF93EB0186319C4511F50E946D0E9A8104
:10488000992399F08A7A91E009F490E09093DC0200
:10489000811109C089E20E94480E0E94C00E80E08A
:1048A000DF91CF91089585E3F6CF8091DC028111ED
:1048B00004C089E20E944F0EF0CF85E3FBCF81E078
:1048C000EFCF0F931F93CF93DF93C42FD22FFC0111
:1048D00082818823C9F04093DF020E948A28909346
:1048E000DE028093DD0280E28C0F883008F050C039
:1048F000C77081E001C0880FCA95EAF7DF91CF91B8
:104900001F910F910C9402051091DF02141335C012
:104910008091DD029091DE020E94B628883C9105CC
:1049200060F5C0E2CD0F1D17B9F080E2810F88302D
:1049300040F4177081E001C0880F1A95EAF70E94D1
:104940000905C83048F481E09D2F977001C0880F99
:104950009A95EAF70E940205802F0E94FA04C83057
:10496000B8F4D77081E001C0880FDA95EAF7DF91DB
:10497000CF911F910F910C94090580E28C0F883024
:1049800038F4C77081E001C0880FCA95EAF7EFCF0D
:10499000DF91CF911F910F9108950F939C01CB014F
:1049A000243F4CE53407A1F190F4293DFCE53F0795
:1049B00049F12A3D4CE53407E9F1283D3C45C1F079
:1049C000FC0182818823E1F11092DF0219C0263FA9
:1049D000FCE53F0719F1273F4CE5340729F1253F56
:1049E0003C4571F707E225EE44EE65EF7CE505C036
:1049F00006E221EE41EE68ED7CE50E94612480E054
:104A00000F91089507E225EE45EE69ED7CE5F5CFBF
:104A100006E221EE40EE64EF7CE5EFCF06E221EE08
:104A200042EE66EF7CE5E9CF07E225EE46EE67EF62
:104A30007CE5E3CF08E221E045EE6AED7CE5DDCFE1
:104A400081E0DECF8EE1489B02C08150E1F7489BB8
:104A5000FECF0895589880E28A95F1F7589A089504
:104A6000FC013BE03A95F1F798E020E080E031E08E
:104A700040E14A95F1F7880F489B02C081602327E7
:104A800042E04A95F1F7000040E14A95F1F7915074
:104A900079F790E19A95F1F799B132E03A95F1F70B
:104AA000000040E14A95F1F7917092272081920F22
:104AB00090830895EF92FF920F931F93CF93DF930C
:104AC0000F92CDB7DEB719828C017C01E60EF11C86
:104AD0000E151F0561F481E09981911180E00F901E
:104AE000DF91CF911F910F91FF90EF9008950E9459
:104AF0002225CE0101960E943025F80181938F0175
:104B0000E7CF509A589A08955098589AE89AE9E64B
:104B1000F0E080818C7F808308956150770B91E075
:104B200001C0990F6A95EAF720E031E0911108C0C1
:104B3000222391F0589A80E28A95F1F758980895C7
:104B4000492F482339F0589A232740E24A95F1F734
:104B50009695ECCF5898F9CF5898EDCFFF920F93D8
:104B60001F93CF93DF93EC018C01060F111DC0172B
:104B7000D10731F4DF91CF911F910F91FF900895EC
:104B8000F9900E942A2568E08F2D0E948D25EFCF95
:104B90001F920F920FB60F921124EF92FF920F9374
:104BA0001F932F933F934F935F936F937F938F93B5
:104BB0009F93AF93BF93EF93FF93CF93DF930F92A6
:104BC000CDB7DEB719820E942225CE0101960E9440
:104BD0003025282FA82FA695A695A695982F9295B3
:104BE00095708A2F8570980F892F8370969596956A
:104BF000890F822787709981892B09F075C0A530AC
:104C000008F072C080E18A95F1F7589A509AB2E0A4
:104C1000BA95F1F700C0EA2EF12C5898EAE0AE9F61
:104C2000D0011124AB5FBE4F1896ED91FC911997FE
:104C30003097B1F06091BE017091BF0116962D9131
:104C40003C911797260F371F13968D919C911497BF
:104C5000680F791F15964C91159712968C910995AE
:104C60008AE08E9DF0018F9DF00D1124EB5FFE4FC9
:104C70006581662351F02091BE013091BF0186818C
:104C80009781820F931F0E94AE250E942A25F0E192
:104C9000FA95F1F758985098589A80E18A95F1F76B
:104CA0008AE08E9D80018F9D100D11240B5F1E4F99
:104CB000D80112966C911297662371F12091BE0172
:104CC0003091BF0113968D919C91820F931F0E948A
:104CD0005A25D801ED91FC91882311F088E001C09C
:104CE00082E080830E9422250F90DF91CF91FF9177
:104CF000EF91BF91AF919F918F917F916F915F9154
:104D00004F913F912F911F910F91FF90EF900F9036
:104D10000FBE0F901F901895ED91FC91DFCF0F9370
:104D20001F93CF93DF93EC0105970CF0A9C08AE0A5
:104D30008C9FF0018D9FF00D1124EB5FFE4F808161
:104D40009181892B09F49CC0F894509A589885E079
:104D50008A95F1F700008C2F869585709C2F9570B1
:104D6000890F982F937086958695890F8E0193E011
:104D7000000F111F9A95E1F7082B0E942A2500C009
:104D800068E0802F0E948D25A0E1AA95F1F7509848
:104D9000589A489B27C087E090E0489925C08AE050
:104DA0008C9F80018D9F100D11240B5F1E4FF80109
:104DB00065816623A1F12091BE013091BF018681FA
:104DC0009781820F931F0E945A25811128C0509A03
:104DD000589AD801ED91FC9182E08083789482E02A
:104DE00090E016C000C0D5CF0197B9F4509A589AF8
:104DF0008AE08C9FF0018D9FF00D1124EB5FFE4F38
:104E00000190F081E02D81E08083789481E090E052
:104E1000DF91CF911F910F91089500C0BECF0E94E6
:104E20002225B0E2BA95F1F75898509AE0E1EA9558
:104E3000F1F78AE08C9FF0018D9FF00D1124EB5F5C
:104E4000FE4F6281662351F02091BE013091BF0177
:104E500083819481820F931F0E94AE250E942A2590
:104E60008AE08C9FF0018D9FF00D1124EB5FFE4FC7
:104E70000190F081E02D1082789490E080E0C8CF1E
:104E800084E090E0C5CF90930702809306020895D6
:104E90009093E6028093E50208950E9465158111C2
:104EA00003C08091E0020895E091E502F091E602EE
:104EB000309721F00190F081E02D099480E0089571
:104EC000E091E502F091E602309721F00280F38153
:104ED000E02D09940895DC01E091E502F091E602ED
:104EE000309739F082E08C930480F581E02DCD017C
:104EF000099408952091E3023091E40228173907BC
:104F000071F09093E4028093E302E091E502F09166
:104F1000E602309721F00680F781E02D099408958C
:104F20002091E1023091E2022817390771F0909345
:104F3000E2028093E102E091E502F091E60230970F
:104F400021F00084F185E02D09940895AC019C01C5
:104F50002E5F3F4F485F5F4F80E02417350709F40D
:104F60000895F90191919F019923B9F38F5FF5CFCE
:104F70009C01662351F0FC013296285F3F4F8191DE
:104F8000861729F0E217F307D1F780E0089581E052
:104F900008959C01FC0132968FEF90E041914617F5
:104FA00051F08F3F19F4411101C0892F9F5F963056
:104FB000A9F78F3F09F40895280F311D87FD3A9511
:104FC000F901628308959C01FC013296285F3F4FEE
:104FD0008191861303C0DF0111971C92E217F3073A
:104FE000B9F708950C94C9270C94E327FC01329675
:104FF00086E0DF011D928A95E9F7089508950C94E3
:10500000FE278F5F8093E7020C94FF2783E0809355
:10501000E7020C94FF270C94012881E08093E702BB
:105020000C94FF270C940D28089580913803843048
:1050300031F10E942E031092E80288E190E020E412
:105040000FB6F894A895809360000FBE209360007F
:1050500083B7817F846083BF83B7816083BF789487
:10506000889583B78E7F83BF0FB6F894A8958091FB
:105070006000886180936000109260000FBE089508
:1050800008950895CF930E9440280E94D2140E9450
:105090004128C0E08C2F0E949413811105C0CF5F7E
:1050A000CA30C1F7CF91089581E0FCCF0E94DB07A1
:1050B0000C949C031F921FB61F9211248F939F93F1
:1050C000AF93BF938091E802811113C080913003A8
:1050D00090913103A0913203B09133034196A11D09
:1050E000B11D8093300390933103A0933203B093AA
:1050F0003303BF91AF919F918F911F901FBE1F905F
:10510000189582E084BD93E095BD9AEF97BD80939A
:105110006E0008952FB7F894809130039091310379
:10512000A0913203B09133032FBF0895CF93DF9343
:1051300000D000D0CDB7DEB78FB7F8942091300300
:1051400030913103409132035091330329833A83E4
:105150004B835C838FBF69817A818B819C810F90A7
:105160000F900F900F90DF91CF9108959C014FB752
:10517000F8948091300390913103A0913203B09163
:1051800033034FBF821B930B08950F931F93CF934D
:10519000DF9300D000D0CDB7DEB7462F572FBC012C
:1051A0002FB7F8948091300390913103A09132038E
:1051B000B09133032FBF8C019D01041B150B260BEF
:1051C000370BC901B8010F900F900F900F90DF912E
:1051D000CF911F910F91089578941F921FB61F923F
:1051E00011248F939F93AF93BF938091300390913D
:1051F0003103A0913203B09133030196A11DB11D7B
:105200008093300390933103A0933203B093330320
:10521000BF91AF919F918F911F901FBE1F901895C6
:10522000F89481E08093E00080E28093D800E9EC7C
:10523000F0E010828FE19EE40197F1F700C00000DA
:105240001DBA109268001CBC10BE1FBA10927A00E2
:1052500010926E0010926F00109271001092720006
:105260001082ECEBF0E0108214B817B81AB81DB831
:1052700010BA108215B818B81BB81EB811BA0C9421
:10528000003F08958091F4020895089522E020934C
:10529000E9002FEF3091E800215035FD06C035EDD3
:1052A0003A95F1F700002111F5CF2091E80025FF94
:1052B0000BC050E040E066E070E00E946E2B8091F1
:1052C000E8008E778093E8000895CF93DF93D82F7E
:1052D000C92F81E08093E9008FEF9091E800815021
:1052E00095FD06C095ED9A95F1F700008111F5CF77
:1052F0008091E80085FF16C050E040E068E070E073
:105300008D2F9C2F0E946E2B8091E8008E778093CA
:10531000E80088E0ED2FFC2FACEEB2E001900D929A
:105320008A95E1F7DF91CF9108958093E902709318
:10533000EB026093EA0280913803843001F582E049
:105340008093E9008FEF9091E800815095FD06C0B1
:1053500095ED9A95F1F700008111F5CF8091E80065
:1053600085FF0DC050E040E063E070E089EE92E020
:105370000E946E2B8091E8008E778093E80008955C
:10538000BC0184E00C949529BC0183E00C94952920
:1053900080913703811109C00E94F62C0E94532D81
:1053A0008091E20084608093E200089510923703B8
:1053B00008950C940D286091340381E0611101C0BF
:1053C00080E00C9406289091380381E0943009F035
:1053D00080E0609134030C940B2842E061EC81E0A2
:1053E0000E94722C42E261EC82E00E94722C909149
:1053F000380381E0943009F080E0609134030C942C
:10540000012880913A03893089F148F4823009F407
:105410009EC0833009F459C0813041F008958A302C
:1054200009F485C08B3009F46BC00895809139036D
:10543000813A09F049C08091E800877F8093E800B5
:1054400080913D0390913E03892B61F468E08CEEDE
:1054500092E070E00E94BD2B8091E8008B778093F2
:10546000E800089560E090E080E0F3CF8091390398
:10547000813251F580913D0390913E03029720F5D2
:105480008091E800877F8093E8008091E80082FFA8
:1054900017C09091F3008091F200029731F480914F
:1054A000F100813011F0863021F48091F100809379
:1054B000F4028091E8008B778093E8000C94A62C8E
:1054C000809138038111E1CF089580913903813AA9
:1054D000D9F780913D0390913E03892BA9F78091E4
:1054E000E800877F8093E8008091E80080FFFCCF90
:1054F000809152018093F1008091E8008E77DCCF9B
:1055000080913903813201F780913D0390913E03F0
:10551000892BD1F68091E800877F8093E8000E9474
:10552000A62C80913B03809352010C94DB07809161
:105530003903813249F68091E800877F8093E80043
:105540000E94A62C80913C038093F50208958091DF
:105550003903813A09F0B8CF8091E800877F8093C2
:10556000E8008091E80080FFFCCF8091F502C2CF77
:1055700084B7877F84BF0FB6F894A89580916000A8
:10558000886180936000109260000FBE80E890E018
:105590000FB6F89480936100909361000FBE0C9455
:1055A00012280E94F62C0E94532DE2EEF0E080813A
:1055B0008460808378940C94DF2F86E491E00C94CF
:1055C0004827809138038530A9F4809138038530CD
:1055D00011F00C9456280E941528809136038823D8
:1055E000A1F30E944228882381F30E94582B0E9435
:1055F000DB07EBCF089508950C94FE2AFC01CB0144
:10560000DA012F2F332723303105D1F070F4213008
:10561000310509F43EC02230310569F48BE390E096
:105620002DE234E02D933C93089521323105E9F0C9
:105630002232310521F190E080E030E020E0F2CF2D
:10564000CF019927E13059F08230910559F0E9E214
:10565000F4E0892B81F7849190E09F01E3CFE9E1A9
:10566000F4E0F9CFEFEEF3E0F6CF892BB9F061303B
:10567000710509F789E090E028E534E0D3CF892B64
:1056800091F061307105B9F68BE790E02AE734E0DC
:10569000C9CF82E190E028E634E0C4CF89E090E011
:1056A0002FE334E0BFCF80E490E025EF34E0BACFC1
:1056B00080E189BD82E189BD09B400FEFDCF809102
:1056C000D8008F7D8093D8008091E0008260809325
:1056D000E0008091E00081FDFCCF0895AF92BF9281
:1056E000CF92DF92FF920F931F93CF93DF936C01C2
:1056F000EB018A010E94C52CF82E811123C00115EF
:10570000110539F0F80180819181C81BD90BC80EB1
:10571000D91EB12CA12C2097A9F08091E80085FD1D
:1057200022C08091E8008E778093E8000115110572
:10573000A1F0F801808191818A0D9B1D9183808366
:1057400085E0F82E8F2DDF91CF911F910F91FF9063
:10575000DF90CF90BF90AF9008950E94C52C882312
:10576000D1F2F82EEFCFF60181916F018093F10015
:105770002197FFEFAF1ABF0ACECFFC01CB012091DA
:105780003F03309140032617370790F0009729F424
:105790002091E8002E772093E80040E0009751F434
:1057A000411108C08091E80082FF31C080E0089577
:1057B000C901F3CF209138032223A9F12530A9F1A3
:1057C0002091E80023FD2DC02091E80022FDEACFC2
:1057D0002091E80020FFE2CF3091F3002091F20009
:1057E000009719F02830310558F041E02830310594
:1057F00009F040E02091E8002E772093E800CECF1A
:1058000041914093F10001972F5F3F4FE9CF809185
:105810003803882341F0853041F08091E80083FF10
:10582000C1CF81E0089582E0089583E00895FC01EE
:10583000CB0120913F03309140032617370790F0AA
:10584000009729F42091E8002E772093E80040E0AB
:10585000009751F4411108C08091E80082FF32C0E6
:1058600080E00895C901F3CF209138032223B1F1DC
:105870002530B1F12091E80023FD2EC02091E800F1
:1058800022FDEACF2091E80020FFE2CF3091F30023
:105890002091F200009719F02830310558F041E0CE
:1058A0002830310509F040E02091E8002E77209360
:1058B000E800CECF44914093F100319601972F5FDD
:1058C0003F4FE8CF80913803882341F0853041F085
:1058D0008091E80083FFC0CF81E0089582E00895C1
:1058E00083E00895982F973028F08F708093E90017
:1058F00081E008959093E900242F762F50E09817C7
:1059000031F07091EC002091ED005091F00021FDFC
:1059100002C09F5FE8CF3091EB003E7F3093EB00F9
:105920003091ED003D7F3093ED003091EB00316020
:105930003093EB007093EC002093ED005093F00057
:105940002091EE0027FDE5CF80E008958091390396
:1059500087FF13C08091E80082FF06C08091E800B5
:105960008B778093E80004C0809138038111F2CFD7
:105970000895809138038823D9F38091E80080FF4F
:10598000F8CF8091E8008E77ECCF2091E400309141
:10599000E50095E6A9012091EC00822F817020FF9F
:1059A00006C08091E80080FF06C080E00895209145
:1059B000E80022FD1AC080913803882389F08530E1
:1059C00089F08091EB0085FD0FC02091E4003091BB
:1059D000E50042175307F9F29150E1F684E008958B
:1059E00082E0089583E0089581E008950E94642D87
:1059F0000E946C2DE0EEF0E0808181608083E8ED14
:105A0000F0E080818F77808319BCA7EDB0E08C91A6
:105A10008E7F8C9380818F7E8083109237030895D0
:105A20000F931F93CF93DF930E94642D0E946C2DE0
:105A3000C8EDD0E088818F778883888180688883EB
:105A400088818F7D888319BC1092380310923403AB
:105A5000109236031092350300EE10E0F8018081B9
:105A60008B7F808388818160888342E060E080E072
:105A70000E94722CE1EEF0E080818E7F8083E2EE66
:105A8000F0E0808181608083808188608083F8017C
:105A900080818E7F8083888180618883DF91CF9130
:105AA0001F910F910895E8EDF0E080818F7E808353
:105AB000E7EDF0E080818160808384E082BF81E057
:105AC000809337030C94102DE8EDF0E080818E7FF9
:105AD00080831092E20008951092DA001092E100A3
